{
  "contractName": "Owned",
  "abi": [
    {
      "constant": true,
      "inputs": [],
      "name": "owner",
      "outputs": [
        {
          "name": "",
          "type": "address"
        }
      ],
      "payable": false,
      "stateMutability": "view",
      "type": "function"
    },
    {
      "constant": true,
      "inputs": [],
      "name": "newOwner",
      "outputs": [
        {
          "name": "",
          "type": "address"
        }
      ],
      "payable": false,
      "stateMutability": "view",
      "type": "function"
    },
    {
      "inputs": [],
      "payable": false,
      "stateMutability": "nonpayable",
      "type": "constructor"
    },
    {
      "anonymous": false,
      "inputs": [
        {
          "indexed": true,
          "name": "_from",
          "type": "address"
        },
        {
          "indexed": true,
          "name": "_to",
          "type": "address"
        }
      ],
      "name": "OwnershipTransferred",
      "type": "event"
    },
    {
      "constant": false,
      "inputs": [
        {
          "name": "_newOwner",
          "type": "address"
        }
      ],
      "name": "transferOwnership",
      "outputs": [],
      "payable": false,
      "stateMutability": "nonpayable",
      "type": "function"
    },
    {
      "constant": false,
      "inputs": [],
      "name": "acceptOwnership",
      "outputs": [],
      "payable": false,
      "stateMutability": "nonpayable",
      "type": "function"
    }
  ],
  "bytecode": "0x608060405234801561001057600080fd5b5073c4d446c6b924c431f89214319d5a3e6bb67e76276000806101000a81548173ffffffffffffffffffffffffffffffffffffffff021916908373ffffffffffffffffffffffffffffffffffffffff160217905550610432806100746000396000f3fe608060405260043610610062576000357c0100000000000000000000000000000000000000000000000000000000900463ffffffff16806379ba5097146100675780638da5cb5b1461007e578063d4ee1d90146100d5578063f2fde38b1461012c575b600080fd5b34801561007357600080fd5b5061007c61017d565b005b34801561008a57600080fd5b5061009361031c565b604051808273ffffffffffffffffffffffffffffffffffffffff1673ffffffffffffffffffffffffffffffffffffffff16815260200191505060405180910390f35b3480156100e157600080fd5b506100ea610341565b604051808273ffffffffffffffffffffffffffffffffffffffff1673ffffffffffffffffffffffffffffffffffffffff16815260200191505060405180910390f35b34801561013857600080fd5b5061017b6004803603602081101561014f57600080fd5b81019080803573ffffffffffffffffffffffffffffffffffffffff169060200190929190505050610367565b005b600160009054906101000a900473ffffffffffffffffffffffffffffffffffffffff1673ffffffffffffffffffffffffffffffffffffffff163373ffffffffffffffffffffffffffffffffffffffff161415156101d957600080fd5b600160009054906101000a900473ffffffffffffffffffffffffffffffffffffffff1673ffffffffffffffffffffffffffffffffffffffff166000809054906101000a900473ffffffffffffffffffffffffffffffffffffffff1673ffffffffffffffffffffffffffffffffffffffff167f8be0079c531659141344cd1fd0a4f28419497f9722a3daafe3b4186f6b6457e060405160405180910390a3600160009054906101000a900473ffffffffffffffffffffffffffffffffffffffff166000806101000a81548173ffffffffffffffffffffffffffffffffffffffff021916908373ffffffffffffffffffffffffffffffffffffffff1602179055506000600160006101000a81548173ffffffffffffffffffffffffffffffffffffffff021916908373ffffffffffffffffffffffffffffffffffffffff160217905550565b6000809054906101000a900473ffffffffffffffffffffffffffffffffffffffff1681565b600160009054906101000a900473ffffffffffffffffffffffffffffffffffffffff1681565b6000809054906101000a900473ffffffffffffffffffffffffffffffffffffffff1673ffffffffffffffffffffffffffffffffffffffff163373ffffffffffffffffffffffffffffffffffffffff161415156103c257600080fd5b80600160006101000a81548173ffffffffffffffffffffffffffffffffffffffff021916908373ffffffffffffffffffffffffffffffffffffffff1602179055505056fea165627a7a723058201dda3437c3e0e216267d270303d0bb4c469737c60dc8d79e5cf7b91c6a67d6280029",
  "source": "pragma solidity ^0.5.0;\n\n// ----------------------------------------------------------------------------\n// Safe maths\n// ----------------------------------------------------------------------------\ncontract SafeMath {\n    function safeAdd(uint a, uint b) internal pure returns (uint c) {\n        c = a + b;\n        require(c >= a);\n    }\n    function safeSub(uint a, uint b) internal pure returns (uint c) {\n        require(b <= a);\n        c = a - b;\n    }\n    function safeMul(uint a, uint b) internal pure returns (uint c) {\n        c = a * b;\n        require(a == 0 || c / a == b);\n    }\n    function safeDiv(uint a, uint b) internal pure returns (uint c) {\n        require(b > 0);\n        c = a / b;\n    }\n}\n\n\n// ----------------------------------------------------------------------------\n// Owned contract\n// ----------------------------------------------------------------------------\n\ncontract Owned {\n    address public owner;\n    address public newOwner;\n\n    event OwnershipTransferred(address indexed _from, address indexed _to);\n\n    //The owner will me always this address even if another address pay ether to launch the contract (need to be check)\n    constructor() public {\n        owner = 0xc4d446c6B924c431f89214319D5A3e6bb67e7627; // my personnal address with my phone number (it is my public key)\n    }\n\n    modifier onlyOwner {\n        require(msg.sender == owner);\n        _;\n    }\n\n    function transferOwnership(address _newOwner) public onlyOwner {\n        newOwner = _newOwner;\n    }\n\n    function acceptOwnership() public {\n        require(msg.sender == newOwner);\n        emit OwnershipTransferred(owner, newOwner);\n        owner = newOwner;\n        newOwner = address(0);\n    }\n}\n\n\n// ----------------------------------------------------------------------------\n// AST contract : The first part is the ERC20 function then advance coin functions\n// ----------------------------------------------------------------------------\n\ncontract AurexiaSocialToken is Owned, SafeMath {\n    bytes32 public symbol;\n    bytes32 public name;\n    uint8 public decimals;\n    uint256 public _totalSupply;\n    uint32 public initialSupply;\n    bool public openDonation; // when true we can send our token to association \n\n    struct wording {\n      uint256 id;\n      address from;\n      address to;\n      uint256 amountAST;\n      bytes32 text;\n    }\n\n    //storage of all wordings by their id and their address\n    mapping (uint256 => wording) private wordings;\n    mapping (address => mapping (uint256 => wording)) private personalWordings;\n    uint256 public indexNewWording;\n\n    //storage of all adresses and the size of members of aurexia\n    address[] private aurexiaAccounts;\n    uint256 public sizeListAccount;\n\n    //storage of all adresses of all charities\n    address[] private charityAccounts;\n    uint256 public sizeListCharity;\n\n    struct membre{\n      address publicKey;\n      bytes32 name;    // first name + family Name\n      uint8 grade;     // 1 for consultants, 2 for managers, 3 for partners, 4 for admin \n      bool isMember;\n      uint256 nbrTransaction;\n      uint256 nbrSend;\n      uint256 nbrReceive;\n      uint256 totalReceive;\n      uint256 totalSend;\n    }\n\n    struct association{\n      address publicKey;\n      bytes32 name;\n      bool isPartner; // kind of whitelist of association, allowed to add and remove easier\n    }\n\n    mapping(address => uint) private balances;\n    mapping(address => membre) private aurexiaMembers;\n    mapping(address => association) private associationList;\n\n    event Transfer(address indexed from, address indexed to, uint tokens);\n    event Burn(address indexed from, uint256 value);\n\n    //mapping and event for ERC20 function but we didn't use it. I put it for good recognition of our contract as ERC20\n    mapping (address => mapping (address => uint256)) private _allowed;\n    event Approval(address indexed owner, address indexed spender, uint256 value);\n\n\n    // ------------------------------------------------------------------------\n    // Constructor\n    // ------------------------------------------------------------------------\n\n    constructor() public {\n        symbol = \"AST\";\n        name = \"AurexiaSocialToken\";\n        decimals = 18;\n        initialSupply = 20000;\n        _totalSupply = initialSupply * 10**uint256(decimals); // 1 token = 1 * 10^18 because of 18 decimals\n        balances[owner] = _totalSupply;\n\n        emit Transfer(address(0), owner, _totalSupply);\n        \n        wordings[0].id = 0;\n        wordings[0].to = owner;\n        wordings[0].amountAST = _totalSupply;\n        wordings[0].text = \"Contract Creation\";\n        indexNewWording = 1;\n\n        personalWordings[owner][0].id = 0;\n        personalWordings[owner][0].to = owner;\n        personalWordings[owner][0].amountAST = _totalSupply;\n        personalWordings[owner][0].text = \"Contract Creation\";\n\n        // add of  the owner in the whitelist aurexiaMembers\n        aurexiaMembers[owner].publicKey = owner;\n        aurexiaMembers[owner].name = \"Administrator\";\n        aurexiaMembers[owner].grade = 4;\n        aurexiaMembers[owner].isMember = true;\n        aurexiaMembers[owner].nbrTransaction = 1;\n        aurexiaMembers[owner].nbrReceive = 1;\n        aurexiaMembers[owner].totalReceive = _totalSupply;\n\n        aurexiaAccounts.push(owner);\n        sizeListAccount += 1;\n\n        openDonation = false;\n\n      }\n\n    // ------------------------------------------------------------------------\n    // ERC20 Functions (approve and allowed functions are written but we don't use it. There are just here for a good recognition of our contract as an ERC20)\n    // ref \"https://www.ethereum-france.com/qu-est-ce-qu-un-token-erc20/\" to know what do all ERC20 functions\n    // ------------------------------------------------------------------------\n\n    function totalSupply() public view returns (uint256) {\n        return _totalSupply;\n      }\n\n    function balanceOf(address _address) public view returns (uint256) {\n        return balances[_address];\n      }\n\n    function transfer(address _to, uint256 _value, bytes32 _text) public returns (bool) {\n        require (aurexiaMembers[msg.sender].isMember == true);\n        _transfer(msg.sender, _to, _value, _text);\n        return true;\n      }\n\n    function transferFrom(address _from, address _to, uint256 _value, bytes32 _text) public onlyOwner() returns (bool) {\n        _transfer(_from, _to, _value, _text);\n        return true;\n      }\n\n    function _transfer(address from, address to, uint256 tokens, bytes32 text) private {\n        require(to != address(0), \"address 0x0\");\n        balances[from] = safeSub(balances[from], tokens);\n        balances[to] = safeAdd(balances[to], tokens);\n\n        wording memory newWording;\n        newWording.id = indexNewWording;\n        newWording.from = from;\n        newWording.to = to;\n        newWording.amountAST = tokens;\n        newWording.text = text;\n\n        wordings[indexNewWording] = newWording;\n        indexNewWording = safeAdd(indexNewWording, 1);\n\n        uint256 tailleFrom = aurexiaMembers[from].nbrTransaction;\n        uint256 tailleTo = aurexiaMembers[to].nbrTransaction;\n        personalWordings[from][tailleFrom] = newWording;\n        aurexiaMembers[from].nbrTransaction = safeAdd(aurexiaMembers[from].nbrTransaction,1);\n        aurexiaMembers[from].nbrSend = safeAdd(aurexiaMembers[from].nbrSend,1);\n        aurexiaMembers[from].totalSend = safeAdd(aurexiaMembers[from].totalSend,tokens);\n        aurexiaMembers[to].nbrReceive = safeAdd(aurexiaMembers[to].nbrReceive,1);\n        aurexiaMembers[to].totalReceive = safeAdd(aurexiaMembers[to].totalReceive,tokens);\n\n        if (from != to){                //this line is when administrator send to himself some token, it's jsut 1 transaction overall but must be count as 1 transaction send and 1 receive\n          personalWordings[to][tailleTo] = newWording;\n          aurexiaMembers[to].nbrTransaction = safeAdd(aurexiaMembers[to].nbrTransaction,1);\n        }\n\n        emit Transfer(from, to, tokens);\n      }\n\n\n// ***********************************************************************************//\n    function approve(address spender, uint256 value) public returns (bool) {\n        _approve(msg.sender, spender, value);\n        return true;\n    }\n\n    function _approve(address sender, address spender, uint256 value) internal {\n        require(spender != address(0), \"address 0x0\");\n        require(sender != address(0), \"address 0x0\");\n\n        _allowed[sender][spender] = value;\n        emit Approval(sender, spender, value);\n    }\n\n    function allowance(address sender, address spender) public view returns (uint256) {\n        return _allowed[sender][spender];\n    }\n\n  // ------------------------------------------------------------------------\n  // Advanced functions : AST functions\n  // ------------------------------------------------------------------------\n\n  // Creation of token, increase both total supply and the account which receive all the new tokens\n\n//be careful when you create token to be aware of the 18 decimals. For exemple create 300 tokens is 300 * 10^18 in the argument value of the function\n    function mint(address _receiver, uint256 _value) public onlyOwner() {\n        require(_receiver != address(0), \"address 0x0\");\n        _totalSupply = safeAdd(_totalSupply, _value);\n        balances[_receiver] = safeAdd(balances[_receiver],_value);\n\n        wording memory newWording;\n        newWording.id = indexNewWording;\n        newWording.to = _receiver;\n        newWording.amountAST = _value;\n        newWording.text = \"Token Creation From Admin\";\n\n        wordings[indexNewWording] = newWording;\n        indexNewWording = safeAdd(indexNewWording, 1);\n\n        uint256 tailleTo = aurexiaMembers[_receiver].nbrTransaction;\n        personalWordings[_receiver][tailleTo] = newWording;\n        aurexiaMembers[_receiver].nbrTransaction = safeAdd(aurexiaMembers[_receiver].nbrTransaction,1);\n\n        emit Transfer(address(0), _receiver, _value);\n    }\n\n  // Destruction of token, erase the amount of token from an account and update the total supply\n\n//be careful when you destroy token to be aware of the 18 decimals. For exemple destroy 300 tokens is 300 * 10^18 in the argument value of the function\n    function burn(address _address, uint256 _value) public onlyOwner() returns (bool success) {\n        require(balances[_address] >= _value);                        // Check if the sender has enough\n        balances[_address] = safeSub(balances[_address], _value);           // Subtract from the sender\n        _totalSupply = safeSub(_totalSupply, _value);                   // Updates totalSupply\n\n        wording memory newWording;\n        newWording.id = indexNewWording;\n        newWording.to = _address;\n        newWording.amountAST = _value;\n        newWording.text = \"Token Suppression From Admin\";\n\n        wordings[indexNewWording] = newWording;\n        indexNewWording = safeAdd(indexNewWording, 1);\n\n        uint256 tailleTo = aurexiaMembers[_address].nbrTransaction;\n        personalWordings[_address][tailleTo] = newWording;\n        aurexiaMembers[_address].nbrTransaction = safeAdd(aurexiaMembers[_address].nbrTransaction,1);\n\n        emit Burn(msg.sender, _value);\n        return true;\n    }\n\n    //transfer tokens to all aurexia members from administrator\n\n    function transferAll(uint256 _value) public onlyOwner() returns (bool success) {\n        require(balances[owner] >= safeMul(_value,sizeListAccount));\n        for (uint i=0; i<sizeListAccount; i++){\n          address account = aurexiaAccounts[i];\n          bytes32 text = \"initial donation\";\n          _transfer(owner, account, _value, text);\n        }\n        return true;\n    }\n\n  // Functions to add/remove new members in AurexiaMembers (whitelist)\n\n    function addToAurexiaMembers (address _address, bytes32 _name, uint8 _grade) public returns (bool) {\n        require (msg.sender == owner || aurexiaMembers[msg.sender].grade > 1);\n        aurexiaMembers[_address].publicKey = _address;\n        aurexiaMembers[_address].name = _name;\n        aurexiaMembers[_address].grade = _grade;\n        aurexiaMembers[_address].isMember = true;\n        for (uint i=0; i<sizeListAccount; i++ ){\n          if (_address == aurexiaAccounts[i]){\n            return true;\n          }\n        }\n        aurexiaAccounts.push(_address);\n        sizeListAccount = safeAdd(sizeListAccount, 1);\n        return true;\n    }\n\n\n    function authorizeManyMembers (address[] memory _address, bytes32[] memory _name, uint8[] memory _grade, uint256 taille) public returns (bool){\n          require (msg.sender == owner || aurexiaMembers[msg.sender].grade > 1);\n          for (uint i=0; i<taille; i++){\n            addToAurexiaMembers(_address[i], _name[i], _grade[i]);\n          }\n          return true;\n      }\n\n\n    function remAurexiaMembers (address _address) public returns (bool){\n        require (msg.sender == owner || aurexiaMembers[msg.sender].grade > 1);\n        aurexiaMembers[_address].isMember = false;\n        for (uint i=0; i<sizeListAccount; i++ ){\n          if (_address == aurexiaAccounts[i]){\n            aurexiaAccounts[i] = aurexiaAccounts[sizeListAccount - 1];\n            delete aurexiaAccounts[sizeListAccount - 1];\n            sizeListAccount = safeSub(sizeListAccount, 1);\n            break;\n          }\n        }\n        return true;\n    }\n\n    \n    //function to get all data members from the contract\n\n    function getMembers() public view returns (address[] memory){\n        return aurexiaAccounts;\n    }\n\n    function getMembersAndName() public view returns (address[] memory, bytes32[] memory){\n        bytes32[] memory NameAurexia = new bytes32[](sizeListAccount);\n        for (uint i=0; i<sizeListAccount; i++){\n          NameAurexia[i] = getName(aurexiaAccounts[i]);\n        }\n        return (aurexiaAccounts, NameAurexia);\n    }\n\n    function getMembersAndNameAndBalance() public view returns (address[] memory, bytes32[] memory, uint256[] memory){\n        bytes32[] memory nameAurexia = new bytes32[](sizeListAccount);\n        uint256[] memory balanceAurexia = new uint256[](sizeListAccount);\n        for (uint i=0; i<sizeListAccount; i++){\n          nameAurexia[i] = getName(aurexiaAccounts[i]);\n          balanceAurexia[i] = balanceOf(aurexiaAccounts[i]);\n        }\n        return (aurexiaAccounts, nameAurexia, balanceAurexia);\n    }\n\n    function getAddress (uint256 index) public view returns (address){\n        return aurexiaAccounts[index];\n    }\n\n  \n  //function to check member in AurexiaMembers (whitelist)\n\n    function isInAurexiaMembers (address _address) public view returns (bool){\n        return aurexiaMembers[_address].isMember;\n    }\n\n  //functions to get all information from a member (you must be in the whitelist to have access to this)\n    function getName (address _address) public view returns (bytes32){\n        return aurexiaMembers[_address].name;\n    }\n\n    function getGrade (address _address) public view returns (uint8){\n        return aurexiaMembers[_address].grade;\n    }\n\n    function getNbrTransaction (address _address) public view returns (uint256){\n        return aurexiaMembers[_address].nbrTransaction;\n    }\n\n    function getTotalSend (address _address) public view returns (uint256){\n        return aurexiaMembers[_address].totalSend;\n    }\n\n    function getTotalReceive (address _address) public view returns (uint256){\n        return aurexiaMembers[_address].totalReceive;\n    }\n\n    function getNbrSend (address _address) public view returns (uint256){\n        return aurexiaMembers[_address].nbrSend;\n    }\n\n    function getNbrReceive (address _address) public view returns (uint256){\n        return aurexiaMembers[_address].nbrReceive;\n    }\n\n  //function to modify grade \n\n    function modifyGrade (address _address, uint8 newGrade) public returns (bool){   // only owner and manager and partner can promote somebody\n        require (msg.sender == owner || aurexiaMembers[msg.sender].grade > 1);\n        aurexiaMembers[_address].grade = newGrade;\n        return true;\n    }\n\n  //function to modify name (only owner and the one who want to change his/her name)\n\n    function modifyName (address _address, bytes32 newName) public returns (bool){\n        require (msg.sender == owner || _address == msg.sender);\n        aurexiaMembers[_address].name = newName;\n    }\n  \n  //function to manage association \n    \n    function addAssociation (address _address, bytes32 _name) public returns (bool){\n        require (msg.sender == owner || aurexiaMembers[msg.sender].grade == 3);\n        associationList[_address].name = _name;\n        associationList[_address].publicKey = _address;\n        associationList[_address].isPartner = true;\n        charityAccounts.push(_address);\n        sizeListCharity = safeAdd(sizeListCharity, 1);\n        return true;\n    }\n\n    function remAssociation (address _address) public returns (bool){\n        require (msg.sender == owner || aurexiaMembers[msg.sender].grade == 3);\n        associationList[_address].isPartner = false;\n        for (uint i=0; i<sizeListCharity; i++ ){\n          if (_address == charityAccounts[i]){\n            charityAccounts[i] = charityAccounts[sizeListCharity - 1];\n            delete charityAccounts[sizeListCharity - 1];\n            sizeListCharity = safeSub(sizeListCharity, 1);\n            break;\n          }\n        }\n        return true; \n    }\n    function transferToAssociation (address _address, uint256 _amount) public returns (bool){\n        require (aurexiaMembers[msg.sender].isMember == true);\n        require (openDonation == true);\n        require (associationList[_address].isPartner == true);\n        bytes32 donationText = \"Sending to Association\";\n        _transfer (msg.sender, _address, _amount, donationText);\n        return true; \n    }\n\n    function getCharityAddress () public view returns (address[] memory){\n        return charityAccounts;\n    }\n\n    function getCharitySize () public view returns (uint256){\n        return sizeListCharity;\n    }\n\n    function launchDonation () public returns (bool){\n        require (msg.sender == owner || aurexiaMembers[msg.sender].grade == 3);\n        require (openDonation == false);\n        openDonation = true; \n        return true;\n    }\n\n    function closeDonation () public returns (bool){\n        require (msg.sender == owner || aurexiaMembers[msg.sender].grade == 3);\n        require (openDonation == true);\n        openDonation = false;\n        return true;\n    }\n\n    function getCharityAddressAndName () public view returns (address[] memory, bytes32[] memory){\n        bytes32[] memory nameCharity = new bytes32[](sizeListCharity);\n        for (uint256 i=0; i<sizeListCharity; i++){\n          nameCharity[i] = getAssoName(charityAccounts[i]);\n        }\n        return (charityAccounts, nameCharity);\n    }\n\n  //Read function for associations\n\n    function isAssoPartner (address _address) public view returns (bool){\n        return associationList[_address].isPartner;\n    }\n\n    function getAssoName (address _address) public view returns (bytes32){\n        return associationList[_address].name;\n    }\n\n    function isDonationOpen () public view returns (bool){\n        return openDonation;\n    }\n\n\n  // functions transaction : We want to get and store the wording (libellé) of the transaction\n\n    function getAllWordings () public view returns (address[]memory, address[]memory, uint256[]memory, bytes32[]memory){\n        address[] memory addressFrom = new address[](indexNewWording);\n        address[] memory addressTo = new address[](indexNewWording);\n        uint256[] memory amountsAST = new uint256[](indexNewWording);\n        bytes32[] memory textWordings = new bytes32[](indexNewWording);\n        for (uint256 i=0; i<indexNewWording; i++){\n          addressFrom[i] = wordings[i].from;\n          addressTo[i] = wordings[i].to;\n          amountsAST[i] = wordings[i].amountAST;\n          textWordings[i] = wordings[i].text;\n        }\n        return (addressFrom, addressTo, amountsAST, textWordings);\n    }\n\n    function getPersonalWordings (address _address) public view returns (address[]memory, address[]memory, uint256[]memory, bytes32[]memory){\n        uint256 taille = aurexiaMembers[_address].nbrTransaction;\n        address[] memory addressFrom = new address[](taille);\n        address[] memory addressTo = new address[](taille);\n        uint256[] memory amountsAST = new uint256[](taille);\n        bytes32[] memory textWordings = new bytes32[](taille);\n        for (uint256 i=0; i<taille; i++){\n          addressFrom[i] = personalWordings[_address][i].from;\n          addressTo[i] = personalWordings[_address][i].to;\n          amountsAST[i] = personalWordings[_address][i].amountAST;\n          textWordings[i] = personalWordings[_address][i].text;\n        }\n        return (addressFrom, addressTo, amountsAST, textWordings);\n    }\n\n    function getPersoInfoTransaction (address _address) public view returns (uint256, uint256, uint256, uint256, uint256){\n        uint256 _nbrTransaction = getNbrTransaction(_address);\n        uint256 _totalSend = getTotalSend(_address);\n        uint256 _totalReceive = getTotalReceive(_address);\n        uint256 _nbrSend = getNbrSend(_address);\n        uint256 _nbrReceive = getNbrReceive(_address);\n        return (_nbrTransaction, _totalSend, _totalReceive, _nbrSend, _nbrReceive);\n    }\n\n    function getAllInfoTransaction () public view returns (uint256[]memory, uint256[]memory, uint256[]memory, uint256[]memory, uint256[]memory, bytes32[]memory){\n        uint256[] memory _nbrTransaction = new uint256[](sizeListAccount);\n        uint256[] memory _nbrSend = new uint256[](sizeListAccount);\n        uint256[] memory _totalReceive = new uint256[](sizeListAccount);\n        uint256[] memory _totalSend = new uint256[](sizeListAccount);\n        uint256[] memory _nbrReceive = new uint256[](sizeListAccount);\n        bytes32[] memory _nameUser = new bytes32[](sizeListAccount);\n        for (uint256 i=0; i<sizeListAccount; i++){\n          _nbrTransaction[i] = getNbrTransaction(aurexiaAccounts[i]);\n          _nbrSend[i] = getNbrSend(aurexiaAccounts[i]);\n          _totalReceive[i] = getTotalReceive(aurexiaAccounts[i]);\n          _totalSend[i] = getTotalSend(aurexiaAccounts[i]);\n          _nbrReceive[i] = getNbrReceive(aurexiaAccounts[i]);\n          _nameUser[i] = getName(aurexiaAccounts[i]);\n        }\n        return (_nbrTransaction, _nbrSend, _totalReceive, _totalSend, _nbrReceive, _nameUser);\n    }\n\n\n\n    \n  // ------------------------------------------------------------------------\n  // Function for event management\n  // ------------------------------------------------------------------------\n\n\n\n}\n\n\n\n\n",
  "sourcePath": "C:/Users/spierre/Desktop/Aurexia Git/aurexiaGit.github.io/Blockchain_dev_ABA/SmartContract ropsten Test opti dev4/contracts/AurexiaSocialToken.sol",
  "compiler": {
    "name": "solc",
    "version": "0.5.0+commit.1d4f565a.Emscripten.clang"
  },
  "schemaVersion": "3.0.8",
  "updatedAt": "2019-06-28T14:02:51.103Z",
  "devdoc": {
    "methods": {}
  },
  "userdoc": {
    "methods": {}
  }
}