{
  "contractName": "Owned",
  "abi": [
    {
      "constant": true,
      "inputs": [],
      "name": "owner",
      "outputs": [
        {
          "name": "",
          "type": "address"
        }
      ],
      "payable": false,
      "stateMutability": "view",
      "type": "function"
    },
    {
      "constant": true,
      "inputs": [],
      "name": "newOwner",
      "outputs": [
        {
          "name": "",
          "type": "address"
        }
      ],
      "payable": false,
      "stateMutability": "view",
      "type": "function"
    },
    {
      "inputs": [],
      "payable": false,
      "stateMutability": "nonpayable",
      "type": "constructor"
    },
    {
      "anonymous": false,
      "inputs": [
        {
          "indexed": true,
          "name": "_from",
          "type": "address"
        },
        {
          "indexed": true,
          "name": "_to",
          "type": "address"
        }
      ],
      "name": "OwnershipTransferred",
      "type": "event"
    },
    {
      "constant": false,
      "inputs": [
        {
          "name": "_newOwner",
          "type": "address"
        }
      ],
      "name": "transferOwnership",
      "outputs": [],
      "payable": false,
      "stateMutability": "nonpayable",
      "type": "function"
    },
    {
      "constant": false,
      "inputs": [],
      "name": "acceptOwnership",
      "outputs": [],
      "payable": false,
      "stateMutability": "nonpayable",
      "type": "function"
    }
  ],
  "bytecode": "0x608060405234801561001057600080fd5b5073c4d446c6b924c431f89214319d5a3e6bb67e76276000806101000a81548173ffffffffffffffffffffffffffffffffffffffff021916908373ffffffffffffffffffffffffffffffffffffffff160217905550610432806100746000396000f3fe608060405260043610610062576000357c0100000000000000000000000000000000000000000000000000000000900463ffffffff16806379ba5097146100675780638da5cb5b1461007e578063d4ee1d90146100d5578063f2fde38b1461012c575b600080fd5b34801561007357600080fd5b5061007c61017d565b005b34801561008a57600080fd5b5061009361031c565b604051808273ffffffffffffffffffffffffffffffffffffffff1673ffffffffffffffffffffffffffffffffffffffff16815260200191505060405180910390f35b3480156100e157600080fd5b506100ea610341565b604051808273ffffffffffffffffffffffffffffffffffffffff1673ffffffffffffffffffffffffffffffffffffffff16815260200191505060405180910390f35b34801561013857600080fd5b5061017b6004803603602081101561014f57600080fd5b81019080803573ffffffffffffffffffffffffffffffffffffffff169060200190929190505050610367565b005b600160009054906101000a900473ffffffffffffffffffffffffffffffffffffffff1673ffffffffffffffffffffffffffffffffffffffff163373ffffffffffffffffffffffffffffffffffffffff161415156101d957600080fd5b600160009054906101000a900473ffffffffffffffffffffffffffffffffffffffff1673ffffffffffffffffffffffffffffffffffffffff166000809054906101000a900473ffffffffffffffffffffffffffffffffffffffff1673ffffffffffffffffffffffffffffffffffffffff167f8be0079c531659141344cd1fd0a4f28419497f9722a3daafe3b4186f6b6457e060405160405180910390a3600160009054906101000a900473ffffffffffffffffffffffffffffffffffffffff166000806101000a81548173ffffffffffffffffffffffffffffffffffffffff021916908373ffffffffffffffffffffffffffffffffffffffff1602179055506000600160006101000a81548173ffffffffffffffffffffffffffffffffffffffff021916908373ffffffffffffffffffffffffffffffffffffffff160217905550565b6000809054906101000a900473ffffffffffffffffffffffffffffffffffffffff1681565b600160009054906101000a900473ffffffffffffffffffffffffffffffffffffffff1681565b6000809054906101000a900473ffffffffffffffffffffffffffffffffffffffff1673ffffffffffffffffffffffffffffffffffffffff163373ffffffffffffffffffffffffffffffffffffffff161415156103c257600080fd5b80600160006101000a81548173ffffffffffffffffffffffffffffffffffffffff021916908373ffffffffffffffffffffffffffffffffffffffff1602179055505056fea165627a7a72305820311e28ad40aa657f2399052f199f2f21ad9ba3db1b702d034af2f2bd9fd7e4460029",
  "source": "pragma solidity ^0.5.0;\r\n\r\n// ----------------------------------------------------------------------------\r\n// Safe maths\r\n// ----------------------------------------------------------------------------\r\ncontract SafeMath {\r\n    function safeAdd(uint a, uint b) internal pure returns (uint c) {\r\n        c = a + b;\r\n        require(c >= a);\r\n    }\r\n    function safeSub(uint a, uint b) internal pure returns (uint c) {\r\n        require(b <= a);\r\n        c = a - b;\r\n    }\r\n    function safeMul(uint a, uint b) internal pure returns (uint c) {\r\n        c = a * b;\r\n        require(a == 0 || c / a == b);\r\n    }\r\n    function safeDiv(uint a, uint b) internal pure returns (uint c) {\r\n        require(b > 0);\r\n        c = a / b;\r\n    }\r\n}\r\n\r\n\r\n// ----------------------------------------------------------------------------\r\n// Owned contract\r\n// ----------------------------------------------------------------------------\r\n\r\ncontract Owned {\r\n    address public owner;\r\n    address public newOwner;\r\n\r\n    event OwnershipTransferred(address indexed _from, address indexed _to);\r\n\r\n    //The owner will me always this address even if another address pay ether to launch the contract (need to be check)\r\n    constructor() public {\r\n        owner = 0xc4d446c6B924c431f89214319D5A3e6bb67e7627; // my personnal address with my phone number (it is my public key)\r\n    }\r\n\r\n    modifier onlyOwner {\r\n        require(msg.sender == owner);\r\n        _;\r\n    }\r\n\r\n    function transferOwnership(address _newOwner) public onlyOwner {\r\n        newOwner = _newOwner;\r\n    }\r\n\r\n    function acceptOwnership() public {\r\n        require(msg.sender == newOwner);\r\n        emit OwnershipTransferred(owner, newOwner);\r\n        owner = newOwner;\r\n        newOwner = address(0);\r\n    }\r\n}\r\n\r\n\r\n// ----------------------------------------------------------------------------\r\n// AST contract : The first part is the ERC20 function then advance coin functions\r\n// ----------------------------------------------------------------------------\r\n\r\ncontract AurexiaSocialToken is Owned, SafeMath {\r\n    bytes32 public symbol;\r\n    bytes32 public name;\r\n    uint8 public decimals;\r\n    uint256 public _totalSupply;\r\n    uint32 public initialSupply;\r\n    bool public openDonation; // when true we can send our token to association \r\n\r\n    struct wording {\r\n      uint256 id;\r\n      address from;\r\n      address to;\r\n      uint256 amountAST;\r\n      bytes32 text;\r\n    }\r\n\r\n    //storage of all wordings by their id and their address\r\n    mapping (uint256 => wording) private wordings;\r\n    mapping (address => mapping (uint256 => wording)) private personalWordings;\r\n    uint256 public indexNewWording;\r\n\r\n    //storage of all adresses and the size of members of aurexia\r\n    address[] private aurexiaAccounts;\r\n    uint256 public sizeListAccount;\r\n\r\n    //storage of all adresses of all charities\r\n    address[] private charityAccounts;\r\n    uint256 public sizeListCharity;\r\n\r\n    struct membre{\r\n      address publicKey;\r\n      bytes32 name;    // first name + family Name\r\n      uint8 grade;     // 1 for consultants, 2 for managers, 3 for partners, 4 for admin \r\n      bool isMember;\r\n      uint256 nbrTransaction;\r\n      uint256 nbrSend;\r\n      uint256 nbrReceive;\r\n      uint256 totalReceive;\r\n      uint256 totalSend;\r\n    }\r\n\r\n    struct association{\r\n      address publicKey;\r\n      bytes32 name;\r\n      bool isPartner; // kind of whitelist of association, allowed to add and remove easier\r\n    }\r\n\r\n    mapping(address => uint) private balances;\r\n    mapping(address => membre) private aurexiaMembers;\r\n    mapping(address => association) private associationList;\r\n\r\n    event Transfer(address indexed from, address indexed to, uint tokens);\r\n    event Burn(address indexed from, uint256 value);\r\n\r\n    //mapping and event for ERC20 function but we didn't use it. I put it for good recognition of our contract as ERC20\r\n    mapping (address => mapping (address => uint256)) private _allowed;\r\n    event Approval(address indexed owner, address indexed spender, uint256 value);\r\n\r\n\r\n    // ------------------------------------------------------------------------\r\n    // Constructor\r\n    // ------------------------------------------------------------------------\r\n\r\n    constructor() public {\r\n        symbol = \"AST\";\r\n        name = \"AurexiaSocialToken\";\r\n        decimals = 18;\r\n        initialSupply = 20000;\r\n        _totalSupply = initialSupply * 10**uint256(decimals); // 1 token = 1 * 10^18 because of 18 decimals\r\n        balances[owner] = _totalSupply;\r\n\r\n        emit Transfer(address(0), owner, _totalSupply);\r\n        \r\n        wordings[0].id = 0;\r\n        wordings[0].to = owner;\r\n        wordings[0].amountAST = _totalSupply;\r\n        wordings[0].text = \"Contract Creation\";\r\n        indexNewWording = 1;\r\n\r\n        personalWordings[owner][0].id = 0;\r\n        personalWordings[owner][0].to = owner;\r\n        personalWordings[owner][0].amountAST = _totalSupply;\r\n        personalWordings[owner][0].text = \"Contract Creation\";\r\n\r\n        // add of  the owner in the whitelist aurexiaMembers\r\n        aurexiaMembers[owner].publicKey = owner;\r\n        aurexiaMembers[owner].name = \"Administrator\";\r\n        aurexiaMembers[owner].grade = 4;\r\n        aurexiaMembers[owner].isMember = true;\r\n        aurexiaMembers[owner].nbrTransaction = 1;\r\n        aurexiaMembers[owner].nbrReceive = 1;\r\n        aurexiaMembers[owner].totalReceive = _totalSupply;\r\n\r\n        aurexiaAccounts.push(owner);\r\n        sizeListAccount += 1;\r\n\r\n        openDonation = false;\r\n\r\n      }\r\n\r\n    // ------------------------------------------------------------------------\r\n    // ERC20 Functions (approve and allowed functions are written but we don't use it. There are just here for a good recognition of our contract as an ERC20)\r\n    // ref \"https://www.ethereum-france.com/qu-est-ce-qu-un-token-erc20/\" to know what do all ERC20 functions\r\n    // ------------------------------------------------------------------------\r\n\r\n    function totalSupply() public view returns (uint256) {\r\n        return _totalSupply;\r\n      }\r\n\r\n    function balanceOf(address _address) public view returns (uint256) {\r\n        return balances[_address];\r\n      }\r\n\r\n    function transfer(address _to, uint256 _value, bytes32 _text) public returns (bool) {\r\n        require (aurexiaMembers[msg.sender].isMember == true);\r\n        _transfer(msg.sender, _to, _value, _text);\r\n        return true;\r\n      }\r\n\r\n    function transferFrom(address _from, address _to, uint256 _value, bytes32 _text) public onlyOwner() returns (bool) {\r\n        _transfer(_from, _to, _value, _text);\r\n        return true;\r\n      }\r\n\r\n    function _transfer(address from, address to, uint256 tokens, bytes32 text) private {\r\n        require(to != address(0), \"address 0x0\");\r\n        balances[from] = safeSub(balances[from], tokens);\r\n        balances[to] = safeAdd(balances[to], tokens);\r\n\r\n        wording memory newWording;\r\n        newWording.id = indexNewWording;\r\n        newWording.from = from;\r\n        newWording.to = to;\r\n        newWording.amountAST = tokens;\r\n        newWording.text = text;\r\n\r\n        wordings[indexNewWording] = newWording;\r\n        indexNewWording = safeAdd(indexNewWording, 1);\r\n\r\n        uint256 tailleFrom = aurexiaMembers[from].nbrTransaction;\r\n        uint256 tailleTo = aurexiaMembers[to].nbrTransaction;\r\n        personalWordings[from][tailleFrom] = newWording;\r\n        aurexiaMembers[from].nbrTransaction = safeAdd(aurexiaMembers[from].nbrTransaction,1);\r\n        aurexiaMembers[from].nbrSend = safeAdd(aurexiaMembers[from].nbrSend,1);\r\n        aurexiaMembers[from].totalSend = safeAdd(aurexiaMembers[from].totalSend,tokens);\r\n        aurexiaMembers[to].nbrReceive = safeAdd(aurexiaMembers[to].nbrReceive,1);\r\n        aurexiaMembers[to].totalReceive = safeAdd(aurexiaMembers[to].totalReceive,tokens);\r\n\r\n        if (from != to){                //this line is when administrator send to himself some token, it's jsut 1 transaction overall but must be count as 1 transaction send and 1 receive\r\n          personalWordings[to][tailleTo] = newWording;\r\n          aurexiaMembers[to].nbrTransaction = safeAdd(aurexiaMembers[to].nbrTransaction,1);\r\n        }\r\n\r\n        emit Transfer(from, to, tokens);\r\n      }\r\n\r\n\r\n// ***********************************************************************************//\r\n    function approve(address spender, uint256 value) public returns (bool) {\r\n        _approve(msg.sender, spender, value);\r\n        return true;\r\n    }\r\n\r\n    function _approve(address sender, address spender, uint256 value) internal {\r\n        require(spender != address(0), \"address 0x0\");\r\n        require(sender != address(0), \"address 0x0\");\r\n\r\n        _allowed[sender][spender] = value;\r\n        emit Approval(sender, spender, value);\r\n    }\r\n\r\n    function allowance(address sender, address spender) public view returns (uint256) {\r\n        return _allowed[sender][spender];\r\n    }\r\n\r\n  // ------------------------------------------------------------------------\r\n  // Advanced functions : AST functions\r\n  // ------------------------------------------------------------------------\r\n\r\n  // Creation of token, increase both total supply and the account which receive all the new tokens\r\n\r\n//be careful when you create token to be aware of the 18 decimals. For exemple create 300 tokens is 300 * 10^18 in the argument value of the function\r\n    function mint(address _receiver, uint256 _value) public onlyOwner() {\r\n        require(_receiver != address(0), \"address 0x0\");\r\n        _totalSupply = safeAdd(_totalSupply, _value);\r\n        balances[_receiver] = safeAdd(balances[_receiver],_value);\r\n\r\n        wording memory newWording;\r\n        newWording.id = indexNewWording;\r\n        newWording.to = _receiver;\r\n        newWording.amountAST = _value;\r\n        newWording.text = \"Token Creation From Admin\";\r\n\r\n        wordings[indexNewWording] = newWording;\r\n        indexNewWording = safeAdd(indexNewWording, 1);\r\n\r\n        uint256 tailleTo = aurexiaMembers[_receiver].nbrTransaction;\r\n        personalWordings[_receiver][tailleTo] = newWording;\r\n        aurexiaMembers[_receiver].nbrTransaction = safeAdd(aurexiaMembers[_receiver].nbrTransaction,1);\r\n\r\n        emit Transfer(address(0), _receiver, _value);\r\n    }\r\n\r\n  // Destruction of token, erase the amount of token from an account and update the total supply\r\n\r\n//be careful when you destroy token to be aware of the 18 decimals. For exemple destroy 300 tokens is 300 * 10^18 in the argument value of the function\r\n    function burn(address _address, uint256 _value) public onlyOwner() returns (bool success) {\r\n        require(balances[_address] >= _value);                        // Check if the sender has enough\r\n        balances[_address] = safeSub(balances[_address], _value);           // Subtract from the sender\r\n        _totalSupply = safeSub(_totalSupply, _value);                   // Updates totalSupply\r\n\r\n        wording memory newWording;\r\n        newWording.id = indexNewWording;\r\n        newWording.to = _address;\r\n        newWording.amountAST = _value;\r\n        newWording.text = \"Token Suppression From Admin\";\r\n\r\n        wordings[indexNewWording] = newWording;\r\n        indexNewWording = safeAdd(indexNewWording, 1);\r\n\r\n        uint256 tailleTo = aurexiaMembers[_address].nbrTransaction;\r\n        personalWordings[_address][tailleTo] = newWording;\r\n        aurexiaMembers[_address].nbrTransaction = safeAdd(aurexiaMembers[_address].nbrTransaction,1);\r\n\r\n        emit Burn(msg.sender, _value);\r\n        return true;\r\n    }\r\n\r\n    //transfer tokens to all aurexia members from administrator\r\n\r\n    function transferAll(uint256 _value) public onlyOwner() returns (bool success) {\r\n        require(balances[owner] >= safeMul(_value,sizeListAccount));\r\n        for (uint i=0; i<sizeListAccount; i++){\r\n          address account = aurexiaAccounts[i];\r\n          bytes32 text = \"initial donation\";\r\n          _transfer(owner, account, _value, text);\r\n        }\r\n        return true;\r\n    }\r\n\r\n  // Functions to add/remove new members in AurexiaMembers (whitelist)\r\n\r\n    function addToAurexiaMembers (address _address, bytes32 _name, uint8 _grade) public returns (bool) {\r\n        require (msg.sender == owner || aurexiaMembers[msg.sender].grade > 1);\r\n        aurexiaMembers[_address].publicKey = _address;\r\n        aurexiaMembers[_address].name = _name;\r\n        aurexiaMembers[_address].grade = _grade;\r\n        aurexiaMembers[_address].isMember = true;\r\n        for (uint i=0; i<sizeListAccount; i++ ){\r\n          if (_address == aurexiaAccounts[i]){\r\n            return true;\r\n          }\r\n        }\r\n        aurexiaAccounts.push(_address);\r\n        sizeListAccount = safeAdd(sizeListAccount, 1);\r\n        return true;\r\n    }\r\n\r\n\r\n    function authorizeManyMembers (address[] memory _address, bytes32[] memory _name, uint8[] memory _grade, uint256 taille) public returns (bool){\r\n          require (msg.sender == owner || aurexiaMembers[msg.sender].grade > 1);\r\n          for (uint i=0; i<taille; i++){\r\n            addToAurexiaMembers(_address[i], _name[i], _grade[i]);\r\n          }\r\n          return true;\r\n      }\r\n\r\n\r\n    function remAurexiaMembers (address _address) public returns (bool){\r\n        require (msg.sender == owner || aurexiaMembers[msg.sender].grade > 1);\r\n        aurexiaMembers[_address].isMember = false;\r\n        for (uint i=0; i<sizeListAccount; i++ ){\r\n          if (_address == aurexiaAccounts[i]){\r\n            aurexiaAccounts[i] = aurexiaAccounts[sizeListAccount - 1];\r\n            delete aurexiaAccounts[sizeListAccount - 1];\r\n            sizeListAccount = safeSub(sizeListAccount, 1);\r\n            break;\r\n          }\r\n        }\r\n        return true;\r\n    }\r\n\r\n    \r\n    //function to get all data members from the contract\r\n\r\n    function getMembers() public view returns (address[] memory){\r\n        return aurexiaAccounts;\r\n    }\r\n\r\n    function getMembersAndName() public view returns (address[] memory, bytes32[] memory){\r\n        bytes32[] memory NameAurexia = new bytes32[](sizeListAccount);\r\n        for (uint i=0; i<sizeListAccount; i++){\r\n          NameAurexia[i] = getName(aurexiaAccounts[i]);\r\n        }\r\n        return (aurexiaAccounts, NameAurexia);\r\n    }\r\n\r\n    function getMembersAndNameAndBalance() public view returns (address[] memory, bytes32[] memory, uint256[] memory){\r\n        bytes32[] memory nameAurexia = new bytes32[](sizeListAccount);\r\n        uint256[] memory balanceAurexia = new uint256[](sizeListAccount);\r\n        for (uint i=0; i<sizeListAccount; i++){\r\n          nameAurexia[i] = getName(aurexiaAccounts[i]);\r\n          balanceAurexia[i] = balanceOf(aurexiaAccounts[i]);\r\n        }\r\n        return (aurexiaAccounts, nameAurexia, balanceAurexia);\r\n    }\r\n\r\n    function getAddress (uint256 index) public view returns (address){\r\n        return aurexiaAccounts[index];\r\n    }\r\n\r\n  \r\n  //function to check member in AurexiaMembers (whitelist)\r\n\r\n    function isInAurexiaMembers (address _address) public view returns (bool){\r\n        return aurexiaMembers[_address].isMember;\r\n    }\r\n\r\n  //functions to get all information from a member (you must be in the whitelist to have access to this)\r\n    function getName (address _address) public view returns (bytes32){\r\n        return aurexiaMembers[_address].name;\r\n    }\r\n\r\n    function getGrade (address _address) public view returns (uint8){\r\n        return aurexiaMembers[_address].grade;\r\n    }\r\n\r\n    function getNbrTransaction (address _address) public view returns (uint256){\r\n        return aurexiaMembers[_address].nbrTransaction;\r\n    }\r\n\r\n    function getTotalSend (address _address) public view returns (uint256){\r\n        return aurexiaMembers[_address].totalSend;\r\n    }\r\n\r\n    function getTotalReceive (address _address) public view returns (uint256){\r\n        return aurexiaMembers[_address].totalReceive;\r\n    }\r\n\r\n    function getNbrSend (address _address) public view returns (uint256){\r\n        return aurexiaMembers[_address].nbrSend;\r\n    }\r\n\r\n    function getNbrReceive (address _address) public view returns (uint256){\r\n        return aurexiaMembers[_address].nbrReceive;\r\n    }\r\n\r\n  //function to modify grade \r\n\r\n    function modifyGrade (address _address, uint8 newGrade) public returns (bool){   // only owner and manager and partner can promote somebody\r\n        require (msg.sender == owner || aurexiaMembers[msg.sender].grade > 1);\r\n        aurexiaMembers[_address].grade = newGrade;\r\n        return true;\r\n    }\r\n\r\n  //function to modify name (only owner and the one who want to change his/her name)\r\n\r\n    function modifyName (address _address, bytes32 newName) public returns (bool){\r\n        require (msg.sender == owner || _address == msg.sender);\r\n        aurexiaMembers[_address].name = newName;\r\n    }\r\n  \r\n  //function to manage association \r\n    \r\n    function addAssociation (address _address, bytes32 _name) public returns (bool){\r\n        require (msg.sender == owner || aurexiaMembers[msg.sender].grade == 3);\r\n        associationList[_address].name = _name;\r\n        associationList[_address].publicKey = _address;\r\n        associationList[_address].isPartner = true;\r\n        charityAccounts.push(_address);\r\n        sizeListCharity = safeAdd(sizeListCharity, 1);\r\n        return true;\r\n    }\r\n\r\n    function remAssociation (address _address) public returns (bool){\r\n        require (msg.sender == owner || aurexiaMembers[msg.sender].grade == 3);\r\n        associationList[_address].isPartner = false;\r\n        for (uint i=0; i<sizeListCharity; i++ ){\r\n          if (_address == charityAccounts[i]){\r\n            charityAccounts[i] = charityAccounts[sizeListCharity - 1];\r\n            delete charityAccounts[sizeListCharity - 1];\r\n            sizeListCharity = safeSub(sizeListCharity, 1);\r\n            break;\r\n          }\r\n        }\r\n        return true; \r\n    }\r\n    function transferToAssociation (address _address, uint256 _amount) public returns (bool){\r\n        require (aurexiaMembers[msg.sender].isMember == true);\r\n        require (openDonation == true);\r\n        require (associationList[_address].isPartner == true);\r\n        bytes32 donationText = \"Sending to Association\";\r\n        _transfer (msg.sender, _address, _amount, donationText);\r\n        return true; \r\n    }\r\n\r\n    function getCharityAddress () public view returns (address[] memory){\r\n        return charityAccounts;\r\n    }\r\n\r\n    function getCharitySize () public view returns (uint256){\r\n        return sizeListCharity;\r\n    }\r\n\r\n    function launchDonation () public returns (bool){\r\n        require (msg.sender == owner || aurexiaMembers[msg.sender].grade == 3);\r\n        require (openDonation == false);\r\n        openDonation = true; \r\n        return true;\r\n    }\r\n\r\n    function closeDonation () public returns (bool){\r\n        require (msg.sender == owner || aurexiaMembers[msg.sender].grade == 3);\r\n        require (openDonation == true);\r\n        openDonation = false;\r\n        return true;\r\n    }\r\n\r\n    function getCharityAddressAndName () public view returns (address[] memory, bytes32[] memory){\r\n        bytes32[] memory nameCharity = new bytes32[](sizeListCharity);\r\n        for (uint256 i=0; i<sizeListCharity; i++){\r\n          nameCharity[i] = getAssoName(charityAccounts[i]);\r\n        }\r\n        return (charityAccounts, nameCharity);\r\n    }\r\n\r\n  //Read function for associations\r\n\r\n    function isAssoPartner (address _address) public view returns (bool){\r\n        return associationList[_address].isPartner;\r\n    }\r\n\r\n    function getAssoName (address _address) public view returns (bytes32){\r\n        return associationList[_address].name;\r\n    }\r\n\r\n    function isDonationOpen () public view returns (bool){\r\n        return openDonation;\r\n    }\r\n\r\n\r\n  // functions transaction : We want to get and store the wording (libellé) of the transaction\r\n\r\n    function getAllWordings () public view returns (address[]memory, address[]memory, uint256[]memory, bytes32[]memory){\r\n        address[] memory addressFrom = new address[](indexNewWording);\r\n        address[] memory addressTo = new address[](indexNewWording);\r\n        uint256[] memory amountsAST = new uint256[](indexNewWording);\r\n        bytes32[] memory textWordings = new bytes32[](indexNewWording);\r\n        for (uint256 i=0; i<indexNewWording; i++){\r\n          addressFrom[i] = wordings[i].from;\r\n          addressTo[i] = wordings[i].to;\r\n          amountsAST[i] = wordings[i].amountAST;\r\n          textWordings[i] = wordings[i].text;\r\n        }\r\n        return (addressFrom, addressTo, amountsAST, textWordings);\r\n    }\r\n\r\n    function getPersonalWordings (address _address) public view returns (address[]memory, address[]memory, uint256[]memory, bytes32[]memory){\r\n        uint256 taille = aurexiaMembers[_address].nbrTransaction;\r\n        address[] memory addressFrom = new address[](taille);\r\n        address[] memory addressTo = new address[](taille);\r\n        uint256[] memory amountsAST = new uint256[](taille);\r\n        bytes32[] memory textWordings = new bytes32[](taille);\r\n        for (uint256 i=0; i<taille; i++){\r\n          addressFrom[i] = personalWordings[_address][i].from;\r\n          addressTo[i] = personalWordings[_address][i].to;\r\n          amountsAST[i] = personalWordings[_address][i].amountAST;\r\n          textWordings[i] = personalWordings[_address][i].text;\r\n        }\r\n        return (addressFrom, addressTo, amountsAST, textWordings);\r\n    }\r\n\r\n    function getPersoInfoTransaction (address _address) public view returns (uint256, uint256, uint256, uint256, uint256){\r\n        uint256 _nbrTransaction = getNbrTransaction(_address);\r\n        uint256 _totalSend = getTotalSend(_address);\r\n        uint256 _totalReceive = getTotalReceive(_address);\r\n        uint256 _nbrSend = getNbrSend(_address);\r\n        uint256 _nbrReceive = getNbrReceive(_address);\r\n        return (_nbrTransaction, _totalSend, _totalReceive, _nbrSend, _nbrReceive);\r\n    }\r\n\r\n    function getAllInfoTransaction () public view returns (uint256[]memory, uint256[]memory, uint256[]memory, uint256[]memory, uint256[]memory, bytes32[]memory){\r\n        uint256[] memory _nbrTransaction = new uint256[](sizeListAccount);\r\n        uint256[] memory _nbrSend = new uint256[](sizeListAccount);\r\n        uint256[] memory _totalReceive = new uint256[](sizeListAccount);\r\n        uint256[] memory _totalSend = new uint256[](sizeListAccount);\r\n        uint256[] memory _nbrReceive = new uint256[](sizeListAccount);\r\n        bytes32[] memory _nameUser = new bytes32[](sizeListAccount);\r\n        for (uint256 i=0; i<sizeListAccount; i++){\r\n          _nbrTransaction[i] = getNbrTransaction(aurexiaAccounts[i]);\r\n          _nbrSend[i] = getNbrSend(aurexiaAccounts[i]);\r\n          _totalReceive[i] = getTotalReceive(aurexiaAccounts[i]);\r\n          _totalSend[i] = getTotalSend(aurexiaAccounts[i]);\r\n          _nbrReceive[i] = getNbrReceive(aurexiaAccounts[i]);\r\n          _nameUser[i] = getName(aurexiaAccounts[i]);\r\n        }\r\n        return (_nbrTransaction, _nbrSend, _totalReceive, _totalSend, _nbrReceive, _nameUser);\r\n    }\r\n\r\n\r\n\r\n    \r\n  // ------------------------------------------------------------------------\r\n  // Function for event management\r\n  // ------------------------------------------------------------------------\r\n\r\n\r\n\r\n}\r\n\r\n\r\n\r\n\r\n",
  "sourcePath": "C:/Users/sebas/OneDrive/Bureau/ProjetGitAST/aurexiaGit.github.io/Blockchain/SmartContract ropsten Test opti dev4/contracts/AurexiaSocialToken.sol",
  "compiler": {
    "name": "solc",
    "version": "0.5.0+commit.1d4f565a.Emscripten.clang"
  },
  "schemaVersion": "3.0.5",
  "updatedAt": "2019-06-30T14:41:47.678Z",
  "devdoc": {
    "methods": {}
  },
  "userdoc": {
    "methods": {}
  }
}