{
  "contractName": "AurexiaSocialToken",
  "abi": [
    {
      "constant": true,
      "inputs": [],
      "name": "name",
      "outputs": [
        {
          "name": "",
          "type": "bytes32"
        }
      ],
      "payable": false,
      "stateMutability": "view",
      "type": "function",
      "signature": "0x06fdde03"
    },
    {
      "constant": true,
      "inputs": [],
      "name": "sizeListCharity",
      "outputs": [
        {
          "name": "",
          "type": "uint256"
        }
      ],
      "payable": false,
      "stateMutability": "view",
      "type": "function",
      "signature": "0x1c6c72b0"
    },
    {
      "constant": true,
      "inputs": [],
      "name": "openDonation",
      "outputs": [
        {
          "name": "",
          "type": "bool"
        }
      ],
      "payable": false,
      "stateMutability": "view",
      "type": "function",
      "signature": "0x30e3fcad"
    },
    {
      "constant": true,
      "inputs": [],
      "name": "decimals",
      "outputs": [
        {
          "name": "",
          "type": "uint8"
        }
      ],
      "payable": false,
      "stateMutability": "view",
      "type": "function",
      "signature": "0x313ce567"
    },
    {
      "constant": true,
      "inputs": [],
      "name": "initialSupply",
      "outputs": [
        {
          "name": "",
          "type": "uint32"
        }
      ],
      "payable": false,
      "stateMutability": "view",
      "type": "function",
      "signature": "0x378dc3dc"
    },
    {
      "constant": true,
      "inputs": [],
      "name": "_totalSupply",
      "outputs": [
        {
          "name": "",
          "type": "uint256"
        }
      ],
      "payable": false,
      "stateMutability": "view",
      "type": "function",
      "signature": "0x3eaaf86b"
    },
    {
      "constant": false,
      "inputs": [],
      "name": "acceptOwnership",
      "outputs": [],
      "payable": false,
      "stateMutability": "nonpayable",
      "type": "function",
      "signature": "0x79ba5097"
    },
    {
      "constant": true,
      "inputs": [],
      "name": "owner",
      "outputs": [
        {
          "name": "",
          "type": "address"
        }
      ],
      "payable": false,
      "stateMutability": "view",
      "type": "function",
      "signature": "0x8da5cb5b"
    },
    {
      "constant": true,
      "inputs": [],
      "name": "symbol",
      "outputs": [
        {
          "name": "",
          "type": "bytes32"
        }
      ],
      "payable": false,
      "stateMutability": "view",
      "type": "function",
      "signature": "0x95d89b41"
    },
    {
      "constant": true,
      "inputs": [],
      "name": "indexNewWording",
      "outputs": [
        {
          "name": "",
          "type": "uint256"
        }
      ],
      "payable": false,
      "stateMutability": "view",
      "type": "function",
      "signature": "0xd3c49371"
    },
    {
      "constant": true,
      "inputs": [],
      "name": "newOwner",
      "outputs": [
        {
          "name": "",
          "type": "address"
        }
      ],
      "payable": false,
      "stateMutability": "view",
      "type": "function",
      "signature": "0xd4ee1d90"
    },
    {
      "constant": true,
      "inputs": [],
      "name": "sizeListAccount",
      "outputs": [
        {
          "name": "",
          "type": "uint256"
        }
      ],
      "payable": false,
      "stateMutability": "view",
      "type": "function",
      "signature": "0xd6eb5782"
    },
    {
      "constant": false,
      "inputs": [
        {
          "name": "_newOwner",
          "type": "address"
        }
      ],
      "name": "transferOwnership",
      "outputs": [],
      "payable": false,
      "stateMutability": "nonpayable",
      "type": "function",
      "signature": "0xf2fde38b"
    },
    {
      "inputs": [],
      "payable": false,
      "stateMutability": "nonpayable",
      "type": "constructor",
      "signature": "constructor"
    },
    {
      "anonymous": false,
      "inputs": [
        {
          "indexed": true,
          "name": "from",
          "type": "address"
        },
        {
          "indexed": true,
          "name": "to",
          "type": "address"
        },
        {
          "indexed": false,
          "name": "tokens",
          "type": "uint256"
        }
      ],
      "name": "Transfer",
      "type": "event",
      "signature": "0xddf252ad1be2c89b69c2b068fc378daa952ba7f163c4a11628f55a4df523b3ef"
    },
    {
      "anonymous": false,
      "inputs": [
        {
          "indexed": true,
          "name": "from",
          "type": "address"
        },
        {
          "indexed": false,
          "name": "value",
          "type": "uint256"
        }
      ],
      "name": "Burn",
      "type": "event",
      "signature": "0xcc16f5dbb4873280815c1ee09dbd06736cffcc184412cf7a71a0fdb75d397ca5"
    },
    {
      "anonymous": false,
      "inputs": [
        {
          "indexed": true,
          "name": "owner",
          "type": "address"
        },
        {
          "indexed": true,
          "name": "spender",
          "type": "address"
        },
        {
          "indexed": false,
          "name": "value",
          "type": "uint256"
        }
      ],
      "name": "Approval",
      "type": "event",
      "signature": "0x8c5be1e5ebec7d5bd14f71427d1e84f3dd0314c0f7b2291e5b200ac8c7c3b925"
    },
    {
      "anonymous": false,
      "inputs": [
        {
          "indexed": true,
          "name": "_from",
          "type": "address"
        },
        {
          "indexed": true,
          "name": "_to",
          "type": "address"
        }
      ],
      "name": "OwnershipTransferred",
      "type": "event",
      "signature": "0x8be0079c531659141344cd1fd0a4f28419497f9722a3daafe3b4186f6b6457e0"
    },
    {
      "constant": true,
      "inputs": [],
      "name": "totalSupply",
      "outputs": [
        {
          "name": "",
          "type": "uint256"
        }
      ],
      "payable": false,
      "stateMutability": "view",
      "type": "function",
      "signature": "0x18160ddd"
    },
    {
      "constant": true,
      "inputs": [
        {
          "name": "_address",
          "type": "address"
        }
      ],
      "name": "balanceOf",
      "outputs": [
        {
          "name": "",
          "type": "uint256"
        }
      ],
      "payable": false,
      "stateMutability": "view",
      "type": "function",
      "signature": "0x70a08231"
    },
    {
      "constant": false,
      "inputs": [
        {
          "name": "_to",
          "type": "address"
        },
        {
          "name": "_value",
          "type": "uint256"
        },
        {
          "name": "_text",
          "type": "bytes32"
        }
      ],
      "name": "transfer",
      "outputs": [
        {
          "name": "",
          "type": "bool"
        }
      ],
      "payable": false,
      "stateMutability": "nonpayable",
      "type": "function",
      "signature": "0x57cfeeee"
    },
    {
      "constant": false,
      "inputs": [
        {
          "name": "_from",
          "type": "address"
        },
        {
          "name": "_to",
          "type": "address"
        },
        {
          "name": "_value",
          "type": "uint256"
        },
        {
          "name": "_text",
          "type": "bytes32"
        }
      ],
      "name": "transferFrom",
      "outputs": [
        {
          "name": "",
          "type": "bool"
        }
      ],
      "payable": false,
      "stateMutability": "nonpayable",
      "type": "function",
      "signature": "0x401e3367"
    },
    {
      "constant": false,
      "inputs": [
        {
          "name": "spender",
          "type": "address"
        },
        {
          "name": "value",
          "type": "uint256"
        }
      ],
      "name": "approve",
      "outputs": [
        {
          "name": "",
          "type": "bool"
        }
      ],
      "payable": false,
      "stateMutability": "nonpayable",
      "type": "function",
      "signature": "0x095ea7b3"
    },
    {
      "constant": true,
      "inputs": [
        {
          "name": "sender",
          "type": "address"
        },
        {
          "name": "spender",
          "type": "address"
        }
      ],
      "name": "allowance",
      "outputs": [
        {
          "name": "",
          "type": "uint256"
        }
      ],
      "payable": false,
      "stateMutability": "view",
      "type": "function",
      "signature": "0xdd62ed3e"
    },
    {
      "constant": false,
      "inputs": [
        {
          "name": "_receiver",
          "type": "address"
        },
        {
          "name": "_value",
          "type": "uint256"
        }
      ],
      "name": "mint",
      "outputs": [],
      "payable": false,
      "stateMutability": "nonpayable",
      "type": "function",
      "signature": "0x40c10f19"
    },
    {
      "constant": false,
      "inputs": [
        {
          "name": "_address",
          "type": "address"
        },
        {
          "name": "_value",
          "type": "uint256"
        }
      ],
      "name": "burn",
      "outputs": [
        {
          "name": "success",
          "type": "bool"
        }
      ],
      "payable": false,
      "stateMutability": "nonpayable",
      "type": "function",
      "signature": "0x9dc29fac"
    },
    {
      "constant": false,
      "inputs": [
        {
          "name": "_value",
          "type": "uint256"
        }
      ],
      "name": "transferAll",
      "outputs": [
        {
          "name": "success",
          "type": "bool"
        }
      ],
      "payable": false,
      "stateMutability": "nonpayable",
      "type": "function",
      "signature": "0x52435bb8"
    },
    {
      "constant": false,
      "inputs": [
        {
          "name": "_address",
          "type": "address"
        },
        {
          "name": "_name",
          "type": "bytes32"
        },
        {
          "name": "_grade",
          "type": "uint8"
        }
      ],
      "name": "addToAurexiaMembers",
      "outputs": [
        {
          "name": "",
          "type": "bool"
        }
      ],
      "payable": false,
      "stateMutability": "nonpayable",
      "type": "function",
      "signature": "0x7112ba11"
    },
    {
      "constant": false,
      "inputs": [
        {
          "name": "_address",
          "type": "address[]"
        },
        {
          "name": "_name",
          "type": "bytes32[]"
        },
        {
          "name": "_grade",
          "type": "uint8[]"
        },
        {
          "name": "taille",
          "type": "uint256"
        }
      ],
      "name": "authorizeManyMembers",
      "outputs": [
        {
          "name": "",
          "type": "bool"
        }
      ],
      "payable": false,
      "stateMutability": "nonpayable",
      "type": "function",
      "signature": "0xeed414b8"
    },
    {
      "constant": false,
      "inputs": [
        {
          "name": "_address",
          "type": "address"
        }
      ],
      "name": "remAurexiaMembers",
      "outputs": [
        {
          "name": "",
          "type": "bool"
        }
      ],
      "payable": false,
      "stateMutability": "nonpayable",
      "type": "function",
      "signature": "0x53e18bdc"
    },
    {
      "constant": true,
      "inputs": [],
      "name": "getMembers",
      "outputs": [
        {
          "name": "",
          "type": "address[]"
        }
      ],
      "payable": false,
      "stateMutability": "view",
      "type": "function",
      "signature": "0x9eab5253"
    },
    {
      "constant": true,
      "inputs": [],
      "name": "getMembersAndName",
      "outputs": [
        {
          "name": "",
          "type": "address[]"
        },
        {
          "name": "",
          "type": "bytes32[]"
        }
      ],
      "payable": false,
      "stateMutability": "view",
      "type": "function",
      "signature": "0xd9543bb6"
    },
    {
      "constant": true,
      "inputs": [],
      "name": "getMembersAndNameAndBalance",
      "outputs": [
        {
          "name": "",
          "type": "address[]"
        },
        {
          "name": "",
          "type": "bytes32[]"
        },
        {
          "name": "",
          "type": "uint256[]"
        }
      ],
      "payable": false,
      "stateMutability": "view",
      "type": "function",
      "signature": "0x77f36225"
    },
    {
      "constant": true,
      "inputs": [
        {
          "name": "index",
          "type": "uint256"
        }
      ],
      "name": "getAddress",
      "outputs": [
        {
          "name": "",
          "type": "address"
        }
      ],
      "payable": false,
      "stateMutability": "view",
      "type": "function",
      "signature": "0xb93f9b0a"
    },
    {
      "constant": true,
      "inputs": [
        {
          "name": "_address",
          "type": "address"
        }
      ],
      "name": "isInAurexiaMembers",
      "outputs": [
        {
          "name": "",
          "type": "bool"
        }
      ],
      "payable": false,
      "stateMutability": "view",
      "type": "function",
      "signature": "0xfb108820"
    },
    {
      "constant": true,
      "inputs": [
        {
          "name": "_address",
          "type": "address"
        }
      ],
      "name": "getName",
      "outputs": [
        {
          "name": "",
          "type": "bytes32"
        }
      ],
      "payable": false,
      "stateMutability": "view",
      "type": "function",
      "signature": "0x5fd4b08a"
    },
    {
      "constant": true,
      "inputs": [
        {
          "name": "_address",
          "type": "address"
        }
      ],
      "name": "getGrade",
      "outputs": [
        {
          "name": "",
          "type": "uint8"
        }
      ],
      "payable": false,
      "stateMutability": "view",
      "type": "function",
      "signature": "0x313739a3"
    },
    {
      "constant": true,
      "inputs": [
        {
          "name": "_address",
          "type": "address"
        }
      ],
      "name": "getNbrTransaction",
      "outputs": [
        {
          "name": "",
          "type": "uint256"
        }
      ],
      "payable": false,
      "stateMutability": "view",
      "type": "function",
      "signature": "0x61a48dcf"
    },
    {
      "constant": true,
      "inputs": [
        {
          "name": "_address",
          "type": "address"
        }
      ],
      "name": "getTotalSend",
      "outputs": [
        {
          "name": "",
          "type": "uint256"
        }
      ],
      "payable": false,
      "stateMutability": "view",
      "type": "function",
      "signature": "0x6f485075"
    },
    {
      "constant": true,
      "inputs": [
        {
          "name": "_address",
          "type": "address"
        }
      ],
      "name": "getTotalReceive",
      "outputs": [
        {
          "name": "",
          "type": "uint256"
        }
      ],
      "payable": false,
      "stateMutability": "view",
      "type": "function",
      "signature": "0x33352d03"
    },
    {
      "constant": true,
      "inputs": [
        {
          "name": "_address",
          "type": "address"
        }
      ],
      "name": "getNbrSend",
      "outputs": [
        {
          "name": "",
          "type": "uint256"
        }
      ],
      "payable": false,
      "stateMutability": "view",
      "type": "function",
      "signature": "0x38790228"
    },
    {
      "constant": true,
      "inputs": [
        {
          "name": "_address",
          "type": "address"
        }
      ],
      "name": "getNbrReceive",
      "outputs": [
        {
          "name": "",
          "type": "uint256"
        }
      ],
      "payable": false,
      "stateMutability": "view",
      "type": "function",
      "signature": "0x1f1423b1"
    },
    {
      "constant": false,
      "inputs": [
        {
          "name": "_address",
          "type": "address"
        },
        {
          "name": "newGrade",
          "type": "uint8"
        }
      ],
      "name": "modifyGrade",
      "outputs": [
        {
          "name": "",
          "type": "bool"
        }
      ],
      "payable": false,
      "stateMutability": "nonpayable",
      "type": "function",
      "signature": "0xf09d0874"
    },
    {
      "constant": false,
      "inputs": [
        {
          "name": "_address",
          "type": "address"
        },
        {
          "name": "newName",
          "type": "bytes32"
        }
      ],
      "name": "modifyName",
      "outputs": [
        {
          "name": "",
          "type": "bool"
        }
      ],
      "payable": false,
      "stateMutability": "nonpayable",
      "type": "function",
      "signature": "0x9ca1221c"
    },
    {
      "constant": false,
      "inputs": [
        {
          "name": "_address",
          "type": "address"
        },
        {
          "name": "_name",
          "type": "bytes32"
        }
      ],
      "name": "addAssociation",
      "outputs": [
        {
          "name": "",
          "type": "bool"
        }
      ],
      "payable": false,
      "stateMutability": "nonpayable",
      "type": "function",
      "signature": "0x097a80b8"
    },
    {
      "constant": false,
      "inputs": [
        {
          "name": "_address",
          "type": "address"
        }
      ],
      "name": "remAssociation",
      "outputs": [
        {
          "name": "",
          "type": "bool"
        }
      ],
      "payable": false,
      "stateMutability": "nonpayable",
      "type": "function",
      "signature": "0x1a76e209"
    },
    {
      "constant": false,
      "inputs": [
        {
          "name": "_address",
          "type": "address"
        }
      ],
      "name": "transferToAssociation",
      "outputs": [
        {
          "name": "",
          "type": "bool"
        }
      ],
      "payable": false,
      "stateMutability": "nonpayable",
      "type": "function",
      "signature": "0xd980151c"
    },
    {
      "constant": true,
      "inputs": [],
      "name": "getCharityAddress",
      "outputs": [
        {
          "name": "",
          "type": "address[]"
        }
      ],
      "payable": false,
      "stateMutability": "view",
      "type": "function",
      "signature": "0x1ad06393"
    },
    {
      "constant": true,
      "inputs": [],
      "name": "getCharitySize",
      "outputs": [
        {
          "name": "",
          "type": "uint256"
        }
      ],
      "payable": false,
      "stateMutability": "view",
      "type": "function",
      "signature": "0xae1de61c"
    },
    {
      "constant": false,
      "inputs": [],
      "name": "launchDonation",
      "outputs": [
        {
          "name": "",
          "type": "bool"
        }
      ],
      "payable": false,
      "stateMutability": "nonpayable",
      "type": "function",
      "signature": "0x60aa8c73"
    },
    {
      "constant": false,
      "inputs": [],
      "name": "closeDonation",
      "outputs": [
        {
          "name": "",
          "type": "bool"
        }
      ],
      "payable": false,
      "stateMutability": "nonpayable",
      "type": "function",
      "signature": "0x59abef9a"
    },
    {
      "constant": true,
      "inputs": [
        {
          "name": "_address",
          "type": "address"
        }
      ],
      "name": "isAssoPartner",
      "outputs": [
        {
          "name": "",
          "type": "bool"
        }
      ],
      "payable": false,
      "stateMutability": "view",
      "type": "function",
      "signature": "0xb1affcfd"
    },
    {
      "constant": true,
      "inputs": [
        {
          "name": "_address",
          "type": "address"
        }
      ],
      "name": "getAssoName",
      "outputs": [
        {
          "name": "",
          "type": "bytes32"
        }
      ],
      "payable": false,
      "stateMutability": "view",
      "type": "function",
      "signature": "0x11f7b854"
    },
    {
      "constant": true,
      "inputs": [],
      "name": "getAllWordings",
      "outputs": [
        {
          "name": "",
          "type": "address[]"
        },
        {
          "name": "",
          "type": "address[]"
        },
        {
          "name": "",
          "type": "uint256[]"
        },
        {
          "name": "",
          "type": "bytes32[]"
        }
      ],
      "payable": false,
      "stateMutability": "view",
      "type": "function",
      "signature": "0xe0fcd9ff"
    },
    {
      "constant": true,
      "inputs": [
        {
          "name": "_address",
          "type": "address"
        }
      ],
      "name": "getPersonalWordings",
      "outputs": [
        {
          "name": "",
          "type": "address[]"
        },
        {
          "name": "",
          "type": "address[]"
        },
        {
          "name": "",
          "type": "uint256[]"
        },
        {
          "name": "",
          "type": "bytes32[]"
        }
      ],
      "payable": false,
      "stateMutability": "view",
      "type": "function",
      "signature": "0xcecb2a88"
    },
    {
      "constant": true,
      "inputs": [
        {
          "name": "_address",
          "type": "address"
        }
      ],
      "name": "getPersoInfoTransaction",
      "outputs": [
        {
          "name": "",
          "type": "uint256"
        },
        {
          "name": "",
          "type": "uint256"
        },
        {
          "name": "",
          "type": "uint256"
        },
        {
          "name": "",
          "type": "uint256"
        },
        {
          "name": "",
          "type": "uint256"
        }
      ],
      "payable": false,
      "stateMutability": "view",
      "type": "function",
      "signature": "0x04c6928c"
    },
    {
      "constant": true,
      "inputs": [],
      "name": "getAllInfoTransaction",
      "outputs": [
        {
          "name": "",
          "type": "uint256[]"
        },
        {
          "name": "",
          "type": "uint256[]"
        },
        {
          "name": "",
          "type": "uint256[]"
        },
        {
          "name": "",
          "type": "bytes32[]"
        }
      ],
      "payable": false,
      "stateMutability": "view",
      "type": "function",
      "signature": "0xabbf7a73"
    }
  ],
  "bytecode": "0x608060405234801561001057600080fd5b5073c4d446c6b924c431f89214319d5a3e6bb67e76276000806101000a81548173ffffffffffffffffffffffffffffffffffffffff021916908373ffffffffffffffffffffffffffffffffffffffff1602179055507f41535400000000000000000000000000000000000000000000000000000000006002819055507f41757265786961536f6369616c546f6b656e00000000000000000000000000006003819055506012600460006101000a81548160ff021916908360ff160217905550614e20600660006101000a81548163ffffffff021916908363ffffffff160217905550600460009054906101000a900460ff1660ff16600a0a600660009054906101000a900463ffffffff1663ffffffff1602600581905550600554600e60008060009054906101000a900473ffffffffffffffffffffffffffffffffffffffff1673ffffffffffffffffffffffffffffffffffffffff1673ffffffffffffffffffffffffffffffffffffffff168152602001908152602001600020819055506000809054906101000a900473ffffffffffffffffffffffffffffffffffffffff1673ffffffffffffffffffffffffffffffffffffffff16600073ffffffffffffffffffffffffffffffffffffffff167fddf252ad1be2c89b69c2b068fc378daa952ba7f163c4a11628f55a4df523b3ef6005546040518082815260200191505060405180910390a3600060076000808152602001908152602001600020600001819055506000809054906101000a900473ffffffffffffffffffffffffffffffffffffffff166007600080815260200190815260200160002060020160006101000a81548173ffffffffffffffffffffffffffffffffffffffff021916908373ffffffffffffffffffffffffffffffffffffffff16021790555060055460076000808152602001908152602001600020600301819055507f436f6e7472616374204372656174696f6e000000000000000000000000000000600760008081526020019081526020016000206004018190555060016009819055506000600860008060009054906101000a900473ffffffffffffffffffffffffffffffffffffffff1673ffffffffffffffffffffffffffffffffffffffff1673ffffffffffffffffffffffffffffffffffffffff1681526020019081526020016000206000808152602001908152602001600020600001819055506000809054906101000a900473ffffffffffffffffffffffffffffffffffffffff16600860008060009054906101000a900473ffffffffffffffffffffffffffffffffffffffff1673ffffffffffffffffffffffffffffffffffffffff1673ffffffffffffffffffffffffffffffffffffffff168152602001908152602001600020600080815260200190815260200160002060020160006101000a81548173ffffffffffffffffffffffffffffffffffffffff021916908373ffffffffffffffffffffffffffffffffffffffff160217905550600554600860008060009054906101000a900473ffffffffffffffffffffffffffffffffffffffff1673ffffffffffffffffffffffffffffffffffffffff1673ffffffffffffffffffffffffffffffffffffffff1681526020019081526020016000206000808152602001908152602001600020600301819055507f436f6e7472616374204372656174696f6e000000000000000000000000000000600860008060009054906101000a900473ffffffffffffffffffffffffffffffffffffffff1673ffffffffffffffffffffffffffffffffffffffff1673ffffffffffffffffffffffffffffffffffffffff1681526020019081526020016000206000808152602001908152602001600020600401819055506000809054906101000a900473ffffffffffffffffffffffffffffffffffffffff16600f60008060009054906101000a900473ffffffffffffffffffffffffffffffffffffffff1673ffffffffffffffffffffffffffffffffffffffff1673ffffffffffffffffffffffffffffffffffffffff16815260200190815260200160002060000160006101000a81548173ffffffffffffffffffffffffffffffffffffffff021916908373ffffffffffffffffffffffffffffffffffffffff1602179055507f41646d696e6973747261746f7200000000000000000000000000000000000000600f60008060009054906101000a900473ffffffffffffffffffffffffffffffffffffffff1673ffffffffffffffffffffffffffffffffffffffff1673ffffffffffffffffffffffffffffffffffffffff168152602001908152602001600020600101819055506004600f60008060009054906101000a900473ffffffffffffffffffffffffffffffffffffffff1673ffffffffffffffffffffffffffffffffffffffff1673ffffffffffffffffffffffffffffffffffffffff16815260200190815260200160002060020160006101000a81548160ff021916908360ff1602179055506001600f60008060009054906101000a900473ffffffffffffffffffffffffffffffffffffffff1673ffffffffffffffffffffffffffffffffffffffff1673ffffffffffffffffffffffffffffffffffffffff16815260200190815260200160002060020160016101000a81548160ff0219169083151502179055506001600f60008060009054906101000a900473ffffffffffffffffffffffffffffffffffffffff1673ffffffffffffffffffffffffffffffffffffffff1673ffffffffffffffffffffffffffffffffffffffff168152602001908152602001600020600301819055506001600f60008060009054906101000a900473ffffffffffffffffffffffffffffffffffffffff1673ffffffffffffffffffffffffffffffffffffffff1673ffffffffffffffffffffffffffffffffffffffff16815260200190815260200160002060050181905550600554600f60008060009054906101000a900473ffffffffffffffffffffffffffffffffffffffff1673ffffffffffffffffffffffffffffffffffffffff1673ffffffffffffffffffffffffffffffffffffffff16815260200190815260200160002060060181905550600a6000809054906101000a900473ffffffffffffffffffffffffffffffffffffffff1690806001815401808255809150509060018203906000526020600020016000909192909190916101000a81548173ffffffffffffffffffffffffffffffffffffffff021916908373ffffffffffffffffffffffffffffffffffffffff160217905550506001600b600082825401925050819055506000600660046101000a81548160ff02191690831515021790555061599080620009af6000396000f3fe608060405260043610610272576000357c0100000000000000000000000000000000000000000000000000000000900463ffffffff16806304c6928c1461027757806306fdde03146102f8578063095ea7b314610323578063097a80b81461039657806311f7b8541461040957806318160ddd1461046e5780631a76e209146104995780631ad06393146105025780631c6c72b01461056e5780631f1423b11461059957806330e3fcad146105fe578063313739a31461062d578063313ce5671461069857806333352d03146106c9578063378dc3dc1461072e57806338790228146107655780633eaaf86b146107ca578063401e3367146107f557806340c10f191461089257806352435bb8146108ed57806353e18bdc1461094057806357cfeeee146109a957806359abef9a14610a265780635fd4b08a14610a5557806360aa8c7314610aba57806361a48dcf14610ae95780636f48507514610b4e57806370a0823114610bb35780637112ba1114610c1857806377f3622514610c9857806379ba509714610d945780638da5cb5b14610dab57806395d89b4114610e025780639ca1221c14610e2d5780639dc29fac14610ea05780639eab525314610f13578063abbf7a7314610f7f578063ae1de61c146110c3578063b1affcfd146110ee578063b93f9b0a14611157578063cecb2a88146111d2578063d3c4937114611350578063d4ee1d901461137b578063d6eb5782146113d2578063d9543bb6146113fd578063d980151c146114b1578063dd62ed3e1461151a578063e0fcd9ff1461159f578063eed414b8146116e3578063f09d0874146118f2578063f2fde38b14611968578063fb108820146119b9575b600080fd5b34801561028357600080fd5b506102c66004803603602081101561029a57600080fd5b81019080803573ffffffffffffffffffffffffffffffffffffffff169060200190929190505050611a22565b604051808681526020018581526020018481526020018381526020018281526020019550505050505060405180910390f35b34801561030457600080fd5b5061030d611a87565b6040518082815260200191505060405180910390f35b34801561032f57600080fd5b5061037c6004803603604081101561034657600080fd5b81019080803573ffffffffffffffffffffffffffffffffffffffff16906020019092919080359060200190929190505050611a8d565b604051808215151515815260200191505060405180910390f35b3480156103a257600080fd5b506103ef600480360360408110156103b957600080fd5b81019080803573ffffffffffffffffffffffffffffffffffffffff16906020019092919080359060200190929190505050611aa4565b604051808215151515815260200191505060405180910390f35b34801561041557600080fd5b506104586004803603602081101561042c57600080fd5b81019080803573ffffffffffffffffffffffffffffffffffffffff169060200190929190505050611d04565b6040518082815260200191505060405180910390f35b34801561047a57600080fd5b50610483611d50565b6040518082815260200191505060405180910390f35b3480156104a557600080fd5b506104e8600480360360208110156104bc57600080fd5b81019080803573ffffffffffffffffffffffffffffffffffffffff169060200190929190505050611d5a565b604051808215151515815260200191505060405180910390f35b34801561050e57600080fd5b50610517611ff2565b6040518080602001828103825283818151815260200191508051906020019060200280838360005b8381101561055a57808201518184015260208101905061053f565b505050509050019250505060405180910390f35b34801561057a57600080fd5b50610583612080565b6040518082815260200191505060405180910390f35b3480156105a557600080fd5b506105e8600480360360208110156105bc57600080fd5b81019080803573ffffffffffffffffffffffffffffffffffffffff169060200190929190505050612086565b6040518082815260200191505060405180910390f35b34801561060a57600080fd5b506106136120d2565b604051808215151515815260200191505060405180910390f35b34801561063957600080fd5b5061067c6004803603602081101561065057600080fd5b81019080803573ffffffffffffffffffffffffffffffffffffffff1690602001909291905050506120e5565b604051808260ff1660ff16815260200191505060405180910390f35b3480156106a457600080fd5b506106ad61213e565b604051808260ff1660ff16815260200191505060405180910390f35b3480156106d557600080fd5b50610718600480360360208110156106ec57600080fd5b81019080803573ffffffffffffffffffffffffffffffffffffffff169060200190929190505050612151565b6040518082815260200191505060405180910390f35b34801561073a57600080fd5b5061074361219d565b604051808263ffffffff1663ffffffff16815260200191505060405180910390f35b34801561077157600080fd5b506107b46004803603602081101561078857600080fd5b81019080803573ffffffffffffffffffffffffffffffffffffffff1690602001909291905050506121b3565b6040518082815260200191505060405180910390f35b3480156107d657600080fd5b506107df6121ff565b6040518082815260200191505060405180910390f35b34801561080157600080fd5b506108786004803603608081101561081857600080fd5b81019080803573ffffffffffffffffffffffffffffffffffffffff169060200190929190803573ffffffffffffffffffffffffffffffffffffffff1690602001909291908035906020019092919080359060200190929190505050612205565b604051808215151515815260200191505060405180910390f35b34801561089e57600080fd5b506108eb600480360360408110156108b557600080fd5b81019080803573ffffffffffffffffffffffffffffffffffffffff1690602001909291908035906020019092919050505061227a565b005b3480156108f957600080fd5b506109266004803603602081101561091057600080fd5b81019080803590602001909291905050506127b6565b604051808215151515815260200191505060405180910390f35b34801561094c57600080fd5b5061098f6004803603602081101561096357600080fd5b81019080803573ffffffffffffffffffffffffffffffffffffffff169060200190929190505050612946565b604051808215151515815260200191505060405180910390f35b3480156109b557600080fd5b50610a0c600480360360608110156109cc57600080fd5b81019080803573ffffffffffffffffffffffffffffffffffffffff1690602001909291908035906020019092919080359060200190929190505050612bde565b604051808215151515815260200191505060405180910390f35b348015610a3257600080fd5b50610a3b612c59565b604051808215151515815260200191505060405180910390f35b348015610a6157600080fd5b50610aa460048036036020811015610a7857600080fd5b81019080803573ffffffffffffffffffffffffffffffffffffffff169060200190929190505050612d57565b6040518082815260200191505060405180910390f35b348015610ac657600080fd5b50610acf612da3565b604051808215151515815260200191505060405180910390f35b348015610af557600080fd5b50610b3860048036036020811015610b0c57600080fd5b81019080803573ffffffffffffffffffffffffffffffffffffffff169060200190929190505050612ea1565b6040518082815260200191505060405180910390f35b348015610b5a57600080fd5b50610b9d60048036036020811015610b7157600080fd5b81019080803573ffffffffffffffffffffffffffffffffffffffff169060200190929190505050612eed565b6040518082815260200191505060405180910390f35b348015610bbf57600080fd5b50610c0260048036036020811015610bd657600080fd5b81019080803573ffffffffffffffffffffffffffffffffffffffff169060200190929190505050612f39565b6040518082815260200191505060405180910390f35b348015610c2457600080fd5b50610c7e60048036036060811015610c3b57600080fd5b81019080803573ffffffffffffffffffffffffffffffffffffffff16906020019092919080359060200190929190803560ff169060200190929190505050612f82565b604051808215151515815260200191505060405180910390f35b348015610ca457600080fd5b50610cad6132d4565b60405180806020018060200180602001848103845287818151815260200191508051906020019060200280838360005b83811015610cf8578082015181840152602081019050610cdd565b50505050905001848103835286818151815260200191508051906020019060200280838360005b83811015610d3a578082015181840152602081019050610d1f565b50505050905001848103825285818151815260200191508051906020019060200280838360005b83811015610d7c578082015181840152602081019050610d61565b50505050905001965050505050505060405180910390f35b348015610da057600080fd5b50610da96134b7565b005b348015610db757600080fd5b50610dc0613656565b604051808273ffffffffffffffffffffffffffffffffffffffff1673ffffffffffffffffffffffffffffffffffffffff16815260200191505060405180910390f35b348015610e0e57600080fd5b50610e1761367b565b6040518082815260200191505060405180910390f35b348015610e3957600080fd5b50610e8660048036036040811015610e5057600080fd5b81019080803573ffffffffffffffffffffffffffffffffffffffff16906020019092919080359060200190929190505050613681565b604051808215151515815260200191505060405180910390f35b348015610eac57600080fd5b50610ef960048036036040811015610ec357600080fd5b81019080803573ffffffffffffffffffffffffffffffffffffffff16906020019092919080359060200190929190505050613761565b604051808215151515815260200191505060405180910390f35b348015610f1f57600080fd5b50610f28613c36565b6040518080602001828103825283818151815260200191508051906020019060200280838360005b83811015610f6b578082015181840152602081019050610f50565b505050509050019250505060405180910390f35b348015610f8b57600080fd5b50610f94613cc4565b6040518080602001806020018060200180602001858103855289818151815260200191508051906020019060200280838360005b83811015610fe3578082015181840152602081019050610fc8565b50505050905001858103845288818151815260200191508051906020019060200280838360005b8381101561102557808201518184015260208101905061100a565b50505050905001858103835287818151815260200191508051906020019060200280838360005b8381101561106757808201518184015260208101905061104c565b50505050905001858103825286818151815260200191508051906020019060200280838360005b838110156110a957808201518184015260208101905061108e565b505050509050019850505050505050505060405180910390f35b3480156110cf57600080fd5b506110d8613f4e565b6040518082815260200191505060405180910390f35b3480156110fa57600080fd5b5061113d6004803603602081101561111157600080fd5b81019080803573ffffffffffffffffffffffffffffffffffffffff169060200190929190505050613f58565b604051808215151515815260200191505060405180910390f35b34801561116357600080fd5b506111906004803603602081101561117a57600080fd5b8101908080359060200190929190505050613fb1565b604051808273ffffffffffffffffffffffffffffffffffffffff1673ffffffffffffffffffffffffffffffffffffffff16815260200191505060405180910390f35b3480156111de57600080fd5b50611221600480360360208110156111f557600080fd5b81019080803573ffffffffffffffffffffffffffffffffffffffff169060200190929190505050613ff4565b6040518080602001806020018060200180602001858103855289818151815260200191508051906020019060200280838360005b83811015611270578082015181840152602081019050611255565b50505050905001858103845288818151815260200191508051906020019060200280838360005b838110156112b2578082015181840152602081019050611297565b50505050905001858103835287818151815260200191508051906020019060200280838360005b838110156112f45780820151818401526020810190506112d9565b50505050905001858103825286818151815260200191508051906020019060200280838360005b8381101561133657808201518184015260208101905061131b565b505050509050019850505050505050505060405180910390f35b34801561135c57600080fd5b506113656143a1565b6040518082815260200191505060405180910390f35b34801561138757600080fd5b506113906143a7565b604051808273ffffffffffffffffffffffffffffffffffffffff1673ffffffffffffffffffffffffffffffffffffffff16815260200191505060405180910390f35b3480156113de57600080fd5b506113e76143cd565b6040518082815260200191505060405180910390f35b34801561140957600080fd5b506114126143d3565b604051808060200180602001838103835285818151815260200191508051906020019060200280838360005b8381101561145957808201518184015260208101905061143e565b50505050905001838103825284818151815260200191508051906020019060200280838360005b8381101561149b578082015181840152602081019050611480565b5050505090500194505050505060405180910390f35b3480156114bd57600080fd5b50611500600480360360208110156114d457600080fd5b81019080803573ffffffffffffffffffffffffffffffffffffffff16906020019092919050505061451c565b604051808215151515815260200191505060405180910390f35b34801561152657600080fd5b506115896004803603604081101561153d57600080fd5b81019080803573ffffffffffffffffffffffffffffffffffffffff169060200190929190803573ffffffffffffffffffffffffffffffffffffffff16906020019092919050505061464d565b6040518082815260200191505060405180910390f35b3480156115ab57600080fd5b506115b46146d4565b6040518080602001806020018060200180602001858103855289818151815260200191508051906020019060200280838360005b838110156116035780820151818401526020810190506115e8565b50505050905001858103845288818151815260200191508051906020019060200280838360005b8381101561164557808201518184015260208101905061162a565b50505050905001858103835287818151815260200191508051906020019060200280838360005b8381101561168757808201518184015260208101905061166c565b50505050905001858103825286818151815260200191508051906020019060200280838360005b838110156116c95780820151818401526020810190506116ae565b505050509050019850505050505050505060405180910390f35b3480156116ef57600080fd5b506118d86004803603608081101561170657600080fd5b810190808035906020019064010000000081111561172357600080fd5b82018360208201111561173557600080fd5b8035906020019184602083028401116401000000008311171561175757600080fd5b919080806020026020016040519081016040528093929190818152602001838360200280828437600081840152601f19601f820116905080830192505050505050509192919290803590602001906401000000008111156117b757600080fd5b8201836020820111156117c957600080fd5b803590602001918460208302840111640100000000831117156117eb57600080fd5b919080806020026020016040519081016040528093929190818152602001838360200280828437600081840152601f19601f8201169050808301925050505050505091929192908035906020019064010000000081111561184b57600080fd5b82018360208201111561185d57600080fd5b8035906020019184602083028401116401000000008311171561187f57600080fd5b919080806020026020016040519081016040528093929190818152602001838360200280828437600081840152601f19601f8201169050808301925050505050505091929192908035906020019092919050505061494e565b604051808215151515815260200191505060405180910390f35b3480156118fe57600080fd5b5061194e6004803603604081101561191557600080fd5b81019080803573ffffffffffffffffffffffffffffffffffffffff169060200190929190803560ff169060200190929190505050614a81565b604051808215151515815260200191505060405180910390f35b34801561197457600080fd5b506119b76004803603602081101561198b57600080fd5b81019080803573ffffffffffffffffffffffffffffffffffffffff169060200190929190505050614ba0565b005b3480156119c557600080fd5b50611a08600480360360208110156119dc57600080fd5b81019080803573ffffffffffffffffffffffffffffffffffffffff169060200190929190505050614c3f565b604051808215151515815260200191505060405180910390f35b600080600080600080611a3487612ea1565b90506000611a4188612eed565b90506000611a4e89612151565b90506000611a5b8a6121b3565b90506000611a688b612086565b9050848484848499509950995099509950505050505091939590929450565b60035481565b6000611a9a338484614c98565b6001905092915050565b60008060009054906101000a900473ffffffffffffffffffffffffffffffffffffffff1673ffffffffffffffffffffffffffffffffffffffff163373ffffffffffffffffffffffffffffffffffffffff161480611b5357506003600f60003373ffffffffffffffffffffffffffffffffffffffff1673ffffffffffffffffffffffffffffffffffffffff16815260200190815260200160002060020160009054906101000a900460ff1660ff16145b1515611b5e57600080fd5b81601060008573ffffffffffffffffffffffffffffffffffffffff1673ffffffffffffffffffffffffffffffffffffffff1681526020019081526020016000206001018190555082601060008573ffffffffffffffffffffffffffffffffffffffff1673ffffffffffffffffffffffffffffffffffffffff16815260200190815260200160002060000160006101000a81548173ffffffffffffffffffffffffffffffffffffffff021916908373ffffffffffffffffffffffffffffffffffffffff1602179055506001601060008573ffffffffffffffffffffffffffffffffffffffff1673ffffffffffffffffffffffffffffffffffffffff16815260200190815260200160002060020160006101000a81548160ff021916908315150217905550600c8390806001815401808255809150509060018203906000526020600020016000909192909190916101000a81548173ffffffffffffffffffffffffffffffffffffffff021916908373ffffffffffffffffffffffffffffffffffffffff16021790555050611cf4600d546001614ecd565b600d819055506001905092915050565b6000601060008373ffffffffffffffffffffffffffffffffffffffff1673ffffffffffffffffffffffffffffffffffffffff168152602001908152602001600020600101549050919050565b6000600554905090565b60008060009054906101000a900473ffffffffffffffffffffffffffffffffffffffff1673ffffffffffffffffffffffffffffffffffffffff163373ffffffffffffffffffffffffffffffffffffffff161480611e0957506003600f60003373ffffffffffffffffffffffffffffffffffffffff1673ffffffffffffffffffffffffffffffffffffffff16815260200190815260200160002060020160009054906101000a900460ff1660ff16145b1515611e1457600080fd5b6000601060008473ffffffffffffffffffffffffffffffffffffffff1673ffffffffffffffffffffffffffffffffffffffff16815260200190815260200160002060020160006101000a81548160ff02191690831515021790555060008090505b600d54811015611fe857600c81815481101515611e8e57fe5b9060005260206000200160009054906101000a900473ffffffffffffffffffffffffffffffffffffffff1673ffffffffffffffffffffffffffffffffffffffff168373ffffffffffffffffffffffffffffffffffffffff161415611fdb57600c6001600d5403815481101515611f0057fe5b9060005260206000200160009054906101000a900473ffffffffffffffffffffffffffffffffffffffff16600c82815481101515611f3a57fe5b9060005260206000200160006101000a81548173ffffffffffffffffffffffffffffffffffffffff021916908373ffffffffffffffffffffffffffffffffffffffff160217905550600c6001600d5403815481101515611f9657fe5b9060005260206000200160006101000a81549073ffffffffffffffffffffffffffffffffffffffff0219169055611fd0600d546001614ee9565b600d81905550611fe8565b8080600101915050611e75565b5060019050919050565b6060600c80548060200260200160405190810160405280929190818152602001828054801561207657602002820191906000526020600020905b8160009054906101000a900473ffffffffffffffffffffffffffffffffffffffff1673ffffffffffffffffffffffffffffffffffffffff168152602001906001019080831161202c575b5050505050905090565b600d5481565b6000600f60008373ffffffffffffffffffffffffffffffffffffffff1673ffffffffffffffffffffffffffffffffffffffff168152602001908152602001600020600501549050919050565b600660049054906101000a900460ff1681565b6000600f60008373ffffffffffffffffffffffffffffffffffffffff1673ffffffffffffffffffffffffffffffffffffffff16815260200190815260200160002060020160009054906101000a900460ff169050919050565b600460009054906101000a900460ff1681565b6000600f60008373ffffffffffffffffffffffffffffffffffffffff1673ffffffffffffffffffffffffffffffffffffffff168152602001908152602001600020600601549050919050565b600660009054906101000a900463ffffffff1681565b6000600f60008373ffffffffffffffffffffffffffffffffffffffff1673ffffffffffffffffffffffffffffffffffffffff168152602001908152602001600020600401549050919050565b60055481565b60008060009054906101000a900473ffffffffffffffffffffffffffffffffffffffff1673ffffffffffffffffffffffffffffffffffffffff163373ffffffffffffffffffffffffffffffffffffffff1614151561226257600080fd5b61226e85858585614f05565b60019050949350505050565b6000809054906101000a900473ffffffffffffffffffffffffffffffffffffffff1673ffffffffffffffffffffffffffffffffffffffff163373ffffffffffffffffffffffffffffffffffffffff161415156122d557600080fd5b600073ffffffffffffffffffffffffffffffffffffffff168273ffffffffffffffffffffffffffffffffffffffff161415151561237a576040517f08c379a000000000000000000000000000000000000000000000000000000000815260040180806020018281038252600b8152602001807f616464726573732030783000000000000000000000000000000000000000000081525060200191505060405180910390fd5b61238660055482614ecd565b6005819055506123d5600e60008473ffffffffffffffffffffffffffffffffffffffff1673ffffffffffffffffffffffffffffffffffffffff1681526020019081526020016000205482614ecd565b600e60008473ffffffffffffffffffffffffffffffffffffffff1673ffffffffffffffffffffffffffffffffffffffff16815260200190815260200160002081905550612420615905565b60095481600001818152505082816040019073ffffffffffffffffffffffffffffffffffffffff16908173ffffffffffffffffffffffffffffffffffffffff1681525050818160600181815250507f546f6b656e204372656174696f6e2046726f6d2041646d696e00000000000000816080018181525050806007600060095481526020019081526020016000206000820151816000015560208201518160010160006101000a81548173ffffffffffffffffffffffffffffffffffffffff021916908373ffffffffffffffffffffffffffffffffffffffff16021790555060408201518160020160006101000a81548173ffffffffffffffffffffffffffffffffffffffff021916908373ffffffffffffffffffffffffffffffffffffffff160217905550606082015181600301556080820151816004015590505061256a6009546001614ecd565b6009819055506000600f60008573ffffffffffffffffffffffffffffffffffffffff1673ffffffffffffffffffffffffffffffffffffffff16815260200190815260200160002060030154905081600860008673ffffffffffffffffffffffffffffffffffffffff1673ffffffffffffffffffffffffffffffffffffffff16815260200190815260200160002060008381526020019081526020016000206000820151816000015560208201518160010160006101000a81548173ffffffffffffffffffffffffffffffffffffffff021916908373ffffffffffffffffffffffffffffffffffffffff16021790555060408201518160020160006101000a81548173ffffffffffffffffffffffffffffffffffffffff021916908373ffffffffffffffffffffffffffffffffffffffff1602179055506060820151816003015560808201518160040155905050612704600f60008673ffffffffffffffffffffffffffffffffffffffff1673ffffffffffffffffffffffffffffffffffffffff168152602001908152602001600020600301546001614ecd565b600f60008673ffffffffffffffffffffffffffffffffffffffff1673ffffffffffffffffffffffffffffffffffffffff168152602001908152602001600020600301819055508373ffffffffffffffffffffffffffffffffffffffff16600073ffffffffffffffffffffffffffffffffffffffff167fddf252ad1be2c89b69c2b068fc378daa952ba7f163c4a11628f55a4df523b3ef856040518082815260200191505060405180910390a350505050565b60008060009054906101000a900473ffffffffffffffffffffffffffffffffffffffff1673ffffffffffffffffffffffffffffffffffffffff163373ffffffffffffffffffffffffffffffffffffffff1614151561281357600080fd5b61281f82600b546158d4565b600e60008060009054906101000a900473ffffffffffffffffffffffffffffffffffffffff1673ffffffffffffffffffffffffffffffffffffffff1673ffffffffffffffffffffffffffffffffffffffff168152602001908152602001600020541015151561288d57600080fd5b60008090505b600b5481101561293c576000600a828154811015156128ae57fe5b9060005260206000200160009054906101000a900473ffffffffffffffffffffffffffffffffffffffff16905060007f696e697469616c20646f6e6174696f6e00000000000000000000000000000000905061292d6000809054906101000a900473ffffffffffffffffffffffffffffffffffffffff16838784614f05565b50508080600101915050612893565b5060019050919050565b60008060009054906101000a900473ffffffffffffffffffffffffffffffffffffffff1673ffffffffffffffffffffffffffffffffffffffff163373ffffffffffffffffffffffffffffffffffffffff1614806129f557506001600f60003373ffffffffffffffffffffffffffffffffffffffff1673ffffffffffffffffffffffffffffffffffffffff16815260200190815260200160002060020160009054906101000a900460ff1660ff16115b1515612a0057600080fd5b6000600f60008473ffffffffffffffffffffffffffffffffffffffff1673ffffffffffffffffffffffffffffffffffffffff16815260200190815260200160002060020160016101000a81548160ff02191690831515021790555060008090505b600b54811015612bd457600a81815481101515612a7a57fe5b9060005260206000200160009054906101000a900473ffffffffffffffffffffffffffffffffffffffff1673ffffffffffffffffffffffffffffffffffffffff168373ffffffffffffffffffffffffffffffffffffffff161415612bc757600a6001600b5403815481101515612aec57fe5b9060005260206000200160009054906101000a900473ffffffffffffffffffffffffffffffffffffffff16600a82815481101515612b2657fe5b9060005260206000200160006101000a81548173ffffffffffffffffffffffffffffffffffffffff021916908373ffffffffffffffffffffffffffffffffffffffff160217905550600a6001600b5403815481101515612b8257fe5b9060005260206000200160006101000a81549073ffffffffffffffffffffffffffffffffffffffff0219169055612bbc600b546001614ee9565b600b81905550612bd4565b8080600101915050612a61565b5060019050919050565b600060011515600f60003373ffffffffffffffffffffffffffffffffffffffff1673ffffffffffffffffffffffffffffffffffffffff16815260200190815260200160002060020160019054906101000a900460ff161515141515612c4257600080fd5b612c4e33858585614f05565b600190509392505050565b60008060009054906101000a900473ffffffffffffffffffffffffffffffffffffffff1673ffffffffffffffffffffffffffffffffffffffff163373ffffffffffffffffffffffffffffffffffffffff161480612d0857506003600f60003373ffffffffffffffffffffffffffffffffffffffff1673ffffffffffffffffffffffffffffffffffffffff16815260200190815260200160002060020160009054906101000a900460ff1660ff16145b1515612d1357600080fd5b60011515600660049054906101000a900460ff161515141515612d3557600080fd5b6000600660046101000a81548160ff0219169083151502179055506001905090565b6000600f60008373ffffffffffffffffffffffffffffffffffffffff1673ffffffffffffffffffffffffffffffffffffffff168152602001908152602001600020600101549050919050565b60008060009054906101000a900473ffffffffffffffffffffffffffffffffffffffff1673ffffffffffffffffffffffffffffffffffffffff163373ffffffffffffffffffffffffffffffffffffffff161480612e5257506003600f60003373ffffffffffffffffffffffffffffffffffffffff1673ffffffffffffffffffffffffffffffffffffffff16815260200190815260200160002060020160009054906101000a900460ff1660ff16145b1515612e5d57600080fd5b60001515600660049054906101000a900460ff161515141515612e7f57600080fd5b6001600660046101000a81548160ff0219169083151502179055506001905090565b6000600f60008373ffffffffffffffffffffffffffffffffffffffff1673ffffffffffffffffffffffffffffffffffffffff168152602001908152602001600020600301549050919050565b6000600f60008373ffffffffffffffffffffffffffffffffffffffff1673ffffffffffffffffffffffffffffffffffffffff168152602001908152602001600020600701549050919050565b6000600e60008373ffffffffffffffffffffffffffffffffffffffff1673ffffffffffffffffffffffffffffffffffffffff168152602001908152602001600020549050919050565b60008060009054906101000a900473ffffffffffffffffffffffffffffffffffffffff1673ffffffffffffffffffffffffffffffffffffffff163373ffffffffffffffffffffffffffffffffffffffff16148061303157506001600f60003373ffffffffffffffffffffffffffffffffffffffff1673ffffffffffffffffffffffffffffffffffffffff16815260200190815260200160002060020160009054906101000a900460ff1660ff16115b151561303c57600080fd5b83600f60008673ffffffffffffffffffffffffffffffffffffffff1673ffffffffffffffffffffffffffffffffffffffff16815260200190815260200160002060000160006101000a81548173ffffffffffffffffffffffffffffffffffffffff021916908373ffffffffffffffffffffffffffffffffffffffff16021790555082600f60008673ffffffffffffffffffffffffffffffffffffffff1673ffffffffffffffffffffffffffffffffffffffff1681526020019081526020016000206001018190555081600f60008673ffffffffffffffffffffffffffffffffffffffff1673ffffffffffffffffffffffffffffffffffffffff16815260200190815260200160002060020160006101000a81548160ff021916908360ff1602179055506001600f60008673ffffffffffffffffffffffffffffffffffffffff1673ffffffffffffffffffffffffffffffffffffffff16815260200190815260200160002060020160016101000a81548160ff02191690831515021790555060008090505b600b5481101561324e57600a818154811015156131d957fe5b9060005260206000200160009054906101000a900473ffffffffffffffffffffffffffffffffffffffff1673ffffffffffffffffffffffffffffffffffffffff168573ffffffffffffffffffffffffffffffffffffffff1614156132415760019150506132cd565b80806001019150506131c0565b50600a8490806001815401808255809150509060018203906000526020600020016000909192909190916101000a81548173ffffffffffffffffffffffffffffffffffffffff021916908373ffffffffffffffffffffffffffffffffffffffff160217905550506132c2600b546001614ecd565b600b81905550600190505b9392505050565b606080606080600b5460405190808252806020026020018201604052801561330b5781602001602082028038833980820191505090505b5090506060600b546040519080825280602002602001820160405280156133415781602001602082028038833980820191505090505b50905060008090505b600b5481101561341d57613396600a8281548110151561336657fe5b9060005260206000200160009054906101000a900473ffffffffffffffffffffffffffffffffffffffff16612d57565b83828151811015156133a457fe5b90602001906020020181815250506133f4600a828154811015156133c457fe5b9060005260206000200160009054906101000a900473ffffffffffffffffffffffffffffffffffffffff16612f39565b828281518110151561340257fe5b9060200190602002018181525050808060010191505061334a565b50600a8282828054806020026020016040519081016040528092919081815260200182805480156134a357602002820191906000526020600020905b8160009054906101000a900473ffffffffffffffffffffffffffffffffffffffff1673ffffffffffffffffffffffffffffffffffffffff1681526020019060010190808311613459575b505050505092509450945094505050909192565b600160009054906101000a900473ffffffffffffffffffffffffffffffffffffffff1673ffffffffffffffffffffffffffffffffffffffff163373ffffffffffffffffffffffffffffffffffffffff1614151561351357600080fd5b600160009054906101000a900473ffffffffffffffffffffffffffffffffffffffff1673ffffffffffffffffffffffffffffffffffffffff166000809054906101000a900473ffffffffffffffffffffffffffffffffffffffff1673ffffffffffffffffffffffffffffffffffffffff167f8be0079c531659141344cd1fd0a4f28419497f9722a3daafe3b4186f6b6457e060405160405180910390a3600160009054906101000a900473ffffffffffffffffffffffffffffffffffffffff166000806101000a81548173ffffffffffffffffffffffffffffffffffffffff021916908373ffffffffffffffffffffffffffffffffffffffff1602179055506000600160006101000a81548173ffffffffffffffffffffffffffffffffffffffff021916908373ffffffffffffffffffffffffffffffffffffffff160217905550565b6000809054906101000a900473ffffffffffffffffffffffffffffffffffffffff1681565b60025481565b60008060009054906101000a900473ffffffffffffffffffffffffffffffffffffffff1673ffffffffffffffffffffffffffffffffffffffff163373ffffffffffffffffffffffffffffffffffffffff16148061370957503373ffffffffffffffffffffffffffffffffffffffff168373ffffffffffffffffffffffffffffffffffffffff16145b151561371457600080fd5b81600f60008573ffffffffffffffffffffffffffffffffffffffff1673ffffffffffffffffffffffffffffffffffffffff1681526020019081526020016000206001018190555092915050565b60008060009054906101000a900473ffffffffffffffffffffffffffffffffffffffff1673ffffffffffffffffffffffffffffffffffffffff163373ffffffffffffffffffffffffffffffffffffffff161415156137be57600080fd5b81600e60008573ffffffffffffffffffffffffffffffffffffffff1673ffffffffffffffffffffffffffffffffffffffff168152602001908152602001600020541015151561380c57600080fd5b613855600e60008573ffffffffffffffffffffffffffffffffffffffff1673ffffffffffffffffffffffffffffffffffffffff1681526020019081526020016000205483614ee9565b600e60008573ffffffffffffffffffffffffffffffffffffffff1673ffffffffffffffffffffffffffffffffffffffff168152602001908152602001600020819055506138a460055483614ee9565b6005819055506138b2615905565b60095481600001818152505083816040019073ffffffffffffffffffffffffffffffffffffffff16908173ffffffffffffffffffffffffffffffffffffffff1681525050828160600181815250507f546f6b656e205375707072657373696f6e2046726f6d2041646d696e00000000816080018181525050806007600060095481526020019081526020016000206000820151816000015560208201518160010160006101000a81548173ffffffffffffffffffffffffffffffffffffffff021916908373ffffffffffffffffffffffffffffffffffffffff16021790555060408201518160020160006101000a81548173ffffffffffffffffffffffffffffffffffffffff021916908373ffffffffffffffffffffffffffffffffffffffff16021790555060608201518160030155608082015181600401559050506139fc6009546001614ecd565b6009819055506000600f60008673ffffffffffffffffffffffffffffffffffffffff1673ffffffffffffffffffffffffffffffffffffffff16815260200190815260200160002060030154905081600860008773ffffffffffffffffffffffffffffffffffffffff1673ffffffffffffffffffffffffffffffffffffffff16815260200190815260200160002060008381526020019081526020016000206000820151816000015560208201518160010160006101000a81548173ffffffffffffffffffffffffffffffffffffffff021916908373ffffffffffffffffffffffffffffffffffffffff16021790555060408201518160020160006101000a81548173ffffffffffffffffffffffffffffffffffffffff021916908373ffffffffffffffffffffffffffffffffffffffff1602179055506060820151816003015560808201518160040155905050613b96600f60008773ffffffffffffffffffffffffffffffffffffffff1673ffffffffffffffffffffffffffffffffffffffff168152602001908152602001600020600301546001614ecd565b600f60008773ffffffffffffffffffffffffffffffffffffffff1673ffffffffffffffffffffffffffffffffffffffff168152602001908152602001600020600301819055503373ffffffffffffffffffffffffffffffffffffffff167fcc16f5dbb4873280815c1ee09dbd06736cffcc184412cf7a71a0fdb75d397ca5856040518082815260200191505060405180910390a260019250505092915050565b6060600a805480602002602001604051908101604052809291908181526020018280548015613cba57602002820191906000526020600020905b8160009054906101000a900473ffffffffffffffffffffffffffffffffffffffff1673ffffffffffffffffffffffffffffffffffffffff1681526020019060010190808311613c70575b5050505050905090565b6060806060806060600b54604051908082528060200260200182016040528015613cfd5781602001602082028038833980820191505090505b5090506060600b54604051908082528060200260200182016040528015613d335781602001602082028038833980820191505090505b5090506060600b54604051908082528060200260200182016040528015613d695781602001602082028038833980820191505090505b5090506060600b54604051908082528060200260200182016040528015613d9f5781602001602082028038833980820191505090505b50905060008090505b600b54811015613f3757613df4600a82815481101515613dc457fe5b9060005260206000200160009054906101000a900473ffffffffffffffffffffffffffffffffffffffff16612ea1565b8582815181101515613e0257fe5b9060200190602002018181525050613e52600a82815481101515613e2257fe5b9060005260206000200160009054906101000a900473ffffffffffffffffffffffffffffffffffffffff16612eed565b8482815181101515613e6057fe5b9060200190602002018181525050613eb0600a82815481101515613e8057fe5b9060005260206000200160009054906101000a900473ffffffffffffffffffffffffffffffffffffffff16612151565b8382815181101515613ebe57fe5b9060200190602002018181525050613f0e600a82815481101515613ede57fe5b9060005260206000200160009054906101000a900473ffffffffffffffffffffffffffffffffffffffff16612d57565b8282815181101515613f1c57fe5b90602001906020020181815250508080600101915050613da8565b508383838397509750975097505050505090919293565b6000600d54905090565b6000601060008373ffffffffffffffffffffffffffffffffffffffff1673ffffffffffffffffffffffffffffffffffffffff16815260200190815260200160002060020160009054906101000a900460ff169050919050565b6000600a82815481101515613fc257fe5b9060005260206000200160009054906101000a900473ffffffffffffffffffffffffffffffffffffffff169050919050565b6060806060806000600f60008773ffffffffffffffffffffffffffffffffffffffff1673ffffffffffffffffffffffffffffffffffffffff1681526020019081526020016000206003015490506060816040519080825280602002602001820160405280156140725781602001602082028038833980820191505090505b5090506060826040519080825280602002602001820160405280156140a65781602001602082028038833980820191505090505b5090506060836040519080825280602002602001820160405280156140da5781602001602082028038833980820191505090505b50905060608460405190808252806020026020018201604052801561410e5781602001602082028038833980820191505090505b50905060008090505b8581101561438857600860008c73ffffffffffffffffffffffffffffffffffffffff1673ffffffffffffffffffffffffffffffffffffffff168152602001908152602001600020600082815260200190815260200160002060010160009054906101000a900473ffffffffffffffffffffffffffffffffffffffff1685828151811015156141a157fe5b9060200190602002019073ffffffffffffffffffffffffffffffffffffffff16908173ffffffffffffffffffffffffffffffffffffffff1681525050600860008c73ffffffffffffffffffffffffffffffffffffffff1673ffffffffffffffffffffffffffffffffffffffff168152602001908152602001600020600082815260200190815260200160002060020160009054906101000a900473ffffffffffffffffffffffffffffffffffffffff16848281518110151561425f57fe5b9060200190602002019073ffffffffffffffffffffffffffffffffffffffff16908173ffffffffffffffffffffffffffffffffffffffff1681525050600860008c73ffffffffffffffffffffffffffffffffffffffff1673ffffffffffffffffffffffffffffffffffffffff16815260200190815260200160002060008281526020019081526020016000206003015483828151811015156142fd57fe5b9060200190602002018181525050600860008c73ffffffffffffffffffffffffffffffffffffffff1673ffffffffffffffffffffffffffffffffffffffff168152602001908152602001600020600082815260200190815260200160002060040154828281518110151561436d57fe5b90602001906020020181815250508080600101915050614117565b5083838383985098509850985050505050509193509193565b60095481565b600160009054906101000a900473ffffffffffffffffffffffffffffffffffffffff1681565b600b5481565b6060806060600b546040519080825280602002602001820160405280156144095781602001602082028038833980820191505090505b50905060008090505b600b548110156144875761445e600a8281548110151561442e57fe5b9060005260206000200160009054906101000a900473ffffffffffffffffffffffffffffffffffffffff16612d57565b828281518110151561446c57fe5b90602001906020020181815250508080600101915050614412565b50600a818180548060200260200160405190810160405280929190818152602001828054801561450c57602002820191906000526020600020905b8160009054906101000a900473ffffffffffffffffffffffffffffffffffffffff1673ffffffffffffffffffffffffffffffffffffffff16815260200190600101908083116144c2575b5050505050915092509250509091565b600060011515600f60003373ffffffffffffffffffffffffffffffffffffffff1673ffffffffffffffffffffffffffffffffffffffff16815260200190815260200160002060020160019054906101000a900460ff16151514151561458057600080fd5b60011515600660049054906101000a900460ff1615151415156145a257600080fd5b60011515601060008473ffffffffffffffffffffffffffffffffffffffff1673ffffffffffffffffffffffffffffffffffffffff16815260200190815260200160002060020160009054906101000a900460ff16151514151561460457600080fd5b600061460f33612f39565b905060007f53656e64696e6720746f204173736f63696174696f6e00000000000000000000905061464233858484614f05565b600192505050919050565b6000601160008473ffffffffffffffffffffffffffffffffffffffff1673ffffffffffffffffffffffffffffffffffffffff16815260200190815260200160002060008373ffffffffffffffffffffffffffffffffffffffff1673ffffffffffffffffffffffffffffffffffffffff16815260200190815260200160002054905092915050565b606080606080606060095460405190808252806020026020018201604052801561470d5781602001602082028038833980820191505090505b50905060606009546040519080825280602002602001820160405280156147435781602001602082028038833980820191505090505b50905060606009546040519080825280602002602001820160405280156147795781602001602082028038833980820191505090505b50905060606009546040519080825280602002602001820160405280156147af5781602001602082028038833980820191505090505b50905060008090505b600954811015614937576007600082815260200190815260200160002060010160009054906101000a900473ffffffffffffffffffffffffffffffffffffffff16858281518110151561480757fe5b9060200190602002019073ffffffffffffffffffffffffffffffffffffffff16908173ffffffffffffffffffffffffffffffffffffffff16815250506007600082815260200190815260200160002060020160009054906101000a900473ffffffffffffffffffffffffffffffffffffffff16848281518110151561488857fe5b9060200190602002019073ffffffffffffffffffffffffffffffffffffffff16908173ffffffffffffffffffffffffffffffffffffffff1681525050600760008281526020019081526020016000206003015483828151811015156148e957fe5b90602001906020020181815250506007600082815260200190815260200160002060040154828281518110151561491c57fe5b906020019060200201818152505080806001019150506147b8565b508383838397509750975097505050505090919293565b60008060009054906101000a900473ffffffffffffffffffffffffffffffffffffffff1673ffffffffffffffffffffffffffffffffffffffff163373ffffffffffffffffffffffffffffffffffffffff1614806149fd57506001600f60003373ffffffffffffffffffffffffffffffffffffffff1673ffffffffffffffffffffffffffffffffffffffff16815260200190815260200160002060020160009054906101000a900460ff1660ff16115b1515614a0857600080fd5b60008090505b82811015614a7457614a668682815181101515614a2757fe5b906020019060200201518683815181101515614a3f57fe5b906020019060200201518684815181101515614a5757fe5b90602001906020020151612f82565b508080600101915050614a0e565b5060019050949350505050565b60008060009054906101000a900473ffffffffffffffffffffffffffffffffffffffff1673ffffffffffffffffffffffffffffffffffffffff163373ffffffffffffffffffffffffffffffffffffffff161480614b3057506001600f60003373ffffffffffffffffffffffffffffffffffffffff1673ffffffffffffffffffffffffffffffffffffffff16815260200190815260200160002060020160009054906101000a900460ff1660ff16115b1515614b3b57600080fd5b81600f60008573ffffffffffffffffffffffffffffffffffffffff1673ffffffffffffffffffffffffffffffffffffffff16815260200190815260200160002060020160006101000a81548160ff021916908360ff1602179055506001905092915050565b6000809054906101000a900473ffffffffffffffffffffffffffffffffffffffff1673ffffffffffffffffffffffffffffffffffffffff163373ffffffffffffffffffffffffffffffffffffffff16141515614bfb57600080fd5b80600160006101000a81548173ffffffffffffffffffffffffffffffffffffffff021916908373ffffffffffffffffffffffffffffffffffffffff16021790555050565b6000600f60008373ffffffffffffffffffffffffffffffffffffffff1673ffffffffffffffffffffffffffffffffffffffff16815260200190815260200160002060020160019054906101000a900460ff169050919050565b600073ffffffffffffffffffffffffffffffffffffffff168273ffffffffffffffffffffffffffffffffffffffff1614151515614d3d576040517f08c379a000000000000000000000000000000000000000000000000000000000815260040180806020018281038252600b8152602001807f616464726573732030783000000000000000000000000000000000000000000081525060200191505060405180910390fd5b600073ffffffffffffffffffffffffffffffffffffffff168373ffffffffffffffffffffffffffffffffffffffff1614151515614de2576040517f08c379a000000000000000000000000000000000000000000000000000000000815260040180806020018281038252600b8152602001807f616464726573732030783000000000000000000000000000000000000000000081525060200191505060405180910390fd5b80601160008573ffffffffffffffffffffffffffffffffffffffff1673ffffffffffffffffffffffffffffffffffffffff16815260200190815260200160002060008473ffffffffffffffffffffffffffffffffffffffff1673ffffffffffffffffffffffffffffffffffffffff168152602001908152602001600020819055508173ffffffffffffffffffffffffffffffffffffffff168373ffffffffffffffffffffffffffffffffffffffff167f8c5be1e5ebec7d5bd14f71427d1e84f3dd0314c0f7b2291e5b200ac8c7c3b925836040518082815260200191505060405180910390a3505050565b60008183019050828110151515614ee357600080fd5b92915050565b6000828211151515614efa57600080fd5b818303905092915050565b600073ffffffffffffffffffffffffffffffffffffffff168373ffffffffffffffffffffffffffffffffffffffff1614151515614faa576040517f08c379a000000000000000000000000000000000000000000000000000000000815260040180806020018281038252600b8152602001807f616464726573732030783000000000000000000000000000000000000000000081525060200191505060405180910390fd5b614ff3600e60008673ffffffffffffffffffffffffffffffffffffffff1673ffffffffffffffffffffffffffffffffffffffff1681526020019081526020016000205483614ee9565b600e60008673ffffffffffffffffffffffffffffffffffffffff1673ffffffffffffffffffffffffffffffffffffffff1681526020019081526020016000208190555061507f600e60008573ffffffffffffffffffffffffffffffffffffffff1673ffffffffffffffffffffffffffffffffffffffff1681526020019081526020016000205483614ecd565b600e60008573ffffffffffffffffffffffffffffffffffffffff1673ffffffffffffffffffffffffffffffffffffffff168152602001908152602001600020819055506150ca615905565b60095481600001818152505084816020019073ffffffffffffffffffffffffffffffffffffffff16908173ffffffffffffffffffffffffffffffffffffffff168152505083816040019073ffffffffffffffffffffffffffffffffffffffff16908173ffffffffffffffffffffffffffffffffffffffff16815250508281606001818152505081816080018181525050806007600060095481526020019081526020016000206000820151816000015560208201518160010160006101000a81548173ffffffffffffffffffffffffffffffffffffffff021916908373ffffffffffffffffffffffffffffffffffffffff16021790555060408201518160020160006101000a81548173ffffffffffffffffffffffffffffffffffffffff021916908373ffffffffffffffffffffffffffffffffffffffff160217905550606082015181600301556080820151816004015590505061522c6009546001614ecd565b6009819055506000600f60008773ffffffffffffffffffffffffffffffffffffffff1673ffffffffffffffffffffffffffffffffffffffff1681526020019081526020016000206003015490506000600f60008773ffffffffffffffffffffffffffffffffffffffff1673ffffffffffffffffffffffffffffffffffffffff16815260200190815260200160002060030154905082600860008973ffffffffffffffffffffffffffffffffffffffff1673ffffffffffffffffffffffffffffffffffffffff16815260200190815260200160002060008481526020019081526020016000206000820151816000015560208201518160010160006101000a81548173ffffffffffffffffffffffffffffffffffffffff021916908373ffffffffffffffffffffffffffffffffffffffff16021790555060408201518160020160006101000a81548173ffffffffffffffffffffffffffffffffffffffff021916908373ffffffffffffffffffffffffffffffffffffffff160217905550606082015181600301556080820151816004015590505061540d600f60008973ffffffffffffffffffffffffffffffffffffffff1673ffffffffffffffffffffffffffffffffffffffff168152602001908152602001600020600301546001614ecd565b600f60008973ffffffffffffffffffffffffffffffffffffffff1673ffffffffffffffffffffffffffffffffffffffff168152602001908152602001600020600301819055506154a0600f60008973ffffffffffffffffffffffffffffffffffffffff1673ffffffffffffffffffffffffffffffffffffffff168152602001908152602001600020600401546001614ecd565b600f60008973ffffffffffffffffffffffffffffffffffffffff1673ffffffffffffffffffffffffffffffffffffffff16815260200190815260200160002060040181905550615532600f60008973ffffffffffffffffffffffffffffffffffffffff1673ffffffffffffffffffffffffffffffffffffffff1681526020019081526020016000206007015486614ecd565b600f60008973ffffffffffffffffffffffffffffffffffffffff1673ffffffffffffffffffffffffffffffffffffffff168152602001908152602001600020600701819055506155c5600f60008873ffffffffffffffffffffffffffffffffffffffff1673ffffffffffffffffffffffffffffffffffffffff168152602001908152602001600020600501546001614ecd565b600f60008873ffffffffffffffffffffffffffffffffffffffff1673ffffffffffffffffffffffffffffffffffffffff16815260200190815260200160002060050181905550615657600f60008873ffffffffffffffffffffffffffffffffffffffff1673ffffffffffffffffffffffffffffffffffffffff1681526020019081526020016000206006015486614ecd565b600f60008873ffffffffffffffffffffffffffffffffffffffff1673ffffffffffffffffffffffffffffffffffffffff168152602001908152602001600020600601819055508573ffffffffffffffffffffffffffffffffffffffff168773ffffffffffffffffffffffffffffffffffffffff161415156158665782600860008873ffffffffffffffffffffffffffffffffffffffff1673ffffffffffffffffffffffffffffffffffffffff16815260200190815260200160002060008381526020019081526020016000206000820151816000015560208201518160010160006101000a81548173ffffffffffffffffffffffffffffffffffffffff021916908373ffffffffffffffffffffffffffffffffffffffff16021790555060408201518160020160006101000a81548173ffffffffffffffffffffffffffffffffffffffff021916908373ffffffffffffffffffffffffffffffffffffffff160217905550606082015181600301556080820151816004015590505061581f600f60008873ffffffffffffffffffffffffffffffffffffffff1673ffffffffffffffffffffffffffffffffffffffff168152602001908152602001600020600301546001614ecd565b600f60008873ffffffffffffffffffffffffffffffffffffffff1673ffffffffffffffffffffffffffffffffffffffff168152602001908152602001600020600301819055505b8573ffffffffffffffffffffffffffffffffffffffff168773ffffffffffffffffffffffffffffffffffffffff167fddf252ad1be2c89b69c2b068fc378daa952ba7f163c4a11628f55a4df523b3ef876040518082815260200191505060405180910390a350505050505050565b6000818302905060008314806158f457508183828115156158f157fe5b04145b15156158ff57600080fd5b92915050565b60a06040519081016040528060008152602001600073ffffffffffffffffffffffffffffffffffffffff168152602001600073ffffffffffffffffffffffffffffffffffffffff1681526020016000815260200160008019168152509056fea165627a7a72305820902d5ba95dfdad55b68cd93b84c684a7e3f7db782363f2dc9919799e9ff4521b0029",
  "source": "pragma solidity ^0.5.0;\n\n// ----------------------------------------------------------------------------\n// Safe maths\n// ----------------------------------------------------------------------------\ncontract SafeMath {\n    function safeAdd(uint a, uint b) internal pure returns (uint c) {\n        c = a + b;\n        require(c >= a);\n    }\n    function safeSub(uint a, uint b) internal pure returns (uint c) {\n        require(b <= a);\n        c = a - b;\n    }\n    function safeMul(uint a, uint b) internal pure returns (uint c) {\n        c = a * b;\n        require(a == 0 || c / a == b);\n    }\n    function safeDiv(uint a, uint b) internal pure returns (uint c) {\n        require(b > 0);\n        c = a / b;\n    }\n}\n\n\n// ----------------------------------------------------------------------------\n// Owned contract\n// ----------------------------------------------------------------------------\n\ncontract Owned {\n    address public owner;\n    address public newOwner;\n\n    event OwnershipTransferred(address indexed _from, address indexed _to);\n\n    //The owner will me always this address even if another address pay ether to launch the contract (need to be check)\n    constructor() public {\n        owner = 0xc4d446c6B924c431f89214319D5A3e6bb67e7627; // my personnal address with my phone number (it is my public key)\n    }\n\n    modifier onlyOwner {\n        require(msg.sender == owner);\n        _;\n    }\n\n    function transferOwnership(address _newOwner) public onlyOwner {\n        newOwner = _newOwner;\n    }\n\n    function acceptOwnership() public {\n        require(msg.sender == newOwner);\n        emit OwnershipTransferred(owner, newOwner);\n        owner = newOwner;\n        newOwner = address(0);\n    }\n}\n\n\n// ----------------------------------------------------------------------------\n// AST contract : The first part is the ERC20 function then advance coin functions\n// ----------------------------------------------------------------------------\n\ncontract AurexiaSocialToken is Owned, SafeMath {\n    bytes32 public symbol;\n    bytes32 public name;\n    uint8 public decimals;\n    uint256 public _totalSupply;\n    uint32 public initialSupply;\n    bool public openDonation; // when true we can send our token to association \n\n    struct wording {\n      uint256 id;\n      address from;\n      address to;\n      uint256 amountAST;\n      bytes32 text;\n    }\n\n    //storage of all wordings by their id and their address\n    mapping (uint256 => wording) private wordings;\n    mapping (address => mapping (uint256 => wording)) private personalWordings;\n    uint256 public indexNewWording;\n\n    //storage of all adresses and the size of members of aurexia\n    address[] private aurexiaAccounts;\n    uint256 public sizeListAccount;\n\n    //storage of all adresses of all charities\n    address[] private charityAccounts;\n    uint256 public sizeListCharity;\n\n    struct membre{\n      address publicKey;\n      bytes32 name;    // first name + family Name\n      uint8 grade;     // 1 for consultants, 2 for managers, 3 for partners, 4 for admin \n      bool isMember;\n      uint256 nbrTransaction;\n      uint256 nbrSend;\n      uint256 nbrReceive;\n      uint256 totalReceive;\n      uint256 totalSend;\n    }\n\n    struct association{\n      address publicKey;\n      bytes32 name;\n      bool isPartner; // kind of whitelist of association, allowed to add and remove easier\n    }\n\n    mapping(address => uint) private balances;\n    mapping(address => membre) private aurexiaMembers;\n    mapping(address => association) private associationList;\n\n    event Transfer(address indexed from, address indexed to, uint tokens);\n    event Burn(address indexed from, uint256 value);\n\n    //mapping and event for ERC20 function but we didn't use it. I put it for good recognition of our contract as ERC20\n    mapping (address => mapping (address => uint256)) private _allowed;\n    event Approval(address indexed owner, address indexed spender, uint256 value);\n\n\n    // ------------------------------------------------------------------------\n    // Constructor\n    // ------------------------------------------------------------------------\n\n    constructor() public {\n        symbol = \"AST\";\n        name = \"AurexiaSocialToken\";\n        decimals = 18;\n        initialSupply = 20000;\n        _totalSupply = initialSupply * 10**uint256(decimals); // 1 token = 1 * 10^18 because of 18 decimals\n        balances[owner] = _totalSupply;\n\n        emit Transfer(address(0), owner, _totalSupply);\n        \n        wordings[0].id = 0;\n        wordings[0].to = owner;\n        wordings[0].amountAST = _totalSupply;\n        wordings[0].text = \"Contract Creation\";\n        indexNewWording = 1;\n\n        personalWordings[owner][0].id = 0;\n        personalWordings[owner][0].to = owner;\n        personalWordings[owner][0].amountAST = _totalSupply;\n        personalWordings[owner][0].text = \"Contract Creation\";\n\n        // add of  the owner in the whitelist aurexiaMembers\n        aurexiaMembers[owner].publicKey = owner;\n        aurexiaMembers[owner].name = \"Administrator\";\n        aurexiaMembers[owner].grade = 4;\n        aurexiaMembers[owner].isMember = true;\n        aurexiaMembers[owner].nbrTransaction = 1;\n        aurexiaMembers[owner].nbrReceive = 1;\n        aurexiaMembers[owner].totalReceive = _totalSupply;\n\n        aurexiaAccounts.push(owner);\n        sizeListAccount += 1;\n\n        openDonation = false;\n\n      }\n\n    // ------------------------------------------------------------------------\n    // ERC20 Functions (approve and allowed functions are written but we don't use it. There are just here for a good recognition of our contract as an ERC20)\n    // ref \"https://www.ethereum-france.com/qu-est-ce-qu-un-token-erc20/\" to know what do all ERC20 functions\n    // ------------------------------------------------------------------------\n\n    function totalSupply() public view returns (uint256) {\n        return _totalSupply;\n      }\n\n    function balanceOf(address _address) public view returns (uint256) {\n        return balances[_address];\n      }\n\n    function transfer(address _to, uint256 _value, bytes32 _text) public returns (bool) {\n        require (aurexiaMembers[msg.sender].isMember == true);\n        _transfer(msg.sender, _to, _value, _text);\n        return true;\n      }\n\n    function transferFrom(address _from, address _to, uint256 _value, bytes32 _text) public onlyOwner() returns (bool) {\n        _transfer(_from, _to, _value, _text);\n        return true;\n      }\n\n    function _transfer(address from, address to, uint256 tokens, bytes32 text) private {\n        require(to != address(0), \"address 0x0\");\n        balances[from] = safeSub(balances[from], tokens);\n        balances[to] = safeAdd(balances[to], tokens);\n\n        wording memory newWording;\n        newWording.id = indexNewWording;\n        newWording.from = from;\n        newWording.to = to;\n        newWording.amountAST = tokens;\n        newWording.text = text;\n\n        wordings[indexNewWording] = newWording;\n        indexNewWording = safeAdd(indexNewWording, 1);\n\n        uint256 tailleFrom = aurexiaMembers[from].nbrTransaction;\n        uint256 tailleTo = aurexiaMembers[to].nbrTransaction;\n        personalWordings[from][tailleFrom] = newWording;\n        aurexiaMembers[from].nbrTransaction = safeAdd(aurexiaMembers[from].nbrTransaction,1);\n        aurexiaMembers[from].nbrSend = safeAdd(aurexiaMembers[from].nbrSend,1);\n        aurexiaMembers[from].totalSend = safeAdd(aurexiaMembers[from].totalSend,tokens);\n        aurexiaMembers[to].nbrReceive = safeAdd(aurexiaMembers[to].nbrReceive,1);\n        aurexiaMembers[to].totalReceive = safeAdd(aurexiaMembers[to].totalReceive,tokens);\n\n        if (from != to){                //this line is when administrator send to himself some token, it's jsut 1 transaction overall but must be count as 1 transaction send and 1 receive\n          personalWordings[to][tailleTo] = newWording;\n          aurexiaMembers[to].nbrTransaction = safeAdd(aurexiaMembers[to].nbrTransaction,1);\n        }\n\n        emit Transfer(from, to, tokens);\n      }\n\n\n// ***********************************************************************************//\n    function approve(address spender, uint256 value) public returns (bool) {\n        _approve(msg.sender, spender, value);\n        return true;\n    }\n\n    function _approve(address sender, address spender, uint256 value) internal {\n        require(spender != address(0), \"address 0x0\");\n        require(sender != address(0), \"address 0x0\");\n\n        _allowed[sender][spender] = value;\n        emit Approval(sender, spender, value);\n    }\n\n    function allowance(address sender, address spender) public view returns (uint256) {\n        return _allowed[sender][spender];\n    }\n\n  // ------------------------------------------------------------------------\n  // Advanced functions : AST functions\n  // ------------------------------------------------------------------------\n\n  // Creation of token, increase both total supply and the account which receive all the new tokens\n\n//be careful when you create token to be aware of the 18 decimals. For exemple create 300 tokens is 300 * 10^18 in the argument value of the function\n    function mint(address _receiver, uint256 _value) public onlyOwner() {\n        require(_receiver != address(0), \"address 0x0\");\n        _totalSupply = safeAdd(_totalSupply, _value);\n        balances[_receiver] = safeAdd(balances[_receiver],_value);\n\n        wording memory newWording;\n        newWording.id = indexNewWording;\n        newWording.to = _receiver;\n        newWording.amountAST = _value;\n        newWording.text = \"Token Creation From Admin\";\n\n        wordings[indexNewWording] = newWording;\n        indexNewWording = safeAdd(indexNewWording, 1);\n\n        uint256 tailleTo = aurexiaMembers[_receiver].nbrTransaction;\n        personalWordings[_receiver][tailleTo] = newWording;\n        aurexiaMembers[_receiver].nbrTransaction = safeAdd(aurexiaMembers[_receiver].nbrTransaction,1);\n\n        emit Transfer(address(0), _receiver, _value);\n    }\n\n  // Destruction of token, erase the amount of token from an account and update the total supply\n\n//be careful when you destroy token to be aware of the 18 decimals. For exemple destroy 300 tokens is 300 * 10^18 in the argument value of the function\n    function burn(address _address, uint256 _value) public onlyOwner() returns (bool success) {\n        require(balances[_address] >= _value);                        // Check if the sender has enough\n        balances[_address] = safeSub(balances[_address], _value);           // Subtract from the sender\n        _totalSupply = safeSub(_totalSupply, _value);                   // Updates totalSupply\n\n        wording memory newWording;\n        newWording.id = indexNewWording;\n        newWording.to = _address;\n        newWording.amountAST = _value;\n        newWording.text = \"Token Suppression From Admin\";\n\n        wordings[indexNewWording] = newWording;\n        indexNewWording = safeAdd(indexNewWording, 1);\n\n        uint256 tailleTo = aurexiaMembers[_address].nbrTransaction;\n        personalWordings[_address][tailleTo] = newWording;\n        aurexiaMembers[_address].nbrTransaction = safeAdd(aurexiaMembers[_address].nbrTransaction,1);\n\n        emit Burn(msg.sender, _value);\n        return true;\n    }\n\n    //transfer tokens to all aurexia members from administrator\n\n    function transferAll(uint256 _value) public onlyOwner() returns (bool success) {\n        require(balances[owner] >= safeMul(_value,sizeListAccount));\n        for (uint i=0; i<sizeListAccount; i++){\n          address account = aurexiaAccounts[i];\n          bytes32 text = \"initial donation\";\n          _transfer(owner, account, _value, text);\n        }\n        return true;\n    }\n\n  // Functions to add/remove new members in AurexiaMembers (whitelist)\n\n    function addToAurexiaMembers (address _address, bytes32 _name, uint8 _grade) public returns (bool) {\n        require (msg.sender == owner || aurexiaMembers[msg.sender].grade > 1);\n        aurexiaMembers[_address].publicKey = _address;\n        aurexiaMembers[_address].name = _name;\n        aurexiaMembers[_address].grade = _grade;\n        aurexiaMembers[_address].isMember = true;\n        for (uint i=0; i<sizeListAccount; i++ ){\n          if (_address == aurexiaAccounts[i]){\n            return true;\n          }\n        }\n        aurexiaAccounts.push(_address);\n        sizeListAccount = safeAdd(sizeListAccount, 1);\n        return true;\n    }\n\n\n    function authorizeManyMembers (address[] memory _address, bytes32[] memory _name, uint8[] memory _grade, uint256 taille) public returns (bool){\n          require (msg.sender == owner || aurexiaMembers[msg.sender].grade > 1);\n          for (uint i=0; i<taille; i++){\n            addToAurexiaMembers(_address[i], _name[i], _grade[i]);\n          }\n          return true;\n      }\n\n\n    function remAurexiaMembers (address _address) public returns (bool){\n        require (msg.sender == owner || aurexiaMembers[msg.sender].grade > 1);\n        aurexiaMembers[_address].isMember = false;\n        for (uint i=0; i<sizeListAccount; i++ ){\n          if (_address == aurexiaAccounts[i]){\n            aurexiaAccounts[i] = aurexiaAccounts[sizeListAccount - 1];\n            delete aurexiaAccounts[sizeListAccount - 1];\n            sizeListAccount = safeSub(sizeListAccount, 1);\n            break;\n          }\n        }\n        return true;\n    }\n\n    \n    //function to get all data members from the contract\n\n    function getMembers() public view returns (address[] memory){\n        return aurexiaAccounts;\n    }\n\n    function getMembersAndName() public view returns (address[] memory, bytes32[] memory){\n        bytes32[] memory NameAurexia = new bytes32[](sizeListAccount);\n        for (uint i=0; i<sizeListAccount; i++){\n          NameAurexia[i] = getName(aurexiaAccounts[i]);\n        }\n        return (aurexiaAccounts, NameAurexia);\n    }\n\n    function getMembersAndNameAndBalance() public view returns (address[] memory, bytes32[] memory, uint256[] memory){\n        bytes32[] memory nameAurexia = new bytes32[](sizeListAccount);\n        uint256[] memory balanceAurexia = new uint256[](sizeListAccount);\n        for (uint i=0; i<sizeListAccount; i++){\n          nameAurexia[i] = getName(aurexiaAccounts[i]);\n          balanceAurexia[i] = balanceOf(aurexiaAccounts[i]);\n        }\n        return (aurexiaAccounts, nameAurexia, balanceAurexia);\n    }\n\n    function getAddress (uint256 index) public view returns (address){\n        return aurexiaAccounts[index];\n    }\n\n  \n  //function to check member in AurexiaMembers (whitelist)\n\n    function isInAurexiaMembers (address _address) public view returns (bool){\n        return aurexiaMembers[_address].isMember;\n    }\n\n  //functions to get all information from a member (you must be in the whitelist to have access to this)\n    function getName (address _address) public view returns (bytes32){\n        return aurexiaMembers[_address].name;\n    }\n\n    function getGrade (address _address) public view returns (uint8){\n        return aurexiaMembers[_address].grade;\n    }\n\n    function getNbrTransaction (address _address) public view returns (uint256){\n        return aurexiaMembers[_address].nbrTransaction;\n    }\n\n    function getTotalSend (address _address) public view returns (uint256){\n        return aurexiaMembers[_address].totalSend;\n    }\n\n    function getTotalReceive (address _address) public view returns (uint256){\n        return aurexiaMembers[_address].totalReceive;\n    }\n\n    function getNbrSend (address _address) public view returns (uint256){\n        return aurexiaMembers[_address].nbrSend;\n    }\n\n    function getNbrReceive (address _address) public view returns (uint256){\n        return aurexiaMembers[_address].nbrReceive;\n    }\n\n  //function to modify grade \n\n    function modifyGrade (address _address, uint8 newGrade) public returns (bool){   // only owner and manager and partner can promote somebody\n        require (msg.sender == owner || aurexiaMembers[msg.sender].grade > 1);\n        aurexiaMembers[_address].grade = newGrade;\n        return true;\n    }\n\n  //function to modify name (only owner and the one who want to change his/her name)\n\n    function modifyName (address _address, bytes32 newName) public returns (bool){\n        require (msg.sender == owner || _address == msg.sender);\n        aurexiaMembers[_address].name = newName;\n    }\n  \n  //function to manage association \n    \n    function addAssociation (address _address, bytes32 _name) public returns (bool){\n        require (msg.sender == owner || aurexiaMembers[msg.sender].grade == 3);\n        associationList[_address].name = _name;\n        associationList[_address].publicKey = _address;\n        associationList[_address].isPartner = true;\n        charityAccounts.push(_address);\n        sizeListCharity = safeAdd(sizeListCharity, 1);\n        return true;\n    }\n\n    function remAssociation (address _address) public returns (bool){\n        require (msg.sender == owner || aurexiaMembers[msg.sender].grade == 3);\n        associationList[_address].isPartner = false;\n        for (uint i=0; i<sizeListCharity; i++ ){\n          if (_address == charityAccounts[i]){\n            charityAccounts[i] = charityAccounts[sizeListCharity - 1];\n            delete charityAccounts[sizeListCharity - 1];\n            sizeListCharity = safeSub(sizeListCharity, 1);\n            break;\n          }\n        }\n        return true; \n    }\n    function transferToAssociation (address _address) public returns (bool){\n        require (aurexiaMembers[msg.sender].isMember == true);\n        require (openDonation == true);\n        require (associationList[_address].isPartner == true);\n        uint256 value = balanceOf(msg.sender);\n        bytes32 donationText = \"Sending to Association\";\n        _transfer (msg.sender, _address, value, donationText);\n        return true; \n    }\n\n    function getCharityAddress () public view returns (address[] memory){\n        return charityAccounts;\n    }\n\n    function getCharitySize () public view returns (uint256){\n        return sizeListCharity;\n    }\n\n    function launchDonation () public returns (bool){\n        require (msg.sender == owner || aurexiaMembers[msg.sender].grade == 3);\n        require (openDonation == false);\n        openDonation = true; \n        return true;\n    }\n\n    function closeDonation () public returns (bool){\n        require (msg.sender == owner || aurexiaMembers[msg.sender].grade == 3);\n        require (openDonation == true);\n        openDonation = false;\n        return true;\n    }\n\n  //Read function for associations\n\n    function isAssoPartner (address _address) public view returns (bool){\n        return associationList[_address].isPartner;\n    }\n\n    function getAssoName (address _address) public view returns (bytes32){\n        return associationList[_address].name;\n    }\n\n\n  // functions transaction : We want to get and store the wording (libell) of the transaction\n\n    function getAllWordings () public view returns (address[]memory, address[]memory, uint256[]memory, bytes32[]memory){\n        address[] memory addressFrom = new address[](indexNewWording);\n        address[] memory addressTo = new address[](indexNewWording);\n        uint256[] memory amountsAST = new uint256[](indexNewWording);\n        bytes32[] memory textWordings = new bytes32[](indexNewWording);\n        for (uint256 i=0; i<indexNewWording; i++){\n          addressFrom[i] = wordings[i].from;\n          addressTo[i] = wordings[i].to;\n          amountsAST[i] = wordings[i].amountAST;\n          textWordings[i] = wordings[i].text;\n        }\n        return (addressFrom, addressTo, amountsAST, textWordings);\n    }\n\n    function getPersonalWordings (address _address) public view returns (address[]memory, address[]memory, uint256[]memory, bytes32[]memory){\n        uint256 taille = aurexiaMembers[_address].nbrTransaction;\n        address[] memory addressFrom = new address[](taille);\n        address[] memory addressTo = new address[](taille);\n        uint256[] memory amountsAST = new uint256[](taille);\n        bytes32[] memory textWordings = new bytes32[](taille);\n        for (uint256 i=0; i<taille; i++){\n          addressFrom[i] = personalWordings[_address][i].from;\n          addressTo[i] = personalWordings[_address][i].to;\n          amountsAST[i] = personalWordings[_address][i].amountAST;\n          textWordings[i] = personalWordings[_address][i].text;\n        }\n        return (addressFrom, addressTo, amountsAST, textWordings);\n    }\n\n    function getPersoInfoTransaction (address _address) public view returns (uint256, uint256, uint256, uint256, uint256){\n        uint256 _nbrTransaction = getNbrTransaction(_address);\n        uint256 _totalSend = getTotalSend(_address);\n        uint256 _totalReceive = getTotalReceive(_address);\n        uint256 _nbrSend = getNbrSend(_address);\n        uint256 _nbrReceive = getNbrReceive(_address);\n        return (_nbrTransaction, _totalSend, _totalReceive, _nbrSend, _nbrReceive);\n    }\n\n    function getAllInfoTransaction () public view returns (uint256[]memory, uint256[]memory, uint256[]memory, bytes32[]memory){\n        uint256[] memory _nbrTransaction = new uint256[](sizeListAccount);\n        uint256[] memory _nbrSend = new uint256[](sizeListAccount);\n        uint256[] memory _nbrReceive = new uint256[](sizeListAccount);\n        bytes32[] memory _nameUser = new bytes32[](sizeListAccount);\n        for (uint256 i=0; i<sizeListAccount; i++){\n          _nbrTransaction[i] = getNbrTransaction(aurexiaAccounts[i]);\n          _nbrSend[i] = getTotalSend(aurexiaAccounts[i]);\n          _nbrReceive[i] = getTotalReceive(aurexiaAccounts[i]);\n          _nameUser[i] = getName(aurexiaAccounts[i]);\n        }\n        return (_nbrTransaction, _nbrSend, _nbrReceive, _nameUser);\n    }\n\n\n\n    \n  // ------------------------------------------------------------------------\n  // Function for event management\n  // ------------------------------------------------------------------------\n\n\n\n}\n\n\n\n\n",
  "sourcePath": "C:/Users/spierre/Desktop/Aurexia Git/SmartContract ropsten Test opti dev4/contracts/AurexiaSocialToken.sol",
  "compiler": {
    "name": "solc",
    "version": "0.5.0+commit.1d4f565a.Emscripten.clang"
  },
  "schemaVersion": "3.0.8",
  "updatedAt": "2019-06-11T15:48:08.483Z",
  "devdoc": {
    "methods": {}
  },
  "userdoc": {
    "methods": {}
  }
}