{
  "contractName": "AurexiaSocialToken",
  "abi": [
    {
      "constant": true,
      "inputs": [],
      "name": "name",
      "outputs": [
        {
          "name": "",
          "type": "bytes32"
        }
      ],
      "payable": false,
      "stateMutability": "view",
      "type": "function",
      "signature": "0x06fdde03"
    },
    {
      "constant": true,
      "inputs": [],
      "name": "sizeListCharity",
      "outputs": [
        {
          "name": "",
          "type": "uint256"
        }
      ],
      "payable": false,
      "stateMutability": "view",
      "type": "function",
      "signature": "0x1c6c72b0"
    },
    {
      "constant": true,
      "inputs": [],
      "name": "openDonation",
      "outputs": [
        {
          "name": "",
          "type": "bool"
        }
      ],
      "payable": false,
      "stateMutability": "view",
      "type": "function",
      "signature": "0x30e3fcad"
    },
    {
      "constant": true,
      "inputs": [],
      "name": "decimals",
      "outputs": [
        {
          "name": "",
          "type": "uint8"
        }
      ],
      "payable": false,
      "stateMutability": "view",
      "type": "function",
      "signature": "0x313ce567"
    },
    {
      "constant": true,
      "inputs": [],
      "name": "initialSupply",
      "outputs": [
        {
          "name": "",
          "type": "uint32"
        }
      ],
      "payable": false,
      "stateMutability": "view",
      "type": "function",
      "signature": "0x378dc3dc"
    },
    {
      "constant": true,
      "inputs": [],
      "name": "_totalSupply",
      "outputs": [
        {
          "name": "",
          "type": "uint256"
        }
      ],
      "payable": false,
      "stateMutability": "view",
      "type": "function",
      "signature": "0x3eaaf86b"
    },
    {
      "constant": false,
      "inputs": [],
      "name": "acceptOwnership",
      "outputs": [],
      "payable": false,
      "stateMutability": "nonpayable",
      "type": "function",
      "signature": "0x79ba5097"
    },
    {
      "constant": true,
      "inputs": [],
      "name": "owner",
      "outputs": [
        {
          "name": "",
          "type": "address"
        }
      ],
      "payable": false,
      "stateMutability": "view",
      "type": "function",
      "signature": "0x8da5cb5b"
    },
    {
      "constant": true,
      "inputs": [],
      "name": "symbol",
      "outputs": [
        {
          "name": "",
          "type": "bytes32"
        }
      ],
      "payable": false,
      "stateMutability": "view",
      "type": "function",
      "signature": "0x95d89b41"
    },
    {
      "constant": true,
      "inputs": [],
      "name": "indexNewWording",
      "outputs": [
        {
          "name": "",
          "type": "uint256"
        }
      ],
      "payable": false,
      "stateMutability": "view",
      "type": "function",
      "signature": "0xd3c49371"
    },
    {
      "constant": true,
      "inputs": [],
      "name": "newOwner",
      "outputs": [
        {
          "name": "",
          "type": "address"
        }
      ],
      "payable": false,
      "stateMutability": "view",
      "type": "function",
      "signature": "0xd4ee1d90"
    },
    {
      "constant": true,
      "inputs": [],
      "name": "sizeListAccount",
      "outputs": [
        {
          "name": "",
          "type": "uint256"
        }
      ],
      "payable": false,
      "stateMutability": "view",
      "type": "function",
      "signature": "0xd6eb5782"
    },
    {
      "constant": false,
      "inputs": [
        {
          "name": "_newOwner",
          "type": "address"
        }
      ],
      "name": "transferOwnership",
      "outputs": [],
      "payable": false,
      "stateMutability": "nonpayable",
      "type": "function",
      "signature": "0xf2fde38b"
    },
    {
      "inputs": [],
      "payable": false,
      "stateMutability": "nonpayable",
      "type": "constructor",
      "signature": "constructor"
    },
    {
      "anonymous": false,
      "inputs": [
        {
          "indexed": true,
          "name": "from",
          "type": "address"
        },
        {
          "indexed": true,
          "name": "to",
          "type": "address"
        },
        {
          "indexed": false,
          "name": "tokens",
          "type": "uint256"
        }
      ],
      "name": "Transfer",
      "type": "event",
      "signature": "0xddf252ad1be2c89b69c2b068fc378daa952ba7f163c4a11628f55a4df523b3ef"
    },
    {
      "anonymous": false,
      "inputs": [
        {
          "indexed": true,
          "name": "from",
          "type": "address"
        },
        {
          "indexed": false,
          "name": "value",
          "type": "uint256"
        }
      ],
      "name": "Burn",
      "type": "event",
      "signature": "0xcc16f5dbb4873280815c1ee09dbd06736cffcc184412cf7a71a0fdb75d397ca5"
    },
    {
      "anonymous": false,
      "inputs": [
        {
          "indexed": true,
          "name": "owner",
          "type": "address"
        },
        {
          "indexed": true,
          "name": "spender",
          "type": "address"
        },
        {
          "indexed": false,
          "name": "value",
          "type": "uint256"
        }
      ],
      "name": "Approval",
      "type": "event",
      "signature": "0x8c5be1e5ebec7d5bd14f71427d1e84f3dd0314c0f7b2291e5b200ac8c7c3b925"
    },
    {
      "anonymous": false,
      "inputs": [
        {
          "indexed": true,
          "name": "_from",
          "type": "address"
        },
        {
          "indexed": true,
          "name": "_to",
          "type": "address"
        }
      ],
      "name": "OwnershipTransferred",
      "type": "event",
      "signature": "0x8be0079c531659141344cd1fd0a4f28419497f9722a3daafe3b4186f6b6457e0"
    },
    {
      "constant": true,
      "inputs": [],
      "name": "totalSupply",
      "outputs": [
        {
          "name": "",
          "type": "uint256"
        }
      ],
      "payable": false,
      "stateMutability": "view",
      "type": "function",
      "signature": "0x18160ddd"
    },
    {
      "constant": true,
      "inputs": [
        {
          "name": "_address",
          "type": "address"
        }
      ],
      "name": "balanceOf",
      "outputs": [
        {
          "name": "",
          "type": "uint256"
        }
      ],
      "payable": false,
      "stateMutability": "view",
      "type": "function",
      "signature": "0x70a08231"
    },
    {
      "constant": false,
      "inputs": [
        {
          "name": "_to",
          "type": "address"
        },
        {
          "name": "_value",
          "type": "uint256"
        },
        {
          "name": "_text",
          "type": "bytes32"
        }
      ],
      "name": "transfer",
      "outputs": [
        {
          "name": "",
          "type": "bool"
        }
      ],
      "payable": false,
      "stateMutability": "nonpayable",
      "type": "function",
      "signature": "0x57cfeeee"
    },
    {
      "constant": false,
      "inputs": [
        {
          "name": "_from",
          "type": "address"
        },
        {
          "name": "_to",
          "type": "address"
        },
        {
          "name": "_value",
          "type": "uint256"
        },
        {
          "name": "_text",
          "type": "bytes32"
        }
      ],
      "name": "transferFrom",
      "outputs": [
        {
          "name": "",
          "type": "bool"
        }
      ],
      "payable": false,
      "stateMutability": "nonpayable",
      "type": "function",
      "signature": "0x401e3367"
    },
    {
      "constant": false,
      "inputs": [
        {
          "name": "spender",
          "type": "address"
        },
        {
          "name": "value",
          "type": "uint256"
        }
      ],
      "name": "approve",
      "outputs": [
        {
          "name": "",
          "type": "bool"
        }
      ],
      "payable": false,
      "stateMutability": "nonpayable",
      "type": "function",
      "signature": "0x095ea7b3"
    },
    {
      "constant": true,
      "inputs": [
        {
          "name": "sender",
          "type": "address"
        },
        {
          "name": "spender",
          "type": "address"
        }
      ],
      "name": "allowance",
      "outputs": [
        {
          "name": "",
          "type": "uint256"
        }
      ],
      "payable": false,
      "stateMutability": "view",
      "type": "function",
      "signature": "0xdd62ed3e"
    },
    {
      "constant": false,
      "inputs": [
        {
          "name": "_receiver",
          "type": "address"
        },
        {
          "name": "_value",
          "type": "uint256"
        }
      ],
      "name": "mint",
      "outputs": [],
      "payable": false,
      "stateMutability": "nonpayable",
      "type": "function",
      "signature": "0x40c10f19"
    },
    {
      "constant": false,
      "inputs": [
        {
          "name": "_address",
          "type": "address"
        },
        {
          "name": "_value",
          "type": "uint256"
        }
      ],
      "name": "burn",
      "outputs": [
        {
          "name": "success",
          "type": "bool"
        }
      ],
      "payable": false,
      "stateMutability": "nonpayable",
      "type": "function",
      "signature": "0x9dc29fac"
    },
    {
      "constant": false,
      "inputs": [
        {
          "name": "_value",
          "type": "uint256"
        }
      ],
      "name": "transferAll",
      "outputs": [
        {
          "name": "success",
          "type": "bool"
        }
      ],
      "payable": false,
      "stateMutability": "nonpayable",
      "type": "function",
      "signature": "0x52435bb8"
    },
    {
      "constant": false,
      "inputs": [
        {
          "name": "_address",
          "type": "address"
        },
        {
          "name": "_name",
          "type": "bytes32"
        },
        {
          "name": "_grade",
          "type": "uint8"
        }
      ],
      "name": "addToAurexiaMembers",
      "outputs": [
        {
          "name": "",
          "type": "bool"
        }
      ],
      "payable": false,
      "stateMutability": "nonpayable",
      "type": "function",
      "signature": "0x7112ba11"
    },
    {
      "constant": false,
      "inputs": [
        {
          "name": "_address",
          "type": "address[]"
        },
        {
          "name": "_name",
          "type": "bytes32[]"
        },
        {
          "name": "_grade",
          "type": "uint8[]"
        },
        {
          "name": "taille",
          "type": "uint256"
        }
      ],
      "name": "authorizeManyMembers",
      "outputs": [
        {
          "name": "",
          "type": "bool"
        }
      ],
      "payable": false,
      "stateMutability": "nonpayable",
      "type": "function",
      "signature": "0xeed414b8"
    },
    {
      "constant": false,
      "inputs": [
        {
          "name": "_address",
          "type": "address"
        }
      ],
      "name": "remAurexiaMembers",
      "outputs": [
        {
          "name": "",
          "type": "bool"
        }
      ],
      "payable": false,
      "stateMutability": "nonpayable",
      "type": "function",
      "signature": "0x53e18bdc"
    },
    {
      "constant": true,
      "inputs": [],
      "name": "getMembers",
      "outputs": [
        {
          "name": "",
          "type": "address[]"
        }
      ],
      "payable": false,
      "stateMutability": "view",
      "type": "function",
      "signature": "0x9eab5253"
    },
    {
      "constant": true,
      "inputs": [],
      "name": "getMembersAndName",
      "outputs": [
        {
          "name": "",
          "type": "address[]"
        },
        {
          "name": "",
          "type": "bytes32[]"
        }
      ],
      "payable": false,
      "stateMutability": "view",
      "type": "function",
      "signature": "0xd9543bb6"
    },
    {
      "constant": true,
      "inputs": [],
      "name": "getMembersAndNameAndBalance",
      "outputs": [
        {
          "name": "",
          "type": "address[]"
        },
        {
          "name": "",
          "type": "bytes32[]"
        },
        {
          "name": "",
          "type": "uint256[]"
        }
      ],
      "payable": false,
      "stateMutability": "view",
      "type": "function",
      "signature": "0x77f36225"
    },
    {
      "constant": true,
      "inputs": [
        {
          "name": "index",
          "type": "uint256"
        }
      ],
      "name": "getAddress",
      "outputs": [
        {
          "name": "",
          "type": "address"
        }
      ],
      "payable": false,
      "stateMutability": "view",
      "type": "function",
      "signature": "0xb93f9b0a"
    },
    {
      "constant": true,
      "inputs": [
        {
          "name": "_address",
          "type": "address"
        }
      ],
      "name": "isInAurexiaMembers",
      "outputs": [
        {
          "name": "",
          "type": "bool"
        }
      ],
      "payable": false,
      "stateMutability": "view",
      "type": "function",
      "signature": "0xfb108820"
    },
    {
      "constant": true,
      "inputs": [
        {
          "name": "_address",
          "type": "address"
        }
      ],
      "name": "getName",
      "outputs": [
        {
          "name": "",
          "type": "bytes32"
        }
      ],
      "payable": false,
      "stateMutability": "view",
      "type": "function",
      "signature": "0x5fd4b08a"
    },
    {
      "constant": true,
      "inputs": [
        {
          "name": "_address",
          "type": "address"
        }
      ],
      "name": "getGrade",
      "outputs": [
        {
          "name": "",
          "type": "uint8"
        }
      ],
      "payable": false,
      "stateMutability": "view",
      "type": "function",
      "signature": "0x313739a3"
    },
    {
      "constant": true,
      "inputs": [
        {
          "name": "_address",
          "type": "address"
        }
      ],
      "name": "getNbrTransaction",
      "outputs": [
        {
          "name": "",
          "type": "uint256"
        }
      ],
      "payable": false,
      "stateMutability": "view",
      "type": "function",
      "signature": "0x61a48dcf"
    },
    {
      "constant": true,
      "inputs": [
        {
          "name": "_address",
          "type": "address"
        }
      ],
      "name": "getTotalSend",
      "outputs": [
        {
          "name": "",
          "type": "uint256"
        }
      ],
      "payable": false,
      "stateMutability": "view",
      "type": "function",
      "signature": "0x6f485075"
    },
    {
      "constant": true,
      "inputs": [
        {
          "name": "_address",
          "type": "address"
        }
      ],
      "name": "getTotalReceive",
      "outputs": [
        {
          "name": "",
          "type": "uint256"
        }
      ],
      "payable": false,
      "stateMutability": "view",
      "type": "function",
      "signature": "0x33352d03"
    },
    {
      "constant": true,
      "inputs": [
        {
          "name": "_address",
          "type": "address"
        }
      ],
      "name": "getNbrSend",
      "outputs": [
        {
          "name": "",
          "type": "uint256"
        }
      ],
      "payable": false,
      "stateMutability": "view",
      "type": "function",
      "signature": "0x38790228"
    },
    {
      "constant": true,
      "inputs": [
        {
          "name": "_address",
          "type": "address"
        }
      ],
      "name": "getNbrReceive",
      "outputs": [
        {
          "name": "",
          "type": "uint256"
        }
      ],
      "payable": false,
      "stateMutability": "view",
      "type": "function",
      "signature": "0x1f1423b1"
    },
    {
      "constant": false,
      "inputs": [
        {
          "name": "_address",
          "type": "address"
        },
        {
          "name": "newGrade",
          "type": "uint8"
        }
      ],
      "name": "modifyGrade",
      "outputs": [
        {
          "name": "",
          "type": "bool"
        }
      ],
      "payable": false,
      "stateMutability": "nonpayable",
      "type": "function",
      "signature": "0xf09d0874"
    },
    {
      "constant": false,
      "inputs": [
        {
          "name": "_address",
          "type": "address"
        },
        {
          "name": "newName",
          "type": "bytes32"
        }
      ],
      "name": "modifyName",
      "outputs": [
        {
          "name": "",
          "type": "bool"
        }
      ],
      "payable": false,
      "stateMutability": "nonpayable",
      "type": "function",
      "signature": "0x9ca1221c"
    },
    {
      "constant": false,
      "inputs": [
        {
          "name": "_address",
          "type": "address"
        },
        {
          "name": "_name",
          "type": "bytes32"
        }
      ],
      "name": "addAssociation",
      "outputs": [
        {
          "name": "",
          "type": "bool"
        }
      ],
      "payable": false,
      "stateMutability": "nonpayable",
      "type": "function",
      "signature": "0x097a80b8"
    },
    {
      "constant": false,
      "inputs": [
        {
          "name": "_address",
          "type": "address"
        }
      ],
      "name": "remAssociation",
      "outputs": [
        {
          "name": "",
          "type": "bool"
        }
      ],
      "payable": false,
      "stateMutability": "nonpayable",
      "type": "function",
      "signature": "0x1a76e209"
    },
    {
      "constant": false,
      "inputs": [
        {
          "name": "_address",
          "type": "address"
        },
        {
          "name": "_amount",
          "type": "uint256"
        }
      ],
      "name": "transferToAssociation",
      "outputs": [
        {
          "name": "",
          "type": "bool"
        }
      ],
      "payable": false,
      "stateMutability": "nonpayable",
      "type": "function",
      "signature": "0x32e639e4"
    },
    {
      "constant": true,
      "inputs": [],
      "name": "getCharityAddress",
      "outputs": [
        {
          "name": "",
          "type": "address[]"
        }
      ],
      "payable": false,
      "stateMutability": "view",
      "type": "function",
      "signature": "0x1ad06393"
    },
    {
      "constant": true,
      "inputs": [],
      "name": "getCharitySize",
      "outputs": [
        {
          "name": "",
          "type": "uint256"
        }
      ],
      "payable": false,
      "stateMutability": "view",
      "type": "function",
      "signature": "0xae1de61c"
    },
    {
      "constant": false,
      "inputs": [],
      "name": "launchDonation",
      "outputs": [
        {
          "name": "",
          "type": "bool"
        }
      ],
      "payable": false,
      "stateMutability": "nonpayable",
      "type": "function",
      "signature": "0x60aa8c73"
    },
    {
      "constant": false,
      "inputs": [],
      "name": "closeDonation",
      "outputs": [
        {
          "name": "",
          "type": "bool"
        }
      ],
      "payable": false,
      "stateMutability": "nonpayable",
      "type": "function",
      "signature": "0x59abef9a"
    },
    {
      "constant": true,
      "inputs": [],
      "name": "getCharityAddressAndName",
      "outputs": [
        {
          "name": "",
          "type": "address[]"
        },
        {
          "name": "",
          "type": "bytes32[]"
        }
      ],
      "payable": false,
      "stateMutability": "view",
      "type": "function",
      "signature": "0x5eac2f0e"
    },
    {
      "constant": true,
      "inputs": [
        {
          "name": "_address",
          "type": "address"
        }
      ],
      "name": "isAssoPartner",
      "outputs": [
        {
          "name": "",
          "type": "bool"
        }
      ],
      "payable": false,
      "stateMutability": "view",
      "type": "function",
      "signature": "0xb1affcfd"
    },
    {
      "constant": true,
      "inputs": [
        {
          "name": "_address",
          "type": "address"
        }
      ],
      "name": "getAssoName",
      "outputs": [
        {
          "name": "",
          "type": "bytes32"
        }
      ],
      "payable": false,
      "stateMutability": "view",
      "type": "function",
      "signature": "0x11f7b854"
    },
    {
      "constant": true,
      "inputs": [],
      "name": "isDonationOpen",
      "outputs": [
        {
          "name": "",
          "type": "bool"
        }
      ],
      "payable": false,
      "stateMutability": "view",
      "type": "function",
      "signature": "0x33ccaffa"
    },
    {
      "constant": true,
      "inputs": [],
      "name": "getAllWordings",
      "outputs": [
        {
          "name": "",
          "type": "address[]"
        },
        {
          "name": "",
          "type": "address[]"
        },
        {
          "name": "",
          "type": "uint256[]"
        },
        {
          "name": "",
          "type": "bytes32[]"
        }
      ],
      "payable": false,
      "stateMutability": "view",
      "type": "function",
      "signature": "0xe0fcd9ff"
    },
    {
      "constant": true,
      "inputs": [
        {
          "name": "_address",
          "type": "address"
        }
      ],
      "name": "getPersonalWordings",
      "outputs": [
        {
          "name": "",
          "type": "address[]"
        },
        {
          "name": "",
          "type": "address[]"
        },
        {
          "name": "",
          "type": "uint256[]"
        },
        {
          "name": "",
          "type": "bytes32[]"
        }
      ],
      "payable": false,
      "stateMutability": "view",
      "type": "function",
      "signature": "0xcecb2a88"
    },
    {
      "constant": true,
      "inputs": [
        {
          "name": "_address",
          "type": "address"
        }
      ],
      "name": "getPersoInfoTransaction",
      "outputs": [
        {
          "name": "",
          "type": "uint256"
        },
        {
          "name": "",
          "type": "uint256"
        },
        {
          "name": "",
          "type": "uint256"
        },
        {
          "name": "",
          "type": "uint256"
        },
        {
          "name": "",
          "type": "uint256"
        }
      ],
      "payable": false,
      "stateMutability": "view",
      "type": "function",
      "signature": "0x04c6928c"
    },
    {
      "constant": true,
      "inputs": [],
      "name": "getAllInfoTransaction",
      "outputs": [
        {
          "name": "",
          "type": "uint256[]"
        },
        {
          "name": "",
          "type": "uint256[]"
        },
        {
          "name": "",
          "type": "uint256[]"
        },
        {
          "name": "",
          "type": "uint256[]"
        },
        {
          "name": "",
          "type": "uint256[]"
        },
        {
          "name": "",
          "type": "bytes32[]"
        }
      ],
      "payable": false,
      "stateMutability": "view",
      "type": "function",
      "signature": "0xabbf7a73"
    }
  ],
  "bytecode": "0x608060405234801561001057600080fd5b5073c4d446c6b924c431f89214319d5a3e6bb67e76276000806101000a81548173ffffffffffffffffffffffffffffffffffffffff021916908373ffffffffffffffffffffffffffffffffffffffff1602179055507f41535400000000000000000000000000000000000000000000000000000000006002819055507f41757265786961536f6369616c546f6b656e00000000000000000000000000006003819055506012600460006101000a81548160ff021916908360ff160217905550614e20600660006101000a81548163ffffffff021916908363ffffffff160217905550600460009054906101000a900460ff1660ff16600a0a600660009054906101000a900463ffffffff1663ffffffff1602600581905550600554600e60008060009054906101000a900473ffffffffffffffffffffffffffffffffffffffff1673ffffffffffffffffffffffffffffffffffffffff1673ffffffffffffffffffffffffffffffffffffffff168152602001908152602001600020819055506000809054906101000a900473ffffffffffffffffffffffffffffffffffffffff1673ffffffffffffffffffffffffffffffffffffffff16600073ffffffffffffffffffffffffffffffffffffffff167fddf252ad1be2c89b69c2b068fc378daa952ba7f163c4a11628f55a4df523b3ef6005546040518082815260200191505060405180910390a3600060076000808152602001908152602001600020600001819055506000809054906101000a900473ffffffffffffffffffffffffffffffffffffffff166007600080815260200190815260200160002060020160006101000a81548173ffffffffffffffffffffffffffffffffffffffff021916908373ffffffffffffffffffffffffffffffffffffffff16021790555060055460076000808152602001908152602001600020600301819055507f436f6e7472616374204372656174696f6e000000000000000000000000000000600760008081526020019081526020016000206004018190555060016009819055506000600860008060009054906101000a900473ffffffffffffffffffffffffffffffffffffffff1673ffffffffffffffffffffffffffffffffffffffff1673ffffffffffffffffffffffffffffffffffffffff1681526020019081526020016000206000808152602001908152602001600020600001819055506000809054906101000a900473ffffffffffffffffffffffffffffffffffffffff16600860008060009054906101000a900473ffffffffffffffffffffffffffffffffffffffff1673ffffffffffffffffffffffffffffffffffffffff1673ffffffffffffffffffffffffffffffffffffffff168152602001908152602001600020600080815260200190815260200160002060020160006101000a81548173ffffffffffffffffffffffffffffffffffffffff021916908373ffffffffffffffffffffffffffffffffffffffff160217905550600554600860008060009054906101000a900473ffffffffffffffffffffffffffffffffffffffff1673ffffffffffffffffffffffffffffffffffffffff1673ffffffffffffffffffffffffffffffffffffffff1681526020019081526020016000206000808152602001908152602001600020600301819055507f436f6e7472616374204372656174696f6e000000000000000000000000000000600860008060009054906101000a900473ffffffffffffffffffffffffffffffffffffffff1673ffffffffffffffffffffffffffffffffffffffff1673ffffffffffffffffffffffffffffffffffffffff1681526020019081526020016000206000808152602001908152602001600020600401819055506000809054906101000a900473ffffffffffffffffffffffffffffffffffffffff16600f60008060009054906101000a900473ffffffffffffffffffffffffffffffffffffffff1673ffffffffffffffffffffffffffffffffffffffff1673ffffffffffffffffffffffffffffffffffffffff16815260200190815260200160002060000160006101000a81548173ffffffffffffffffffffffffffffffffffffffff021916908373ffffffffffffffffffffffffffffffffffffffff1602179055507f41646d696e6973747261746f7200000000000000000000000000000000000000600f60008060009054906101000a900473ffffffffffffffffffffffffffffffffffffffff1673ffffffffffffffffffffffffffffffffffffffff1673ffffffffffffffffffffffffffffffffffffffff168152602001908152602001600020600101819055506004600f60008060009054906101000a900473ffffffffffffffffffffffffffffffffffffffff1673ffffffffffffffffffffffffffffffffffffffff1673ffffffffffffffffffffffffffffffffffffffff16815260200190815260200160002060020160006101000a81548160ff021916908360ff1602179055506001600f60008060009054906101000a900473ffffffffffffffffffffffffffffffffffffffff1673ffffffffffffffffffffffffffffffffffffffff1673ffffffffffffffffffffffffffffffffffffffff16815260200190815260200160002060020160016101000a81548160ff0219169083151502179055506001600f60008060009054906101000a900473ffffffffffffffffffffffffffffffffffffffff1673ffffffffffffffffffffffffffffffffffffffff1673ffffffffffffffffffffffffffffffffffffffff168152602001908152602001600020600301819055506001600f60008060009054906101000a900473ffffffffffffffffffffffffffffffffffffffff1673ffffffffffffffffffffffffffffffffffffffff1673ffffffffffffffffffffffffffffffffffffffff16815260200190815260200160002060050181905550600554600f60008060009054906101000a900473ffffffffffffffffffffffffffffffffffffffff1673ffffffffffffffffffffffffffffffffffffffff1673ffffffffffffffffffffffffffffffffffffffff16815260200190815260200160002060060181905550600a6000809054906101000a900473ffffffffffffffffffffffffffffffffffffffff1690806001815401808255809150509060018203906000526020600020016000909192909190916101000a81548173ffffffffffffffffffffffffffffffffffffffff021916908373ffffffffffffffffffffffffffffffffffffffff160217905550506001600b600082825401925050819055506000600660046101000a81548160ff021916908315150217905550615dab80620009af6000396000f3fe608060405260043610610288576000357c0100000000000000000000000000000000000000000000000000000000900463ffffffff16806304c6928c1461028d57806306fdde031461030e578063095ea7b314610339578063097a80b8146103ac57806311f7b8541461041f57806318160ddd146104845780631a76e209146104af5780631ad06393146105185780631c6c72b0146105845780631f1423b1146105af57806330e3fcad14610614578063313739a314610643578063313ce567146106ae57806332e639e4146106df57806333352d031461075257806333ccaffa146107b7578063378dc3dc146107e6578063387902281461081d5780633eaaf86b14610882578063401e3367146108ad57806340c10f191461094a57806352435bb8146109a557806353e18bdc146109f857806357cfeeee14610a6157806359abef9a14610ade5780635eac2f0e14610b0d5780635fd4b08a14610bc157806360aa8c7314610c2657806361a48dcf14610c555780636f48507514610cba57806370a0823114610d1f5780637112ba1114610d8457806377f3622514610e0457806379ba509714610f005780638da5cb5b14610f1757806395d89b4114610f6e5780639ca1221c14610f995780639dc29fac1461100c5780639eab52531461107f578063abbf7a73146110eb578063ae1de61c146112bf578063b1affcfd146112ea578063b93f9b0a14611353578063cecb2a88146113ce578063d3c493711461154c578063d4ee1d9014611577578063d6eb5782146115ce578063d9543bb6146115f9578063dd62ed3e146116ad578063e0fcd9ff14611732578063eed414b814611876578063f09d087414611a85578063f2fde38b14611afb578063fb10882014611b4c575b600080fd5b34801561029957600080fd5b506102dc600480360360208110156102b057600080fd5b81019080803573ffffffffffffffffffffffffffffffffffffffff169060200190929190505050611bb5565b604051808681526020018581526020018481526020018381526020018281526020019550505050505060405180910390f35b34801561031a57600080fd5b50610323611c1a565b6040518082815260200191505060405180910390f35b34801561034557600080fd5b506103926004803603604081101561035c57600080fd5b81019080803573ffffffffffffffffffffffffffffffffffffffff16906020019092919080359060200190929190505050611c20565b604051808215151515815260200191505060405180910390f35b3480156103b857600080fd5b50610405600480360360408110156103cf57600080fd5b81019080803573ffffffffffffffffffffffffffffffffffffffff16906020019092919080359060200190929190505050611c37565b604051808215151515815260200191505060405180910390f35b34801561042b57600080fd5b5061046e6004803603602081101561044257600080fd5b81019080803573ffffffffffffffffffffffffffffffffffffffff169060200190929190505050611e97565b6040518082815260200191505060405180910390f35b34801561049057600080fd5b50610499611ee3565b6040518082815260200191505060405180910390f35b3480156104bb57600080fd5b506104fe600480360360208110156104d257600080fd5b81019080803573ffffffffffffffffffffffffffffffffffffffff169060200190929190505050611eed565b604051808215151515815260200191505060405180910390f35b34801561052457600080fd5b5061052d612185565b6040518080602001828103825283818151815260200191508051906020019060200280838360005b83811015610570578082015181840152602081019050610555565b505050509050019250505060405180910390f35b34801561059057600080fd5b50610599612213565b6040518082815260200191505060405180910390f35b3480156105bb57600080fd5b506105fe600480360360208110156105d257600080fd5b81019080803573ffffffffffffffffffffffffffffffffffffffff169060200190929190505050612219565b6040518082815260200191505060405180910390f35b34801561062057600080fd5b50610629612265565b604051808215151515815260200191505060405180910390f35b34801561064f57600080fd5b506106926004803603602081101561066657600080fd5b81019080803573ffffffffffffffffffffffffffffffffffffffff169060200190929190505050612278565b604051808260ff1660ff16815260200191505060405180910390f35b3480156106ba57600080fd5b506106c36122d1565b604051808260ff1660ff16815260200191505060405180910390f35b3480156106eb57600080fd5b506107386004803603604081101561070257600080fd5b81019080803573ffffffffffffffffffffffffffffffffffffffff169060200190929190803590602001909291905050506122e4565b604051808215151515815260200191505060405180910390f35b34801561075e57600080fd5b506107a16004803603602081101561077557600080fd5b81019080803573ffffffffffffffffffffffffffffffffffffffff169060200190929190505050612408565b6040518082815260200191505060405180910390f35b3480156107c357600080fd5b506107cc612454565b604051808215151515815260200191505060405180910390f35b3480156107f257600080fd5b506107fb61246b565b604051808263ffffffff1663ffffffff16815260200191505060405180910390f35b34801561082957600080fd5b5061086c6004803603602081101561084057600080fd5b81019080803573ffffffffffffffffffffffffffffffffffffffff169060200190929190505050612481565b6040518082815260200191505060405180910390f35b34801561088e57600080fd5b506108976124cd565b6040518082815260200191505060405180910390f35b3480156108b957600080fd5b50610930600480360360808110156108d057600080fd5b81019080803573ffffffffffffffffffffffffffffffffffffffff169060200190929190803573ffffffffffffffffffffffffffffffffffffffff16906020019092919080359060200190929190803590602001909291905050506124d3565b604051808215151515815260200191505060405180910390f35b34801561095657600080fd5b506109a36004803603604081101561096d57600080fd5b81019080803573ffffffffffffffffffffffffffffffffffffffff16906020019092919080359060200190929190505050612548565b005b3480156109b157600080fd5b506109de600480360360208110156109c857600080fd5b8101908080359060200190929190505050612a84565b604051808215151515815260200191505060405180910390f35b348015610a0457600080fd5b50610a4760048036036020811015610a1b57600080fd5b81019080803573ffffffffffffffffffffffffffffffffffffffff169060200190929190505050612c14565b604051808215151515815260200191505060405180910390f35b348015610a6d57600080fd5b50610ac460048036036060811015610a8457600080fd5b81019080803573ffffffffffffffffffffffffffffffffffffffff1690602001909291908035906020019092919080359060200190929190505050612eac565b604051808215151515815260200191505060405180910390f35b348015610aea57600080fd5b50610af3612f27565b604051808215151515815260200191505060405180910390f35b348015610b1957600080fd5b50610b22613025565b604051808060200180602001838103835285818151815260200191508051906020019060200280838360005b83811015610b69578082015181840152602081019050610b4e565b50505050905001838103825284818151815260200191508051906020019060200280838360005b83811015610bab578082015181840152602081019050610b90565b5050505090500194505050505060405180910390f35b348015610bcd57600080fd5b50610c1060048036036020811015610be457600080fd5b81019080803573ffffffffffffffffffffffffffffffffffffffff16906020019092919050505061316e565b6040518082815260200191505060405180910390f35b348015610c3257600080fd5b50610c3b6131ba565b604051808215151515815260200191505060405180910390f35b348015610c6157600080fd5b50610ca460048036036020811015610c7857600080fd5b81019080803573ffffffffffffffffffffffffffffffffffffffff1690602001909291905050506132b8565b6040518082815260200191505060405180910390f35b348015610cc657600080fd5b50610d0960048036036020811015610cdd57600080fd5b81019080803573ffffffffffffffffffffffffffffffffffffffff169060200190929190505050613304565b6040518082815260200191505060405180910390f35b348015610d2b57600080fd5b50610d6e60048036036020811015610d4257600080fd5b81019080803573ffffffffffffffffffffffffffffffffffffffff169060200190929190505050613350565b6040518082815260200191505060405180910390f35b348015610d9057600080fd5b50610dea60048036036060811015610da757600080fd5b81019080803573ffffffffffffffffffffffffffffffffffffffff16906020019092919080359060200190929190803560ff169060200190929190505050613399565b604051808215151515815260200191505060405180910390f35b348015610e1057600080fd5b50610e196136eb565b60405180806020018060200180602001848103845287818151815260200191508051906020019060200280838360005b83811015610e64578082015181840152602081019050610e49565b50505050905001848103835286818151815260200191508051906020019060200280838360005b83811015610ea6578082015181840152602081019050610e8b565b50505050905001848103825285818151815260200191508051906020019060200280838360005b83811015610ee8578082015181840152602081019050610ecd565b50505050905001965050505050505060405180910390f35b348015610f0c57600080fd5b50610f156138ce565b005b348015610f2357600080fd5b50610f2c613a6d565b604051808273ffffffffffffffffffffffffffffffffffffffff1673ffffffffffffffffffffffffffffffffffffffff16815260200191505060405180910390f35b348015610f7a57600080fd5b50610f83613a92565b6040518082815260200191505060405180910390f35b348015610fa557600080fd5b50610ff260048036036040811015610fbc57600080fd5b81019080803573ffffffffffffffffffffffffffffffffffffffff16906020019092919080359060200190929190505050613a98565b604051808215151515815260200191505060405180910390f35b34801561101857600080fd5b506110656004803603604081101561102f57600080fd5b81019080803573ffffffffffffffffffffffffffffffffffffffff16906020019092919080359060200190929190505050613b78565b604051808215151515815260200191505060405180910390f35b34801561108b57600080fd5b5061109461404d565b6040518080602001828103825283818151815260200191508051906020019060200280838360005b838110156110d75780820151818401526020810190506110bc565b505050509050019250505060405180910390f35b3480156110f757600080fd5b506111006140db565b6040518080602001806020018060200180602001806020018060200187810387528d818151815260200191508051906020019060200280838360005b8381101561115757808201518184015260208101905061113c565b5050505090500187810386528c818151815260200191508051906020019060200280838360005b8381101561119957808201518184015260208101905061117e565b5050505090500187810385528b818151815260200191508051906020019060200280838360005b838110156111db5780820151818401526020810190506111c0565b5050505090500187810384528a818151815260200191508051906020019060200280838360005b8381101561121d578082015181840152602081019050611202565b50505050905001878103835289818151815260200191508051906020019060200280838360005b8381101561125f578082015181840152602081019050611244565b50505050905001878103825288818151815260200191508051906020019060200280838360005b838110156112a1578082015181840152602081019050611286565b505050509050019c5050505050505050505050505060405180910390f35b3480156112cb57600080fd5b506112d461449a565b6040518082815260200191505060405180910390f35b3480156112f657600080fd5b506113396004803603602081101561130d57600080fd5b81019080803573ffffffffffffffffffffffffffffffffffffffff1690602001909291905050506144a4565b604051808215151515815260200191505060405180910390f35b34801561135f57600080fd5b5061138c6004803603602081101561137657600080fd5b81019080803590602001909291905050506144fd565b604051808273ffffffffffffffffffffffffffffffffffffffff1673ffffffffffffffffffffffffffffffffffffffff16815260200191505060405180910390f35b3480156113da57600080fd5b5061141d600480360360208110156113f157600080fd5b81019080803573ffffffffffffffffffffffffffffffffffffffff169060200190929190505050614540565b6040518080602001806020018060200180602001858103855289818151815260200191508051906020019060200280838360005b8381101561146c578082015181840152602081019050611451565b50505050905001858103845288818151815260200191508051906020019060200280838360005b838110156114ae578082015181840152602081019050611493565b50505050905001858103835287818151815260200191508051906020019060200280838360005b838110156114f05780820151818401526020810190506114d5565b50505050905001858103825286818151815260200191508051906020019060200280838360005b83811015611532578082015181840152602081019050611517565b505050509050019850505050505050505060405180910390f35b34801561155857600080fd5b506115616148ed565b6040518082815260200191505060405180910390f35b34801561158357600080fd5b5061158c6148f3565b604051808273ffffffffffffffffffffffffffffffffffffffff1673ffffffffffffffffffffffffffffffffffffffff16815260200191505060405180910390f35b3480156115da57600080fd5b506115e3614919565b6040518082815260200191505060405180910390f35b34801561160557600080fd5b5061160e61491f565b604051808060200180602001838103835285818151815260200191508051906020019060200280838360005b8381101561165557808201518184015260208101905061163a565b50505050905001838103825284818151815260200191508051906020019060200280838360005b8381101561169757808201518184015260208101905061167c565b5050505090500194505050505060405180910390f35b3480156116b957600080fd5b5061171c600480360360408110156116d057600080fd5b81019080803573ffffffffffffffffffffffffffffffffffffffff169060200190929190803573ffffffffffffffffffffffffffffffffffffffff169060200190929190505050614a68565b6040518082815260200191505060405180910390f35b34801561173e57600080fd5b50611747614aef565b6040518080602001806020018060200180602001858103855289818151815260200191508051906020019060200280838360005b8381101561179657808201518184015260208101905061177b565b50505050905001858103845288818151815260200191508051906020019060200280838360005b838110156117d85780820151818401526020810190506117bd565b50505050905001858103835287818151815260200191508051906020019060200280838360005b8381101561181a5780820151818401526020810190506117ff565b50505050905001858103825286818151815260200191508051906020019060200280838360005b8381101561185c578082015181840152602081019050611841565b505050509050019850505050505050505060405180910390f35b34801561188257600080fd5b50611a6b6004803603608081101561189957600080fd5b81019080803590602001906401000000008111156118b657600080fd5b8201836020820111156118c857600080fd5b803590602001918460208302840111640100000000831117156118ea57600080fd5b919080806020026020016040519081016040528093929190818152602001838360200280828437600081840152601f19601f8201169050808301925050505050505091929192908035906020019064010000000081111561194a57600080fd5b82018360208201111561195c57600080fd5b8035906020019184602083028401116401000000008311171561197e57600080fd5b919080806020026020016040519081016040528093929190818152602001838360200280828437600081840152601f19601f820116905080830192505050505050509192919290803590602001906401000000008111156119de57600080fd5b8201836020820111156119f057600080fd5b80359060200191846020830284011164010000000083111715611a1257600080fd5b919080806020026020016040519081016040528093929190818152602001838360200280828437600081840152601f19601f82011690508083019250505050505050919291929080359060200190929190505050614d69565b604051808215151515815260200191505060405180910390f35b348015611a9157600080fd5b50611ae160048036036040811015611aa857600080fd5b81019080803573ffffffffffffffffffffffffffffffffffffffff169060200190929190803560ff169060200190929190505050614e9c565b604051808215151515815260200191505060405180910390f35b348015611b0757600080fd5b50611b4a60048036036020811015611b1e57600080fd5b81019080803573ffffffffffffffffffffffffffffffffffffffff169060200190929190505050614fbb565b005b348015611b5857600080fd5b50611b9b60048036036020811015611b6f57600080fd5b81019080803573ffffffffffffffffffffffffffffffffffffffff16906020019092919050505061505a565b604051808215151515815260200191505060405180910390f35b600080600080600080611bc7876132b8565b90506000611bd488613304565b90506000611be189612408565b90506000611bee8a612481565b90506000611bfb8b612219565b9050848484848499509950995099509950505050505091939590929450565b60035481565b6000611c2d3384846150b3565b6001905092915050565b60008060009054906101000a900473ffffffffffffffffffffffffffffffffffffffff1673ffffffffffffffffffffffffffffffffffffffff163373ffffffffffffffffffffffffffffffffffffffff161480611ce657506003600f60003373ffffffffffffffffffffffffffffffffffffffff1673ffffffffffffffffffffffffffffffffffffffff16815260200190815260200160002060020160009054906101000a900460ff1660ff16145b1515611cf157600080fd5b81601060008573ffffffffffffffffffffffffffffffffffffffff1673ffffffffffffffffffffffffffffffffffffffff1681526020019081526020016000206001018190555082601060008573ffffffffffffffffffffffffffffffffffffffff1673ffffffffffffffffffffffffffffffffffffffff16815260200190815260200160002060000160006101000a81548173ffffffffffffffffffffffffffffffffffffffff021916908373ffffffffffffffffffffffffffffffffffffffff1602179055506001601060008573ffffffffffffffffffffffffffffffffffffffff1673ffffffffffffffffffffffffffffffffffffffff16815260200190815260200160002060020160006101000a81548160ff021916908315150217905550600c8390806001815401808255809150509060018203906000526020600020016000909192909190916101000a81548173ffffffffffffffffffffffffffffffffffffffff021916908373ffffffffffffffffffffffffffffffffffffffff16021790555050611e87600d5460016152e8565b600d819055506001905092915050565b6000601060008373ffffffffffffffffffffffffffffffffffffffff1673ffffffffffffffffffffffffffffffffffffffff168152602001908152602001600020600101549050919050565b6000600554905090565b60008060009054906101000a900473ffffffffffffffffffffffffffffffffffffffff1673ffffffffffffffffffffffffffffffffffffffff163373ffffffffffffffffffffffffffffffffffffffff161480611f9c57506003600f60003373ffffffffffffffffffffffffffffffffffffffff1673ffffffffffffffffffffffffffffffffffffffff16815260200190815260200160002060020160009054906101000a900460ff1660ff16145b1515611fa757600080fd5b6000601060008473ffffffffffffffffffffffffffffffffffffffff1673ffffffffffffffffffffffffffffffffffffffff16815260200190815260200160002060020160006101000a81548160ff02191690831515021790555060008090505b600d5481101561217b57600c8181548110151561202157fe5b9060005260206000200160009054906101000a900473ffffffffffffffffffffffffffffffffffffffff1673ffffffffffffffffffffffffffffffffffffffff168373ffffffffffffffffffffffffffffffffffffffff16141561216e57600c6001600d540381548110151561209357fe5b9060005260206000200160009054906101000a900473ffffffffffffffffffffffffffffffffffffffff16600c828154811015156120cd57fe5b9060005260206000200160006101000a81548173ffffffffffffffffffffffffffffffffffffffff021916908373ffffffffffffffffffffffffffffffffffffffff160217905550600c6001600d540381548110151561212957fe5b9060005260206000200160006101000a81549073ffffffffffffffffffffffffffffffffffffffff0219169055612163600d546001615304565b600d8190555061217b565b8080600101915050612008565b5060019050919050565b6060600c80548060200260200160405190810160405280929190818152602001828054801561220957602002820191906000526020600020905b8160009054906101000a900473ffffffffffffffffffffffffffffffffffffffff1673ffffffffffffffffffffffffffffffffffffffff16815260200190600101908083116121bf575b5050505050905090565b600d5481565b6000600f60008373ffffffffffffffffffffffffffffffffffffffff1673ffffffffffffffffffffffffffffffffffffffff168152602001908152602001600020600501549050919050565b600660049054906101000a900460ff1681565b6000600f60008373ffffffffffffffffffffffffffffffffffffffff1673ffffffffffffffffffffffffffffffffffffffff16815260200190815260200160002060020160009054906101000a900460ff169050919050565b600460009054906101000a900460ff1681565b600060011515600f60003373ffffffffffffffffffffffffffffffffffffffff1673ffffffffffffffffffffffffffffffffffffffff16815260200190815260200160002060020160019054906101000a900460ff16151514151561234857600080fd5b60011515600660049054906101000a900460ff16151514151561236a57600080fd5b60011515601060008573ffffffffffffffffffffffffffffffffffffffff1673ffffffffffffffffffffffffffffffffffffffff16815260200190815260200160002060020160009054906101000a900460ff1615151415156123cc57600080fd5b60007f53656e64696e6720746f204173736f63696174696f6e0000000000000000000090506123fd33858584615320565b600191505092915050565b6000600f60008373ffffffffffffffffffffffffffffffffffffffff1673ffffffffffffffffffffffffffffffffffffffff168152602001908152602001600020600601549050919050565b6000600660049054906101000a900460ff16905090565b600660009054906101000a900463ffffffff1681565b6000600f60008373ffffffffffffffffffffffffffffffffffffffff1673ffffffffffffffffffffffffffffffffffffffff168152602001908152602001600020600401549050919050565b60055481565b60008060009054906101000a900473ffffffffffffffffffffffffffffffffffffffff1673ffffffffffffffffffffffffffffffffffffffff163373ffffffffffffffffffffffffffffffffffffffff1614151561253057600080fd5b61253c85858585615320565b60019050949350505050565b6000809054906101000a900473ffffffffffffffffffffffffffffffffffffffff1673ffffffffffffffffffffffffffffffffffffffff163373ffffffffffffffffffffffffffffffffffffffff161415156125a357600080fd5b600073ffffffffffffffffffffffffffffffffffffffff168273ffffffffffffffffffffffffffffffffffffffff1614151515612648576040517f08c379a000000000000000000000000000000000000000000000000000000000815260040180806020018281038252600b8152602001807f616464726573732030783000000000000000000000000000000000000000000081525060200191505060405180910390fd5b612654600554826152e8565b6005819055506126a3600e60008473ffffffffffffffffffffffffffffffffffffffff1673ffffffffffffffffffffffffffffffffffffffff16815260200190815260200160002054826152e8565b600e60008473ffffffffffffffffffffffffffffffffffffffff1673ffffffffffffffffffffffffffffffffffffffff168152602001908152602001600020819055506126ee615d20565b60095481600001818152505082816040019073ffffffffffffffffffffffffffffffffffffffff16908173ffffffffffffffffffffffffffffffffffffffff1681525050818160600181815250507f546f6b656e204372656174696f6e2046726f6d2041646d696e00000000000000816080018181525050806007600060095481526020019081526020016000206000820151816000015560208201518160010160006101000a81548173ffffffffffffffffffffffffffffffffffffffff021916908373ffffffffffffffffffffffffffffffffffffffff16021790555060408201518160020160006101000a81548173ffffffffffffffffffffffffffffffffffffffff021916908373ffffffffffffffffffffffffffffffffffffffff160217905550606082015181600301556080820151816004015590505061283860095460016152e8565b6009819055506000600f60008573ffffffffffffffffffffffffffffffffffffffff1673ffffffffffffffffffffffffffffffffffffffff16815260200190815260200160002060030154905081600860008673ffffffffffffffffffffffffffffffffffffffff1673ffffffffffffffffffffffffffffffffffffffff16815260200190815260200160002060008381526020019081526020016000206000820151816000015560208201518160010160006101000a81548173ffffffffffffffffffffffffffffffffffffffff021916908373ffffffffffffffffffffffffffffffffffffffff16021790555060408201518160020160006101000a81548173ffffffffffffffffffffffffffffffffffffffff021916908373ffffffffffffffffffffffffffffffffffffffff16021790555060608201518160030155608082015181600401559050506129d2600f60008673ffffffffffffffffffffffffffffffffffffffff1673ffffffffffffffffffffffffffffffffffffffff1681526020019081526020016000206003015460016152e8565b600f60008673ffffffffffffffffffffffffffffffffffffffff1673ffffffffffffffffffffffffffffffffffffffff168152602001908152602001600020600301819055508373ffffffffffffffffffffffffffffffffffffffff16600073ffffffffffffffffffffffffffffffffffffffff167fddf252ad1be2c89b69c2b068fc378daa952ba7f163c4a11628f55a4df523b3ef856040518082815260200191505060405180910390a350505050565b60008060009054906101000a900473ffffffffffffffffffffffffffffffffffffffff1673ffffffffffffffffffffffffffffffffffffffff163373ffffffffffffffffffffffffffffffffffffffff16141515612ae157600080fd5b612aed82600b54615cef565b600e60008060009054906101000a900473ffffffffffffffffffffffffffffffffffffffff1673ffffffffffffffffffffffffffffffffffffffff1673ffffffffffffffffffffffffffffffffffffffff1681526020019081526020016000205410151515612b5b57600080fd5b60008090505b600b54811015612c0a576000600a82815481101515612b7c57fe5b9060005260206000200160009054906101000a900473ffffffffffffffffffffffffffffffffffffffff16905060007f696e697469616c20646f6e6174696f6e000000000000000000000000000000009050612bfb6000809054906101000a900473ffffffffffffffffffffffffffffffffffffffff16838784615320565b50508080600101915050612b61565b5060019050919050565b60008060009054906101000a900473ffffffffffffffffffffffffffffffffffffffff1673ffffffffffffffffffffffffffffffffffffffff163373ffffffffffffffffffffffffffffffffffffffff161480612cc357506001600f60003373ffffffffffffffffffffffffffffffffffffffff1673ffffffffffffffffffffffffffffffffffffffff16815260200190815260200160002060020160009054906101000a900460ff1660ff16115b1515612cce57600080fd5b6000600f60008473ffffffffffffffffffffffffffffffffffffffff1673ffffffffffffffffffffffffffffffffffffffff16815260200190815260200160002060020160016101000a81548160ff02191690831515021790555060008090505b600b54811015612ea257600a81815481101515612d4857fe5b9060005260206000200160009054906101000a900473ffffffffffffffffffffffffffffffffffffffff1673ffffffffffffffffffffffffffffffffffffffff168373ffffffffffffffffffffffffffffffffffffffff161415612e9557600a6001600b5403815481101515612dba57fe5b9060005260206000200160009054906101000a900473ffffffffffffffffffffffffffffffffffffffff16600a82815481101515612df457fe5b9060005260206000200160006101000a81548173ffffffffffffffffffffffffffffffffffffffff021916908373ffffffffffffffffffffffffffffffffffffffff160217905550600a6001600b5403815481101515612e5057fe5b9060005260206000200160006101000a81549073ffffffffffffffffffffffffffffffffffffffff0219169055612e8a600b546001615304565b600b81905550612ea2565b8080600101915050612d2f565b5060019050919050565b600060011515600f60003373ffffffffffffffffffffffffffffffffffffffff1673ffffffffffffffffffffffffffffffffffffffff16815260200190815260200160002060020160019054906101000a900460ff161515141515612f1057600080fd5b612f1c33858585615320565b600190509392505050565b60008060009054906101000a900473ffffffffffffffffffffffffffffffffffffffff1673ffffffffffffffffffffffffffffffffffffffff163373ffffffffffffffffffffffffffffffffffffffff161480612fd657506003600f60003373ffffffffffffffffffffffffffffffffffffffff1673ffffffffffffffffffffffffffffffffffffffff16815260200190815260200160002060020160009054906101000a900460ff1660ff16145b1515612fe157600080fd5b60011515600660049054906101000a900460ff16151514151561300357600080fd5b6000600660046101000a81548160ff0219169083151502179055506001905090565b6060806060600d5460405190808252806020026020018201604052801561305b5781602001602082028038833980820191505090505b50905060008090505b600d548110156130d9576130b0600c8281548110151561308057fe5b9060005260206000200160009054906101000a900473ffffffffffffffffffffffffffffffffffffffff16611e97565b82828151811015156130be57fe5b90602001906020020181815250508080600101915050613064565b50600c818180548060200260200160405190810160405280929190818152602001828054801561315e57602002820191906000526020600020905b8160009054906101000a900473ffffffffffffffffffffffffffffffffffffffff1673ffffffffffffffffffffffffffffffffffffffff1681526020019060010190808311613114575b5050505050915092509250509091565b6000600f60008373ffffffffffffffffffffffffffffffffffffffff1673ffffffffffffffffffffffffffffffffffffffff168152602001908152602001600020600101549050919050565b60008060009054906101000a900473ffffffffffffffffffffffffffffffffffffffff1673ffffffffffffffffffffffffffffffffffffffff163373ffffffffffffffffffffffffffffffffffffffff16148061326957506003600f60003373ffffffffffffffffffffffffffffffffffffffff1673ffffffffffffffffffffffffffffffffffffffff16815260200190815260200160002060020160009054906101000a900460ff1660ff16145b151561327457600080fd5b60001515600660049054906101000a900460ff16151514151561329657600080fd5b6001600660046101000a81548160ff0219169083151502179055506001905090565b6000600f60008373ffffffffffffffffffffffffffffffffffffffff1673ffffffffffffffffffffffffffffffffffffffff168152602001908152602001600020600301549050919050565b6000600f60008373ffffffffffffffffffffffffffffffffffffffff1673ffffffffffffffffffffffffffffffffffffffff168152602001908152602001600020600701549050919050565b6000600e60008373ffffffffffffffffffffffffffffffffffffffff1673ffffffffffffffffffffffffffffffffffffffff168152602001908152602001600020549050919050565b60008060009054906101000a900473ffffffffffffffffffffffffffffffffffffffff1673ffffffffffffffffffffffffffffffffffffffff163373ffffffffffffffffffffffffffffffffffffffff16148061344857506001600f60003373ffffffffffffffffffffffffffffffffffffffff1673ffffffffffffffffffffffffffffffffffffffff16815260200190815260200160002060020160009054906101000a900460ff1660ff16115b151561345357600080fd5b83600f60008673ffffffffffffffffffffffffffffffffffffffff1673ffffffffffffffffffffffffffffffffffffffff16815260200190815260200160002060000160006101000a81548173ffffffffffffffffffffffffffffffffffffffff021916908373ffffffffffffffffffffffffffffffffffffffff16021790555082600f60008673ffffffffffffffffffffffffffffffffffffffff1673ffffffffffffffffffffffffffffffffffffffff1681526020019081526020016000206001018190555081600f60008673ffffffffffffffffffffffffffffffffffffffff1673ffffffffffffffffffffffffffffffffffffffff16815260200190815260200160002060020160006101000a81548160ff021916908360ff1602179055506001600f60008673ffffffffffffffffffffffffffffffffffffffff1673ffffffffffffffffffffffffffffffffffffffff16815260200190815260200160002060020160016101000a81548160ff02191690831515021790555060008090505b600b5481101561366557600a818154811015156135f057fe5b9060005260206000200160009054906101000a900473ffffffffffffffffffffffffffffffffffffffff1673ffffffffffffffffffffffffffffffffffffffff168573ffffffffffffffffffffffffffffffffffffffff1614156136585760019150506136e4565b80806001019150506135d7565b50600a8490806001815401808255809150509060018203906000526020600020016000909192909190916101000a81548173ffffffffffffffffffffffffffffffffffffffff021916908373ffffffffffffffffffffffffffffffffffffffff160217905550506136d9600b5460016152e8565b600b81905550600190505b9392505050565b606080606080600b546040519080825280602002602001820160405280156137225781602001602082028038833980820191505090505b5090506060600b546040519080825280602002602001820160405280156137585781602001602082028038833980820191505090505b50905060008090505b600b54811015613834576137ad600a8281548110151561377d57fe5b9060005260206000200160009054906101000a900473ffffffffffffffffffffffffffffffffffffffff1661316e565b83828151811015156137bb57fe5b906020019060200201818152505061380b600a828154811015156137db57fe5b9060005260206000200160009054906101000a900473ffffffffffffffffffffffffffffffffffffffff16613350565b828281518110151561381957fe5b90602001906020020181815250508080600101915050613761565b50600a8282828054806020026020016040519081016040528092919081815260200182805480156138ba57602002820191906000526020600020905b8160009054906101000a900473ffffffffffffffffffffffffffffffffffffffff1673ffffffffffffffffffffffffffffffffffffffff1681526020019060010190808311613870575b505050505092509450945094505050909192565b600160009054906101000a900473ffffffffffffffffffffffffffffffffffffffff1673ffffffffffffffffffffffffffffffffffffffff163373ffffffffffffffffffffffffffffffffffffffff1614151561392a57600080fd5b600160009054906101000a900473ffffffffffffffffffffffffffffffffffffffff1673ffffffffffffffffffffffffffffffffffffffff166000809054906101000a900473ffffffffffffffffffffffffffffffffffffffff1673ffffffffffffffffffffffffffffffffffffffff167f8be0079c531659141344cd1fd0a4f28419497f9722a3daafe3b4186f6b6457e060405160405180910390a3600160009054906101000a900473ffffffffffffffffffffffffffffffffffffffff166000806101000a81548173ffffffffffffffffffffffffffffffffffffffff021916908373ffffffffffffffffffffffffffffffffffffffff1602179055506000600160006101000a81548173ffffffffffffffffffffffffffffffffffffffff021916908373ffffffffffffffffffffffffffffffffffffffff160217905550565b6000809054906101000a900473ffffffffffffffffffffffffffffffffffffffff1681565b60025481565b60008060009054906101000a900473ffffffffffffffffffffffffffffffffffffffff1673ffffffffffffffffffffffffffffffffffffffff163373ffffffffffffffffffffffffffffffffffffffff161480613b2057503373ffffffffffffffffffffffffffffffffffffffff168373ffffffffffffffffffffffffffffffffffffffff16145b1515613b2b57600080fd5b81600f60008573ffffffffffffffffffffffffffffffffffffffff1673ffffffffffffffffffffffffffffffffffffffff1681526020019081526020016000206001018190555092915050565b60008060009054906101000a900473ffffffffffffffffffffffffffffffffffffffff1673ffffffffffffffffffffffffffffffffffffffff163373ffffffffffffffffffffffffffffffffffffffff16141515613bd557600080fd5b81600e60008573ffffffffffffffffffffffffffffffffffffffff1673ffffffffffffffffffffffffffffffffffffffff1681526020019081526020016000205410151515613c2357600080fd5b613c6c600e60008573ffffffffffffffffffffffffffffffffffffffff1673ffffffffffffffffffffffffffffffffffffffff1681526020019081526020016000205483615304565b600e60008573ffffffffffffffffffffffffffffffffffffffff1673ffffffffffffffffffffffffffffffffffffffff16815260200190815260200160002081905550613cbb60055483615304565b600581905550613cc9615d20565b60095481600001818152505083816040019073ffffffffffffffffffffffffffffffffffffffff16908173ffffffffffffffffffffffffffffffffffffffff1681525050828160600181815250507f546f6b656e205375707072657373696f6e2046726f6d2041646d696e00000000816080018181525050806007600060095481526020019081526020016000206000820151816000015560208201518160010160006101000a81548173ffffffffffffffffffffffffffffffffffffffff021916908373ffffffffffffffffffffffffffffffffffffffff16021790555060408201518160020160006101000a81548173ffffffffffffffffffffffffffffffffffffffff021916908373ffffffffffffffffffffffffffffffffffffffff1602179055506060820151816003015560808201518160040155905050613e1360095460016152e8565b6009819055506000600f60008673ffffffffffffffffffffffffffffffffffffffff1673ffffffffffffffffffffffffffffffffffffffff16815260200190815260200160002060030154905081600860008773ffffffffffffffffffffffffffffffffffffffff1673ffffffffffffffffffffffffffffffffffffffff16815260200190815260200160002060008381526020019081526020016000206000820151816000015560208201518160010160006101000a81548173ffffffffffffffffffffffffffffffffffffffff021916908373ffffffffffffffffffffffffffffffffffffffff16021790555060408201518160020160006101000a81548173ffffffffffffffffffffffffffffffffffffffff021916908373ffffffffffffffffffffffffffffffffffffffff1602179055506060820151816003015560808201518160040155905050613fad600f60008773ffffffffffffffffffffffffffffffffffffffff1673ffffffffffffffffffffffffffffffffffffffff1681526020019081526020016000206003015460016152e8565b600f60008773ffffffffffffffffffffffffffffffffffffffff1673ffffffffffffffffffffffffffffffffffffffff168152602001908152602001600020600301819055503373ffffffffffffffffffffffffffffffffffffffff167fcc16f5dbb4873280815c1ee09dbd06736cffcc184412cf7a71a0fdb75d397ca5856040518082815260200191505060405180910390a260019250505092915050565b6060600a8054806020026020016040519081016040528092919081815260200182805480156140d157602002820191906000526020600020905b8160009054906101000a900473ffffffffffffffffffffffffffffffffffffffff1673ffffffffffffffffffffffffffffffffffffffff1681526020019060010190808311614087575b5050505050905090565b6060806060806060806060600b546040519080825280602002602001820160405280156141175781602001602082028038833980820191505090505b5090506060600b5460405190808252806020026020018201604052801561414d5781602001602082028038833980820191505090505b5090506060600b546040519080825280602002602001820160405280156141835781602001602082028038833980820191505090505b5090506060600b546040519080825280602002602001820160405280156141b95781602001602082028038833980820191505090505b5090506060600b546040519080825280602002602001820160405280156141ef5781602001602082028038833980820191505090505b5090506060600b546040519080825280602002602001820160405280156142255781602001602082028038833980820191505090505b50905060008090505b600b548110156144795761427a600a8281548110151561424a57fe5b9060005260206000200160009054906101000a900473ffffffffffffffffffffffffffffffffffffffff166132b8565b878281518110151561428857fe5b90602001906020020181815250506142d8600a828154811015156142a857fe5b9060005260206000200160009054906101000a900473ffffffffffffffffffffffffffffffffffffffff16612481565b86828151811015156142e657fe5b9060200190602002018181525050614336600a8281548110151561430657fe5b9060005260206000200160009054906101000a900473ffffffffffffffffffffffffffffffffffffffff16612408565b858281518110151561434457fe5b9060200190602002018181525050614394600a8281548110151561436457fe5b9060005260206000200160009054906101000a900473ffffffffffffffffffffffffffffffffffffffff16613304565b84828151811015156143a257fe5b90602001906020020181815250506143f2600a828154811015156143c257fe5b9060005260206000200160009054906101000a900473ffffffffffffffffffffffffffffffffffffffff16612219565b838281518110151561440057fe5b9060200190602002018181525050614450600a8281548110151561442057fe5b9060005260206000200160009054906101000a900473ffffffffffffffffffffffffffffffffffffffff1661316e565b828281518110151561445e57fe5b9060200190602002018181525050808060010191505061422e565b508585858585859b509b509b509b509b509b50505050505050909192939495565b6000600d54905090565b6000601060008373ffffffffffffffffffffffffffffffffffffffff1673ffffffffffffffffffffffffffffffffffffffff16815260200190815260200160002060020160009054906101000a900460ff169050919050565b6000600a8281548110151561450e57fe5b9060005260206000200160009054906101000a900473ffffffffffffffffffffffffffffffffffffffff169050919050565b6060806060806000600f60008773ffffffffffffffffffffffffffffffffffffffff1673ffffffffffffffffffffffffffffffffffffffff1681526020019081526020016000206003015490506060816040519080825280602002602001820160405280156145be5781602001602082028038833980820191505090505b5090506060826040519080825280602002602001820160405280156145f25781602001602082028038833980820191505090505b5090506060836040519080825280602002602001820160405280156146265781602001602082028038833980820191505090505b50905060608460405190808252806020026020018201604052801561465a5781602001602082028038833980820191505090505b50905060008090505b858110156148d457600860008c73ffffffffffffffffffffffffffffffffffffffff1673ffffffffffffffffffffffffffffffffffffffff168152602001908152602001600020600082815260200190815260200160002060010160009054906101000a900473ffffffffffffffffffffffffffffffffffffffff1685828151811015156146ed57fe5b9060200190602002019073ffffffffffffffffffffffffffffffffffffffff16908173ffffffffffffffffffffffffffffffffffffffff1681525050600860008c73ffffffffffffffffffffffffffffffffffffffff1673ffffffffffffffffffffffffffffffffffffffff168152602001908152602001600020600082815260200190815260200160002060020160009054906101000a900473ffffffffffffffffffffffffffffffffffffffff1684828151811015156147ab57fe5b9060200190602002019073ffffffffffffffffffffffffffffffffffffffff16908173ffffffffffffffffffffffffffffffffffffffff1681525050600860008c73ffffffffffffffffffffffffffffffffffffffff1673ffffffffffffffffffffffffffffffffffffffff168152602001908152602001600020600082815260200190815260200160002060030154838281518110151561484957fe5b9060200190602002018181525050600860008c73ffffffffffffffffffffffffffffffffffffffff1673ffffffffffffffffffffffffffffffffffffffff16815260200190815260200160002060008281526020019081526020016000206004015482828151811015156148b957fe5b90602001906020020181815250508080600101915050614663565b5083838383985098509850985050505050509193509193565b60095481565b600160009054906101000a900473ffffffffffffffffffffffffffffffffffffffff1681565b600b5481565b6060806060600b546040519080825280602002602001820160405280156149555781602001602082028038833980820191505090505b50905060008090505b600b548110156149d3576149aa600a8281548110151561497a57fe5b9060005260206000200160009054906101000a900473ffffffffffffffffffffffffffffffffffffffff1661316e565b82828151811015156149b857fe5b9060200190602002018181525050808060010191505061495e565b50600a8181805480602002602001604051908101604052809291908181526020018280548015614a5857602002820191906000526020600020905b8160009054906101000a900473ffffffffffffffffffffffffffffffffffffffff1673ffffffffffffffffffffffffffffffffffffffff1681526020019060010190808311614a0e575b5050505050915092509250509091565b6000601160008473ffffffffffffffffffffffffffffffffffffffff1673ffffffffffffffffffffffffffffffffffffffff16815260200190815260200160002060008373ffffffffffffffffffffffffffffffffffffffff1673ffffffffffffffffffffffffffffffffffffffff16815260200190815260200160002054905092915050565b6060806060806060600954604051908082528060200260200182016040528015614b285781602001602082028038833980820191505090505b5090506060600954604051908082528060200260200182016040528015614b5e5781602001602082028038833980820191505090505b5090506060600954604051908082528060200260200182016040528015614b945781602001602082028038833980820191505090505b5090506060600954604051908082528060200260200182016040528015614bca5781602001602082028038833980820191505090505b50905060008090505b600954811015614d52576007600082815260200190815260200160002060010160009054906101000a900473ffffffffffffffffffffffffffffffffffffffff168582815181101515614c2257fe5b9060200190602002019073ffffffffffffffffffffffffffffffffffffffff16908173ffffffffffffffffffffffffffffffffffffffff16815250506007600082815260200190815260200160002060020160009054906101000a900473ffffffffffffffffffffffffffffffffffffffff168482815181101515614ca357fe5b9060200190602002019073ffffffffffffffffffffffffffffffffffffffff16908173ffffffffffffffffffffffffffffffffffffffff168152505060076000828152602001908152602001600020600301548382815181101515614d0457fe5b906020019060200201818152505060076000828152602001908152602001600020600401548282815181101515614d3757fe5b90602001906020020181815250508080600101915050614bd3565b508383838397509750975097505050505090919293565b60008060009054906101000a900473ffffffffffffffffffffffffffffffffffffffff1673ffffffffffffffffffffffffffffffffffffffff163373ffffffffffffffffffffffffffffffffffffffff161480614e1857506001600f60003373ffffffffffffffffffffffffffffffffffffffff1673ffffffffffffffffffffffffffffffffffffffff16815260200190815260200160002060020160009054906101000a900460ff1660ff16115b1515614e2357600080fd5b60008090505b82811015614e8f57614e818682815181101515614e4257fe5b906020019060200201518683815181101515614e5a57fe5b906020019060200201518684815181101515614e7257fe5b90602001906020020151613399565b508080600101915050614e29565b5060019050949350505050565b60008060009054906101000a900473ffffffffffffffffffffffffffffffffffffffff1673ffffffffffffffffffffffffffffffffffffffff163373ffffffffffffffffffffffffffffffffffffffff161480614f4b57506001600f60003373ffffffffffffffffffffffffffffffffffffffff1673ffffffffffffffffffffffffffffffffffffffff16815260200190815260200160002060020160009054906101000a900460ff1660ff16115b1515614f5657600080fd5b81600f60008573ffffffffffffffffffffffffffffffffffffffff1673ffffffffffffffffffffffffffffffffffffffff16815260200190815260200160002060020160006101000a81548160ff021916908360ff1602179055506001905092915050565b6000809054906101000a900473ffffffffffffffffffffffffffffffffffffffff1673ffffffffffffffffffffffffffffffffffffffff163373ffffffffffffffffffffffffffffffffffffffff1614151561501657600080fd5b80600160006101000a81548173ffffffffffffffffffffffffffffffffffffffff021916908373ffffffffffffffffffffffffffffffffffffffff16021790555050565b6000600f60008373ffffffffffffffffffffffffffffffffffffffff1673ffffffffffffffffffffffffffffffffffffffff16815260200190815260200160002060020160019054906101000a900460ff169050919050565b600073ffffffffffffffffffffffffffffffffffffffff168273ffffffffffffffffffffffffffffffffffffffff1614151515615158576040517f08c379a000000000000000000000000000000000000000000000000000000000815260040180806020018281038252600b8152602001807f616464726573732030783000000000000000000000000000000000000000000081525060200191505060405180910390fd5b600073ffffffffffffffffffffffffffffffffffffffff168373ffffffffffffffffffffffffffffffffffffffff16141515156151fd576040517f08c379a000000000000000000000000000000000000000000000000000000000815260040180806020018281038252600b8152602001807f616464726573732030783000000000000000000000000000000000000000000081525060200191505060405180910390fd5b80601160008573ffffffffffffffffffffffffffffffffffffffff1673ffffffffffffffffffffffffffffffffffffffff16815260200190815260200160002060008473ffffffffffffffffffffffffffffffffffffffff1673ffffffffffffffffffffffffffffffffffffffff168152602001908152602001600020819055508173ffffffffffffffffffffffffffffffffffffffff168373ffffffffffffffffffffffffffffffffffffffff167f8c5be1e5ebec7d5bd14f71427d1e84f3dd0314c0f7b2291e5b200ac8c7c3b925836040518082815260200191505060405180910390a3505050565b600081830190508281101515156152fe57600080fd5b92915050565b600082821115151561531557600080fd5b818303905092915050565b600073ffffffffffffffffffffffffffffffffffffffff168373ffffffffffffffffffffffffffffffffffffffff16141515156153c5576040517f08c379a000000000000000000000000000000000000000000000000000000000815260040180806020018281038252600b8152602001807f616464726573732030783000000000000000000000000000000000000000000081525060200191505060405180910390fd5b61540e600e60008673ffffffffffffffffffffffffffffffffffffffff1673ffffffffffffffffffffffffffffffffffffffff1681526020019081526020016000205483615304565b600e60008673ffffffffffffffffffffffffffffffffffffffff1673ffffffffffffffffffffffffffffffffffffffff1681526020019081526020016000208190555061549a600e60008573ffffffffffffffffffffffffffffffffffffffff1673ffffffffffffffffffffffffffffffffffffffff16815260200190815260200160002054836152e8565b600e60008573ffffffffffffffffffffffffffffffffffffffff1673ffffffffffffffffffffffffffffffffffffffff168152602001908152602001600020819055506154e5615d20565b60095481600001818152505084816020019073ffffffffffffffffffffffffffffffffffffffff16908173ffffffffffffffffffffffffffffffffffffffff168152505083816040019073ffffffffffffffffffffffffffffffffffffffff16908173ffffffffffffffffffffffffffffffffffffffff16815250508281606001818152505081816080018181525050806007600060095481526020019081526020016000206000820151816000015560208201518160010160006101000a81548173ffffffffffffffffffffffffffffffffffffffff021916908373ffffffffffffffffffffffffffffffffffffffff16021790555060408201518160020160006101000a81548173ffffffffffffffffffffffffffffffffffffffff021916908373ffffffffffffffffffffffffffffffffffffffff160217905550606082015181600301556080820151816004015590505061564760095460016152e8565b6009819055506000600f60008773ffffffffffffffffffffffffffffffffffffffff1673ffffffffffffffffffffffffffffffffffffffff1681526020019081526020016000206003015490506000600f60008773ffffffffffffffffffffffffffffffffffffffff1673ffffffffffffffffffffffffffffffffffffffff16815260200190815260200160002060030154905082600860008973ffffffffffffffffffffffffffffffffffffffff1673ffffffffffffffffffffffffffffffffffffffff16815260200190815260200160002060008481526020019081526020016000206000820151816000015560208201518160010160006101000a81548173ffffffffffffffffffffffffffffffffffffffff021916908373ffffffffffffffffffffffffffffffffffffffff16021790555060408201518160020160006101000a81548173ffffffffffffffffffffffffffffffffffffffff021916908373ffffffffffffffffffffffffffffffffffffffff1602179055506060820151816003015560808201518160040155905050615828600f60008973ffffffffffffffffffffffffffffffffffffffff1673ffffffffffffffffffffffffffffffffffffffff1681526020019081526020016000206003015460016152e8565b600f60008973ffffffffffffffffffffffffffffffffffffffff1673ffffffffffffffffffffffffffffffffffffffff168152602001908152602001600020600301819055506158bb600f60008973ffffffffffffffffffffffffffffffffffffffff1673ffffffffffffffffffffffffffffffffffffffff1681526020019081526020016000206004015460016152e8565b600f60008973ffffffffffffffffffffffffffffffffffffffff1673ffffffffffffffffffffffffffffffffffffffff1681526020019081526020016000206004018190555061594d600f60008973ffffffffffffffffffffffffffffffffffffffff1673ffffffffffffffffffffffffffffffffffffffff16815260200190815260200160002060070154866152e8565b600f60008973ffffffffffffffffffffffffffffffffffffffff1673ffffffffffffffffffffffffffffffffffffffff168152602001908152602001600020600701819055506159e0600f60008873ffffffffffffffffffffffffffffffffffffffff1673ffffffffffffffffffffffffffffffffffffffff1681526020019081526020016000206005015460016152e8565b600f60008873ffffffffffffffffffffffffffffffffffffffff1673ffffffffffffffffffffffffffffffffffffffff16815260200190815260200160002060050181905550615a72600f60008873ffffffffffffffffffffffffffffffffffffffff1673ffffffffffffffffffffffffffffffffffffffff16815260200190815260200160002060060154866152e8565b600f60008873ffffffffffffffffffffffffffffffffffffffff1673ffffffffffffffffffffffffffffffffffffffff168152602001908152602001600020600601819055508573ffffffffffffffffffffffffffffffffffffffff168773ffffffffffffffffffffffffffffffffffffffff16141515615c815782600860008873ffffffffffffffffffffffffffffffffffffffff1673ffffffffffffffffffffffffffffffffffffffff16815260200190815260200160002060008381526020019081526020016000206000820151816000015560208201518160010160006101000a81548173ffffffffffffffffffffffffffffffffffffffff021916908373ffffffffffffffffffffffffffffffffffffffff16021790555060408201518160020160006101000a81548173ffffffffffffffffffffffffffffffffffffffff021916908373ffffffffffffffffffffffffffffffffffffffff1602179055506060820151816003015560808201518160040155905050615c3a600f60008873ffffffffffffffffffffffffffffffffffffffff1673ffffffffffffffffffffffffffffffffffffffff1681526020019081526020016000206003015460016152e8565b600f60008873ffffffffffffffffffffffffffffffffffffffff1673ffffffffffffffffffffffffffffffffffffffff168152602001908152602001600020600301819055505b8573ffffffffffffffffffffffffffffffffffffffff168773ffffffffffffffffffffffffffffffffffffffff167fddf252ad1be2c89b69c2b068fc378daa952ba7f163c4a11628f55a4df523b3ef876040518082815260200191505060405180910390a350505050505050565b600081830290506000831480615d0f5750818382811515615d0c57fe5b04145b1515615d1a57600080fd5b92915050565b60a06040519081016040528060008152602001600073ffffffffffffffffffffffffffffffffffffffff168152602001600073ffffffffffffffffffffffffffffffffffffffff1681526020016000815260200160008019168152509056fea165627a7a7230582014179e8a3286f92061e8112f05339764394730fd526cac7a251ad06ac4a0d5040029",
  "source": "pragma solidity ^0.5.0;\n\n// ----------------------------------------------------------------------------\n// Safe maths\n// ----------------------------------------------------------------------------\ncontract SafeMath {\n    function safeAdd(uint a, uint b) internal pure returns (uint c) {\n        c = a + b;\n        require(c >= a);\n    }\n    function safeSub(uint a, uint b) internal pure returns (uint c) {\n        require(b <= a);\n        c = a - b;\n    }\n    function safeMul(uint a, uint b) internal pure returns (uint c) {\n        c = a * b;\n        require(a == 0 || c / a == b);\n    }\n    function safeDiv(uint a, uint b) internal pure returns (uint c) {\n        require(b > 0);\n        c = a / b;\n    }\n}\n\n\n// ----------------------------------------------------------------------------\n// Owned contract\n// ----------------------------------------------------------------------------\n\ncontract Owned {\n    address public owner;\n    address public newOwner;\n\n    event OwnershipTransferred(address indexed _from, address indexed _to);\n\n    //The owner will me always this address even if another address pay ether to launch the contract (need to be check)\n    constructor() public {\n        owner = 0xc4d446c6B924c431f89214319D5A3e6bb67e7627; // my personnal address with my phone number (it is my public key)\n    }\n\n    modifier onlyOwner {\n        require(msg.sender == owner);\n        _;\n    }\n\n    function transferOwnership(address _newOwner) public onlyOwner {\n        newOwner = _newOwner;\n    }\n\n    function acceptOwnership() public {\n        require(msg.sender == newOwner);\n        emit OwnershipTransferred(owner, newOwner);\n        owner = newOwner;\n        newOwner = address(0);\n    }\n}\n\n\n// ----------------------------------------------------------------------------\n// AST contract : The first part is the ERC20 function then advance coin functions\n// ----------------------------------------------------------------------------\n\ncontract AurexiaSocialToken is Owned, SafeMath {\n    bytes32 public symbol;\n    bytes32 public name;\n    uint8 public decimals;\n    uint256 public _totalSupply;\n    uint32 public initialSupply;\n    bool public openDonation; // when true we can send our token to association \n\n    struct wording {\n      uint256 id;\n      address from;\n      address to;\n      uint256 amountAST;\n      bytes32 text;\n    }\n\n    //storage of all wordings by their id and their address\n    mapping (uint256 => wording) private wordings;\n    mapping (address => mapping (uint256 => wording)) private personalWordings;\n    uint256 public indexNewWording;\n\n    //storage of all adresses and the size of members of aurexia\n    address[] private aurexiaAccounts;\n    uint256 public sizeListAccount;\n\n    //storage of all adresses of all charities\n    address[] private charityAccounts;\n    uint256 public sizeListCharity;\n\n    struct membre{\n      address publicKey;\n      bytes32 name;    // first name + family Name\n      uint8 grade;     // 1 for consultants, 2 for managers, 3 for partners, 4 for admin \n      bool isMember;\n      uint256 nbrTransaction;\n      uint256 nbrSend;\n      uint256 nbrReceive;\n      uint256 totalReceive;\n      uint256 totalSend;\n    }\n\n    struct association{\n      address publicKey;\n      bytes32 name;\n      bool isPartner; // kind of whitelist of association, allowed to add and remove easier\n    }\n\n    mapping(address => uint) private balances;\n    mapping(address => membre) private aurexiaMembers;\n    mapping(address => association) private associationList;\n\n    event Transfer(address indexed from, address indexed to, uint tokens);\n    event Burn(address indexed from, uint256 value);\n\n    //mapping and event for ERC20 function but we didn't use it. I put it for good recognition of our contract as ERC20\n    mapping (address => mapping (address => uint256)) private _allowed;\n    event Approval(address indexed owner, address indexed spender, uint256 value);\n\n\n    // ------------------------------------------------------------------------\n    // Constructor\n    // ------------------------------------------------------------------------\n\n    constructor() public {\n        symbol = \"AST\";\n        name = \"AurexiaSocialToken\";\n        decimals = 18;\n        initialSupply = 20000;\n        _totalSupply = initialSupply * 10**uint256(decimals); // 1 token = 1 * 10^18 because of 18 decimals\n        balances[owner] = _totalSupply;\n\n        emit Transfer(address(0), owner, _totalSupply);\n        \n        wordings[0].id = 0;\n        wordings[0].to = owner;\n        wordings[0].amountAST = _totalSupply;\n        wordings[0].text = \"Contract Creation\";\n        indexNewWording = 1;\n\n        personalWordings[owner][0].id = 0;\n        personalWordings[owner][0].to = owner;\n        personalWordings[owner][0].amountAST = _totalSupply;\n        personalWordings[owner][0].text = \"Contract Creation\";\n\n        // add of  the owner in the whitelist aurexiaMembers\n        aurexiaMembers[owner].publicKey = owner;\n        aurexiaMembers[owner].name = \"Administrator\";\n        aurexiaMembers[owner].grade = 4;\n        aurexiaMembers[owner].isMember = true;\n        aurexiaMembers[owner].nbrTransaction = 1;\n        aurexiaMembers[owner].nbrReceive = 1;\n        aurexiaMembers[owner].totalReceive = _totalSupply;\n\n        aurexiaAccounts.push(owner);\n        sizeListAccount += 1;\n\n        openDonation = false;\n\n      }\n\n    // ------------------------------------------------------------------------\n    // ERC20 Functions (approve and allowed functions are written but we don't use it. There are just here for a good recognition of our contract as an ERC20)\n    // ref \"https://www.ethereum-france.com/qu-est-ce-qu-un-token-erc20/\" to know what do all ERC20 functions\n    // ------------------------------------------------------------------------\n\n    function totalSupply() public view returns (uint256) {\n        return _totalSupply;\n      }\n\n    function balanceOf(address _address) public view returns (uint256) {\n        return balances[_address];\n      }\n\n    function transfer(address _to, uint256 _value, bytes32 _text) public returns (bool) {\n        require (aurexiaMembers[msg.sender].isMember == true);\n        _transfer(msg.sender, _to, _value, _text);\n        return true;\n      }\n\n    function transferFrom(address _from, address _to, uint256 _value, bytes32 _text) public onlyOwner() returns (bool) {\n        _transfer(_from, _to, _value, _text);\n        return true;\n      }\n\n    function _transfer(address from, address to, uint256 tokens, bytes32 text) private {\n        require(to != address(0), \"address 0x0\");\n        balances[from] = safeSub(balances[from], tokens);\n        balances[to] = safeAdd(balances[to], tokens);\n\n        wording memory newWording;\n        newWording.id = indexNewWording;\n        newWording.from = from;\n        newWording.to = to;\n        newWording.amountAST = tokens;\n        newWording.text = text;\n\n        wordings[indexNewWording] = newWording;\n        indexNewWording = safeAdd(indexNewWording, 1);\n\n        uint256 tailleFrom = aurexiaMembers[from].nbrTransaction;\n        uint256 tailleTo = aurexiaMembers[to].nbrTransaction;\n        personalWordings[from][tailleFrom] = newWording;\n        aurexiaMembers[from].nbrTransaction = safeAdd(aurexiaMembers[from].nbrTransaction,1);\n        aurexiaMembers[from].nbrSend = safeAdd(aurexiaMembers[from].nbrSend,1);\n        aurexiaMembers[from].totalSend = safeAdd(aurexiaMembers[from].totalSend,tokens);\n        aurexiaMembers[to].nbrReceive = safeAdd(aurexiaMembers[to].nbrReceive,1);\n        aurexiaMembers[to].totalReceive = safeAdd(aurexiaMembers[to].totalReceive,tokens);\n\n        if (from != to){                //this line is when administrator send to himself some token, it's jsut 1 transaction overall but must be count as 1 transaction send and 1 receive\n          personalWordings[to][tailleTo] = newWording;\n          aurexiaMembers[to].nbrTransaction = safeAdd(aurexiaMembers[to].nbrTransaction,1);\n        }\n\n        emit Transfer(from, to, tokens);\n      }\n\n\n// ***********************************************************************************//\n    function approve(address spender, uint256 value) public returns (bool) {\n        _approve(msg.sender, spender, value);\n        return true;\n    }\n\n    function _approve(address sender, address spender, uint256 value) internal {\n        require(spender != address(0), \"address 0x0\");\n        require(sender != address(0), \"address 0x0\");\n\n        _allowed[sender][spender] = value;\n        emit Approval(sender, spender, value);\n    }\n\n    function allowance(address sender, address spender) public view returns (uint256) {\n        return _allowed[sender][spender];\n    }\n\n  // ------------------------------------------------------------------------\n  // Advanced functions : AST functions\n  // ------------------------------------------------------------------------\n\n  // Creation of token, increase both total supply and the account which receive all the new tokens\n\n//be careful when you create token to be aware of the 18 decimals. For exemple create 300 tokens is 300 * 10^18 in the argument value of the function\n    function mint(address _receiver, uint256 _value) public onlyOwner() {\n        require(_receiver != address(0), \"address 0x0\");\n        _totalSupply = safeAdd(_totalSupply, _value);\n        balances[_receiver] = safeAdd(balances[_receiver],_value);\n\n        wording memory newWording;\n        newWording.id = indexNewWording;\n        newWording.to = _receiver;\n        newWording.amountAST = _value;\n        newWording.text = \"Token Creation From Admin\";\n\n        wordings[indexNewWording] = newWording;\n        indexNewWording = safeAdd(indexNewWording, 1);\n\n        uint256 tailleTo = aurexiaMembers[_receiver].nbrTransaction;\n        personalWordings[_receiver][tailleTo] = newWording;\n        aurexiaMembers[_receiver].nbrTransaction = safeAdd(aurexiaMembers[_receiver].nbrTransaction,1);\n\n        emit Transfer(address(0), _receiver, _value);\n    }\n\n  // Destruction of token, erase the amount of token from an account and update the total supply\n\n//be careful when you destroy token to be aware of the 18 decimals. For exemple destroy 300 tokens is 300 * 10^18 in the argument value of the function\n    function burn(address _address, uint256 _value) public onlyOwner() returns (bool success) {\n        require(balances[_address] >= _value);                        // Check if the sender has enough\n        balances[_address] = safeSub(balances[_address], _value);           // Subtract from the sender\n        _totalSupply = safeSub(_totalSupply, _value);                   // Updates totalSupply\n\n        wording memory newWording;\n        newWording.id = indexNewWording;\n        newWording.to = _address;\n        newWording.amountAST = _value;\n        newWording.text = \"Token Suppression From Admin\";\n\n        wordings[indexNewWording] = newWording;\n        indexNewWording = safeAdd(indexNewWording, 1);\n\n        uint256 tailleTo = aurexiaMembers[_address].nbrTransaction;\n        personalWordings[_address][tailleTo] = newWording;\n        aurexiaMembers[_address].nbrTransaction = safeAdd(aurexiaMembers[_address].nbrTransaction,1);\n\n        emit Burn(msg.sender, _value);\n        return true;\n    }\n\n    //transfer tokens to all aurexia members from administrator\n\n    function transferAll(uint256 _value) public onlyOwner() returns (bool success) {\n        require(balances[owner] >= safeMul(_value,sizeListAccount));\n        for (uint i=0; i<sizeListAccount; i++){\n          address account = aurexiaAccounts[i];\n          bytes32 text = \"initial donation\";\n          _transfer(owner, account, _value, text);\n        }\n        return true;\n    }\n\n  // Functions to add/remove new members in AurexiaMembers (whitelist)\n\n    function addToAurexiaMembers (address _address, bytes32 _name, uint8 _grade) public returns (bool) {\n        require (msg.sender == owner || aurexiaMembers[msg.sender].grade > 1);\n        aurexiaMembers[_address].publicKey = _address;\n        aurexiaMembers[_address].name = _name;\n        aurexiaMembers[_address].grade = _grade;\n        aurexiaMembers[_address].isMember = true;\n        for (uint i=0; i<sizeListAccount; i++ ){\n          if (_address == aurexiaAccounts[i]){\n            return true;\n          }\n        }\n        aurexiaAccounts.push(_address);\n        sizeListAccount = safeAdd(sizeListAccount, 1);\n        return true;\n    }\n\n\n    function authorizeManyMembers (address[] memory _address, bytes32[] memory _name, uint8[] memory _grade, uint256 taille) public returns (bool){\n          require (msg.sender == owner || aurexiaMembers[msg.sender].grade > 1);\n          for (uint i=0; i<taille; i++){\n            addToAurexiaMembers(_address[i], _name[i], _grade[i]);\n          }\n          return true;\n      }\n\n\n    function remAurexiaMembers (address _address) public returns (bool){\n        require (msg.sender == owner || aurexiaMembers[msg.sender].grade > 1);\n        aurexiaMembers[_address].isMember = false;\n        for (uint i=0; i<sizeListAccount; i++ ){\n          if (_address == aurexiaAccounts[i]){\n            aurexiaAccounts[i] = aurexiaAccounts[sizeListAccount - 1];\n            delete aurexiaAccounts[sizeListAccount - 1];\n            sizeListAccount = safeSub(sizeListAccount, 1);\n            break;\n          }\n        }\n        return true;\n    }\n\n    \n    //function to get all data members from the contract\n\n    function getMembers() public view returns (address[] memory){\n        return aurexiaAccounts;\n    }\n\n    function getMembersAndName() public view returns (address[] memory, bytes32[] memory){\n        bytes32[] memory NameAurexia = new bytes32[](sizeListAccount);\n        for (uint i=0; i<sizeListAccount; i++){\n          NameAurexia[i] = getName(aurexiaAccounts[i]);\n        }\n        return (aurexiaAccounts, NameAurexia);\n    }\n\n    function getMembersAndNameAndBalance() public view returns (address[] memory, bytes32[] memory, uint256[] memory){\n        bytes32[] memory nameAurexia = new bytes32[](sizeListAccount);\n        uint256[] memory balanceAurexia = new uint256[](sizeListAccount);\n        for (uint i=0; i<sizeListAccount; i++){\n          nameAurexia[i] = getName(aurexiaAccounts[i]);\n          balanceAurexia[i] = balanceOf(aurexiaAccounts[i]);\n        }\n        return (aurexiaAccounts, nameAurexia, balanceAurexia);\n    }\n\n    function getAddress (uint256 index) public view returns (address){\n        return aurexiaAccounts[index];\n    }\n\n  \n  //function to check member in AurexiaMembers (whitelist)\n\n    function isInAurexiaMembers (address _address) public view returns (bool){\n        return aurexiaMembers[_address].isMember;\n    }\n\n  //functions to get all information from a member (you must be in the whitelist to have access to this)\n    function getName (address _address) public view returns (bytes32){\n        return aurexiaMembers[_address].name;\n    }\n\n    function getGrade (address _address) public view returns (uint8){\n        return aurexiaMembers[_address].grade;\n    }\n\n    function getNbrTransaction (address _address) public view returns (uint256){\n        return aurexiaMembers[_address].nbrTransaction;\n    }\n\n    function getTotalSend (address _address) public view returns (uint256){\n        return aurexiaMembers[_address].totalSend;\n    }\n\n    function getTotalReceive (address _address) public view returns (uint256){\n        return aurexiaMembers[_address].totalReceive;\n    }\n\n    function getNbrSend (address _address) public view returns (uint256){\n        return aurexiaMembers[_address].nbrSend;\n    }\n\n    function getNbrReceive (address _address) public view returns (uint256){\n        return aurexiaMembers[_address].nbrReceive;\n    }\n\n  //function to modify grade \n\n    function modifyGrade (address _address, uint8 newGrade) public returns (bool){   // only owner and manager and partner can promote somebody\n        require (msg.sender == owner || aurexiaMembers[msg.sender].grade > 1);\n        aurexiaMembers[_address].grade = newGrade;\n        return true;\n    }\n\n  //function to modify name (only owner and the one who want to change his/her name)\n\n    function modifyName (address _address, bytes32 newName) public returns (bool){\n        require (msg.sender == owner || _address == msg.sender);\n        aurexiaMembers[_address].name = newName;\n    }\n  \n  //function to manage association \n    \n    function addAssociation (address _address, bytes32 _name) public returns (bool){\n        require (msg.sender == owner || aurexiaMembers[msg.sender].grade == 3);\n        associationList[_address].name = _name;\n        associationList[_address].publicKey = _address;\n        associationList[_address].isPartner = true;\n        charityAccounts.push(_address);\n        sizeListCharity = safeAdd(sizeListCharity, 1);\n        return true;\n    }\n\n    function remAssociation (address _address) public returns (bool){\n        require (msg.sender == owner || aurexiaMembers[msg.sender].grade == 3);\n        associationList[_address].isPartner = false;\n        for (uint i=0; i<sizeListCharity; i++ ){\n          if (_address == charityAccounts[i]){\n            charityAccounts[i] = charityAccounts[sizeListCharity - 1];\n            delete charityAccounts[sizeListCharity - 1];\n            sizeListCharity = safeSub(sizeListCharity, 1);\n            break;\n          }\n        }\n        return true; \n    }\n    function transferToAssociation (address _address, uint256 _amount) public returns (bool){\n        require (aurexiaMembers[msg.sender].isMember == true);\n        require (openDonation == true);\n        require (associationList[_address].isPartner == true);\n        bytes32 donationText = \"Sending to Association\";\n        _transfer (msg.sender, _address, _amount, donationText);\n        return true; \n    }\n\n    function getCharityAddress () public view returns (address[] memory){\n        return charityAccounts;\n    }\n\n    function getCharitySize () public view returns (uint256){\n        return sizeListCharity;\n    }\n\n    function launchDonation () public returns (bool){\n        require (msg.sender == owner || aurexiaMembers[msg.sender].grade == 3);\n        require (openDonation == false);\n        openDonation = true; \n        return true;\n    }\n\n    function closeDonation () public returns (bool){\n        require (msg.sender == owner || aurexiaMembers[msg.sender].grade == 3);\n        require (openDonation == true);\n        openDonation = false;\n        return true;\n    }\n\n    function getCharityAddressAndName () public view returns (address[] memory, bytes32[] memory){\n        bytes32[] memory nameCharity = new bytes32[](sizeListCharity);\n        for (uint256 i=0; i<sizeListCharity; i++){\n          nameCharity[i] = getAssoName(charityAccounts[i]);\n        }\n        return (charityAccounts, nameCharity);\n    }\n\n  //Read function for associations\n\n    function isAssoPartner (address _address) public view returns (bool){\n        return associationList[_address].isPartner;\n    }\n\n    function getAssoName (address _address) public view returns (bytes32){\n        return associationList[_address].name;\n    }\n\n    function isDonationOpen () public view returns (bool){\n        return openDonation;\n    }\n\n\n  // functions transaction : We want to get and store the wording (libell) of the transaction\n\n    function getAllWordings () public view returns (address[]memory, address[]memory, uint256[]memory, bytes32[]memory){\n        address[] memory addressFrom = new address[](indexNewWording);\n        address[] memory addressTo = new address[](indexNewWording);\n        uint256[] memory amountsAST = new uint256[](indexNewWording);\n        bytes32[] memory textWordings = new bytes32[](indexNewWording);\n        for (uint256 i=0; i<indexNewWording; i++){\n          addressFrom[i] = wordings[i].from;\n          addressTo[i] = wordings[i].to;\n          amountsAST[i] = wordings[i].amountAST;\n          textWordings[i] = wordings[i].text;\n        }\n        return (addressFrom, addressTo, amountsAST, textWordings);\n    }\n\n    function getPersonalWordings (address _address) public view returns (address[]memory, address[]memory, uint256[]memory, bytes32[]memory){\n        uint256 taille = aurexiaMembers[_address].nbrTransaction;\n        address[] memory addressFrom = new address[](taille);\n        address[] memory addressTo = new address[](taille);\n        uint256[] memory amountsAST = new uint256[](taille);\n        bytes32[] memory textWordings = new bytes32[](taille);\n        for (uint256 i=0; i<taille; i++){\n          addressFrom[i] = personalWordings[_address][i].from;\n          addressTo[i] = personalWordings[_address][i].to;\n          amountsAST[i] = personalWordings[_address][i].amountAST;\n          textWordings[i] = personalWordings[_address][i].text;\n        }\n        return (addressFrom, addressTo, amountsAST, textWordings);\n    }\n\n    function getPersoInfoTransaction (address _address) public view returns (uint256, uint256, uint256, uint256, uint256){\n        uint256 _nbrTransaction = getNbrTransaction(_address);\n        uint256 _totalSend = getTotalSend(_address);\n        uint256 _totalReceive = getTotalReceive(_address);\n        uint256 _nbrSend = getNbrSend(_address);\n        uint256 _nbrReceive = getNbrReceive(_address);\n        return (_nbrTransaction, _totalSend, _totalReceive, _nbrSend, _nbrReceive);\n    }\n\n    function getAllInfoTransaction () public view returns (uint256[]memory, uint256[]memory, uint256[]memory, uint256[]memory, uint256[]memory, bytes32[]memory){\n        uint256[] memory _nbrTransaction = new uint256[](sizeListAccount);\n        uint256[] memory _nbrSend = new uint256[](sizeListAccount);\n        uint256[] memory _totalReceive = new uint256[](sizeListAccount);\n        uint256[] memory _totalSend = new uint256[](sizeListAccount);\n        uint256[] memory _nbrReceive = new uint256[](sizeListAccount);\n        bytes32[] memory _nameUser = new bytes32[](sizeListAccount);\n        for (uint256 i=0; i<sizeListAccount; i++){\n          _nbrTransaction[i] = getNbrTransaction(aurexiaAccounts[i]);\n          _nbrSend[i] = getNbrSend(aurexiaAccounts[i]);\n          _totalReceive[i] = getTotalReceive(aurexiaAccounts[i]);\n          _totalSend[i] = getTotalSend(aurexiaAccounts[i]);\n          _nbrReceive[i] = getNbrReceive(aurexiaAccounts[i]);\n          _nameUser[i] = getName(aurexiaAccounts[i]);\n        }\n        return (_nbrTransaction, _nbrSend, _totalReceive, _totalSend, _nbrReceive, _nameUser);\n    }\n\n\n\n    \n  // ------------------------------------------------------------------------\n  // Function for event management\n  // ------------------------------------------------------------------------\n\n\n\n}\n\n\n\n\n",
  "sourcePath": "C:/Users/spierre/Desktop/Aurexia Git/aurexiaGit.github.io/Blockchain_dev_ABA/SmartContract ropsten Test opti dev4/contracts/AurexiaSocialToken.sol",
  "compiler": {
    "name": "solc",
    "version": "0.5.0+commit.1d4f565a.Emscripten.clang"
  },
  "schemaVersion": "3.0.8",
  "updatedAt": "2019-06-28T14:05:49.924Z",
  "devdoc": {
    "methods": {}
  },
  "userdoc": {
    "methods": {}
  }
}