{
  "contractName": "AurexiaSocialToken",
  "abi": [
    {
      "constant": true,
      "inputs": [],
      "name": "name",
      "outputs": [
        {
          "name": "",
          "type": "string"
        }
      ],
      "payable": false,
      "stateMutability": "view",
      "type": "function",
      "signature": "0x06fdde03"
    },
    {
      "constant": true,
      "inputs": [],
      "name": "openDonation",
      "outputs": [
        {
          "name": "",
          "type": "bool"
        }
      ],
      "payable": false,
      "stateMutability": "view",
      "type": "function",
      "signature": "0x30e3fcad"
    },
    {
      "constant": true,
      "inputs": [],
      "name": "decimals",
      "outputs": [
        {
          "name": "",
          "type": "uint8"
        }
      ],
      "payable": false,
      "stateMutability": "view",
      "type": "function",
      "signature": "0x313ce567"
    },
    {
      "constant": true,
      "inputs": [],
      "name": "initialSupply",
      "outputs": [
        {
          "name": "",
          "type": "uint32"
        }
      ],
      "payable": false,
      "stateMutability": "view",
      "type": "function",
      "signature": "0x378dc3dc"
    },
    {
      "constant": true,
      "inputs": [],
      "name": "_totalSupply",
      "outputs": [
        {
          "name": "",
          "type": "uint256"
        }
      ],
      "payable": false,
      "stateMutability": "view",
      "type": "function",
      "signature": "0x3eaaf86b"
    },
    {
      "constant": false,
      "inputs": [],
      "name": "acceptOwnership",
      "outputs": [],
      "payable": false,
      "stateMutability": "nonpayable",
      "type": "function",
      "signature": "0x79ba5097"
    },
    {
      "constant": true,
      "inputs": [],
      "name": "owner",
      "outputs": [
        {
          "name": "",
          "type": "address"
        }
      ],
      "payable": false,
      "stateMutability": "view",
      "type": "function",
      "signature": "0x8da5cb5b"
    },
    {
      "constant": true,
      "inputs": [],
      "name": "symbol",
      "outputs": [
        {
          "name": "",
          "type": "string"
        }
      ],
      "payable": false,
      "stateMutability": "view",
      "type": "function",
      "signature": "0x95d89b41"
    },
    {
      "constant": true,
      "inputs": [],
      "name": "newOwner",
      "outputs": [
        {
          "name": "",
          "type": "address"
        }
      ],
      "payable": false,
      "stateMutability": "view",
      "type": "function",
      "signature": "0xd4ee1d90"
    },
    {
      "constant": true,
      "inputs": [],
      "name": "sizeListAccount",
      "outputs": [
        {
          "name": "",
          "type": "uint256"
        }
      ],
      "payable": false,
      "stateMutability": "view",
      "type": "function",
      "signature": "0xd6eb5782"
    },
    {
      "constant": false,
      "inputs": [
        {
          "name": "_newOwner",
          "type": "address"
        }
      ],
      "name": "transferOwnership",
      "outputs": [],
      "payable": false,
      "stateMutability": "nonpayable",
      "type": "function",
      "signature": "0xf2fde38b"
    },
    {
      "inputs": [],
      "payable": false,
      "stateMutability": "nonpayable",
      "type": "constructor",
      "signature": "constructor"
    },
    {
      "anonymous": false,
      "inputs": [
        {
          "indexed": true,
          "name": "from",
          "type": "address"
        },
        {
          "indexed": true,
          "name": "to",
          "type": "address"
        },
        {
          "indexed": false,
          "name": "tokens",
          "type": "uint256"
        }
      ],
      "name": "Transfer",
      "type": "event",
      "signature": "0xddf252ad1be2c89b69c2b068fc378daa952ba7f163c4a11628f55a4df523b3ef"
    },
    {
      "anonymous": false,
      "inputs": [
        {
          "indexed": true,
          "name": "from",
          "type": "address"
        },
        {
          "indexed": false,
          "name": "value",
          "type": "uint256"
        }
      ],
      "name": "Burn",
      "type": "event",
      "signature": "0xcc16f5dbb4873280815c1ee09dbd06736cffcc184412cf7a71a0fdb75d397ca5"
    },
    {
      "anonymous": false,
      "inputs": [
        {
          "indexed": true,
          "name": "owner",
          "type": "address"
        },
        {
          "indexed": true,
          "name": "spender",
          "type": "address"
        },
        {
          "indexed": false,
          "name": "value",
          "type": "uint256"
        }
      ],
      "name": "Approval",
      "type": "event",
      "signature": "0x8c5be1e5ebec7d5bd14f71427d1e84f3dd0314c0f7b2291e5b200ac8c7c3b925"
    },
    {
      "anonymous": false,
      "inputs": [
        {
          "indexed": true,
          "name": "_from",
          "type": "address"
        },
        {
          "indexed": true,
          "name": "_to",
          "type": "address"
        }
      ],
      "name": "OwnershipTransferred",
      "type": "event",
      "signature": "0x8be0079c531659141344cd1fd0a4f28419497f9722a3daafe3b4186f6b6457e0"
    },
    {
      "constant": true,
      "inputs": [],
      "name": "totalSupply",
      "outputs": [
        {
          "name": "",
          "type": "uint256"
        }
      ],
      "payable": false,
      "stateMutability": "view",
      "type": "function",
      "signature": "0x18160ddd"
    },
    {
      "constant": true,
      "inputs": [
        {
          "name": "_address",
          "type": "address"
        }
      ],
      "name": "balanceOf",
      "outputs": [
        {
          "name": "",
          "type": "uint256"
        }
      ],
      "payable": false,
      "stateMutability": "view",
      "type": "function",
      "signature": "0x70a08231"
    },
    {
      "constant": false,
      "inputs": [
        {
          "name": "_to",
          "type": "address"
        },
        {
          "name": "_value",
          "type": "uint256"
        }
      ],
      "name": "transfer",
      "outputs": [
        {
          "name": "",
          "type": "bool"
        }
      ],
      "payable": false,
      "stateMutability": "nonpayable",
      "type": "function",
      "signature": "0xa9059cbb"
    },
    {
      "constant": false,
      "inputs": [
        {
          "name": "_from",
          "type": "address"
        },
        {
          "name": "_to",
          "type": "address"
        },
        {
          "name": "_value",
          "type": "uint256"
        }
      ],
      "name": "transferFrom",
      "outputs": [
        {
          "name": "",
          "type": "bool"
        }
      ],
      "payable": false,
      "stateMutability": "nonpayable",
      "type": "function",
      "signature": "0x23b872dd"
    },
    {
      "constant": false,
      "inputs": [
        {
          "name": "spender",
          "type": "address"
        },
        {
          "name": "value",
          "type": "uint256"
        }
      ],
      "name": "approve",
      "outputs": [
        {
          "name": "",
          "type": "bool"
        }
      ],
      "payable": false,
      "stateMutability": "nonpayable",
      "type": "function",
      "signature": "0x095ea7b3"
    },
    {
      "constant": true,
      "inputs": [
        {
          "name": "sender",
          "type": "address"
        },
        {
          "name": "spender",
          "type": "address"
        }
      ],
      "name": "allowance",
      "outputs": [
        {
          "name": "",
          "type": "uint256"
        }
      ],
      "payable": false,
      "stateMutability": "view",
      "type": "function",
      "signature": "0xdd62ed3e"
    },
    {
      "constant": false,
      "inputs": [
        {
          "name": "_receiver",
          "type": "address"
        },
        {
          "name": "_value",
          "type": "uint256"
        }
      ],
      "name": "mint",
      "outputs": [],
      "payable": false,
      "stateMutability": "nonpayable",
      "type": "function",
      "signature": "0x40c10f19"
    },
    {
      "constant": false,
      "inputs": [
        {
          "name": "_address",
          "type": "address"
        },
        {
          "name": "_value",
          "type": "uint256"
        }
      ],
      "name": "burn",
      "outputs": [
        {
          "name": "success",
          "type": "bool"
        }
      ],
      "payable": false,
      "stateMutability": "nonpayable",
      "type": "function",
      "signature": "0x9dc29fac"
    },
    {
      "constant": false,
      "inputs": [
        {
          "name": "_value",
          "type": "uint256"
        }
      ],
      "name": "transferAll",
      "outputs": [
        {
          "name": "success",
          "type": "bool"
        }
      ],
      "payable": false,
      "stateMutability": "nonpayable",
      "type": "function",
      "signature": "0x52435bb8"
    },
    {
      "constant": false,
      "inputs": [
        {
          "name": "_address",
          "type": "address"
        },
        {
          "name": "_name",
          "type": "string"
        },
        {
          "name": "_grade",
          "type": "uint8"
        }
      ],
      "name": "addToAurexiaMembers",
      "outputs": [
        {
          "name": "",
          "type": "bool"
        }
      ],
      "payable": false,
      "stateMutability": "nonpayable",
      "type": "function",
      "signature": "0x9b3f7a3f"
    },
    {
      "constant": false,
      "inputs": [
        {
          "name": "_address",
          "type": "address"
        }
      ],
      "name": "remAurexiaMembers",
      "outputs": [
        {
          "name": "",
          "type": "bool"
        }
      ],
      "payable": false,
      "stateMutability": "nonpayable",
      "type": "function",
      "signature": "0x53e18bdc"
    },
    {
      "constant": true,
      "inputs": [],
      "name": "getMembers",
      "outputs": [
        {
          "name": "",
          "type": "address[]"
        }
      ],
      "payable": false,
      "stateMutability": "view",
      "type": "function",
      "signature": "0x9eab5253"
    },
    {
      "constant": true,
      "inputs": [
        {
          "name": "index",
          "type": "uint256"
        }
      ],
      "name": "getAddress",
      "outputs": [
        {
          "name": "",
          "type": "address"
        }
      ],
      "payable": false,
      "stateMutability": "view",
      "type": "function",
      "signature": "0xb93f9b0a"
    },
    {
      "constant": true,
      "inputs": [
        {
          "name": "_address",
          "type": "address"
        }
      ],
      "name": "isInAurexiaMembers",
      "outputs": [
        {
          "name": "",
          "type": "bool"
        }
      ],
      "payable": false,
      "stateMutability": "view",
      "type": "function",
      "signature": "0xfb108820"
    },
    {
      "constant": true,
      "inputs": [
        {
          "name": "_address",
          "type": "address"
        }
      ],
      "name": "getName",
      "outputs": [
        {
          "name": "",
          "type": "string"
        }
      ],
      "payable": false,
      "stateMutability": "view",
      "type": "function",
      "signature": "0x5fd4b08a"
    },
    {
      "constant": true,
      "inputs": [
        {
          "name": "_address",
          "type": "address"
        }
      ],
      "name": "getGrade",
      "outputs": [
        {
          "name": "",
          "type": "uint8"
        }
      ],
      "payable": false,
      "stateMutability": "view",
      "type": "function",
      "signature": "0x313739a3"
    },
    {
      "constant": false,
      "inputs": [
        {
          "name": "_address",
          "type": "address"
        },
        {
          "name": "newGrade",
          "type": "uint8"
        }
      ],
      "name": "modifyGrade",
      "outputs": [
        {
          "name": "",
          "type": "bool"
        }
      ],
      "payable": false,
      "stateMutability": "nonpayable",
      "type": "function",
      "signature": "0xf09d0874"
    },
    {
      "constant": false,
      "inputs": [
        {
          "name": "_address",
          "type": "address"
        },
        {
          "name": "newName",
          "type": "string"
        }
      ],
      "name": "modifyName",
      "outputs": [
        {
          "name": "",
          "type": "bool"
        }
      ],
      "payable": false,
      "stateMutability": "nonpayable",
      "type": "function",
      "signature": "0xd60f0e88"
    },
    {
      "constant": false,
      "inputs": [
        {
          "name": "_address",
          "type": "address"
        },
        {
          "name": "_name",
          "type": "string"
        }
      ],
      "name": "addAssociation",
      "outputs": [
        {
          "name": "",
          "type": "bool"
        }
      ],
      "payable": false,
      "stateMutability": "nonpayable",
      "type": "function",
      "signature": "0xeeb89148"
    },
    {
      "constant": false,
      "inputs": [
        {
          "name": "_address",
          "type": "address"
        }
      ],
      "name": "remAssociation",
      "outputs": [
        {
          "name": "",
          "type": "bool"
        }
      ],
      "payable": false,
      "stateMutability": "nonpayable",
      "type": "function",
      "signature": "0x1a76e209"
    },
    {
      "constant": false,
      "inputs": [
        {
          "name": "_address",
          "type": "address"
        }
      ],
      "name": "transferToAssociation",
      "outputs": [
        {
          "name": "",
          "type": "bool"
        }
      ],
      "payable": false,
      "stateMutability": "nonpayable",
      "type": "function",
      "signature": "0xd980151c"
    },
    {
      "constant": false,
      "inputs": [],
      "name": "launchDonation",
      "outputs": [
        {
          "name": "",
          "type": "bool"
        }
      ],
      "payable": false,
      "stateMutability": "nonpayable",
      "type": "function",
      "signature": "0x60aa8c73"
    },
    {
      "constant": false,
      "inputs": [],
      "name": "closeDonation",
      "outputs": [
        {
          "name": "",
          "type": "bool"
        }
      ],
      "payable": false,
      "stateMutability": "nonpayable",
      "type": "function",
      "signature": "0x59abef9a"
    },
    {
      "constant": true,
      "inputs": [
        {
          "name": "_address",
          "type": "address"
        }
      ],
      "name": "isAssoPartner",
      "outputs": [
        {
          "name": "",
          "type": "bool"
        }
      ],
      "payable": false,
      "stateMutability": "view",
      "type": "function",
      "signature": "0xb1affcfd"
    },
    {
      "constant": true,
      "inputs": [
        {
          "name": "_address",
          "type": "address"
        }
      ],
      "name": "getAssoName",
      "outputs": [
        {
          "name": "",
          "type": "string"
        }
      ],
      "payable": false,
      "stateMutability": "view",
      "type": "function",
      "signature": "0x11f7b854"
    }
  ],
  "bytecode": "0x60806040523480156200001157600080fd5b5073c8395a6c3d92e661fbf7a97176b4fecd450ede8e6000806101000a81548173ffffffffffffffffffffffffffffffffffffffff021916908373ffffffffffffffffffffffffffffffffffffffff1602179055506040805190810160405280600381526020017f415354000000000000000000000000000000000000000000000000000000000081525060029080519060200190620000b392919062000840565b506040805190810160405280601281526020017f41757265786961536f6369616c546f6b656e0000000000000000000000000000815250600390805190602001906200010192919062000840565b506012600460006101000a81548160ff021916908360ff160217905550614e20600660006101000a81548163ffffffff021916908363ffffffff160217905550600460009054906101000a900460ff1660ff16600a0a600660009054906101000a900463ffffffff1663ffffffff1602600581905550600554600960008060009054906101000a900473ffffffffffffffffffffffffffffffffffffffff1673ffffffffffffffffffffffffffffffffffffffff1673ffffffffffffffffffffffffffffffffffffffff168152602001908152602001600020819055506000809054906101000a900473ffffffffffffffffffffffffffffffffffffffff1673ffffffffffffffffffffffffffffffffffffffff16600073ffffffffffffffffffffffffffffffffffffffff167fddf252ad1be2c89b69c2b068fc378daa952ba7f163c4a11628f55a4df523b3ef6005546040518082815260200191505060405180910390a36000600660046101000a81548160ff0219169083151502179055506000809054906101000a900473ffffffffffffffffffffffffffffffffffffffff16600a60008060009054906101000a900473ffffffffffffffffffffffffffffffffffffffff1673ffffffffffffffffffffffffffffffffffffffff1673ffffffffffffffffffffffffffffffffffffffff16815260200190815260200160002060000160006101000a81548173ffffffffffffffffffffffffffffffffffffffff021916908373ffffffffffffffffffffffffffffffffffffffff1602179055506040805190810160405280600d81526020017f41646d696e6973747261746f7200000000000000000000000000000000000000815250600a60008060009054906101000a900473ffffffffffffffffffffffffffffffffffffffff1673ffffffffffffffffffffffffffffffffffffffff1673ffffffffffffffffffffffffffffffffffffffff1681526020019081526020016000206001019080519060200190620003f392919062000840565b506004600a60008060009054906101000a900473ffffffffffffffffffffffffffffffffffffffff1673ffffffffffffffffffffffffffffffffffffffff1673ffffffffffffffffffffffffffffffffffffffff16815260200190815260200160002060020160006101000a81548160ff021916908360ff1602179055506001600a60008060009054906101000a900473ffffffffffffffffffffffffffffffffffffffff1673ffffffffffffffffffffffffffffffffffffffff1673ffffffffffffffffffffffffffffffffffffffff16815260200190815260200160002060020160016101000a81548160ff02191690831515021790555073840e1c551a512851730220c2838f54a2e7068d8f600a600073840e1c551a512851730220c2838f54a2e7068d8f73ffffffffffffffffffffffffffffffffffffffff1673ffffffffffffffffffffffffffffffffffffffff16815260200190815260200160002060000160006101000a81548173ffffffffffffffffffffffffffffffffffffffff021916908373ffffffffffffffffffffffffffffffffffffffff1602179055506040805190810160405280600b81526020017f416d696e65204261647279000000000000000000000000000000000000000000815250600a600073840e1c551a512851730220c2838f54a2e7068d8f73ffffffffffffffffffffffffffffffffffffffff1673ffffffffffffffffffffffffffffffffffffffff16815260200190815260200160002060010190805190602001906200063792919062000840565b506001600a600073840e1c551a512851730220c2838f54a2e7068d8f73ffffffffffffffffffffffffffffffffffffffff1673ffffffffffffffffffffffffffffffffffffffff16815260200190815260200160002060020160006101000a81548160ff021916908360ff1602179055506001600a600073840e1c551a512851730220c2838f54a2e7068d8f73ffffffffffffffffffffffffffffffffffffffff1673ffffffffffffffffffffffffffffffffffffffff16815260200190815260200160002060020160016101000a81548160ff02191690831515021790555060076000809054906101000a900473ffffffffffffffffffffffffffffffffffffffff1690806001815401808255809150509060018203906000526020600020016000909192909190916101000a81548173ffffffffffffffffffffffffffffffffffffffff021916908373ffffffffffffffffffffffffffffffffffffffff160217905550506001600860008282540192505081905550600773840e1c551a512851730220c2838f54a2e7068d8f90806001815401808255809150509060018203906000526020600020016000909192909190916101000a81548173ffffffffffffffffffffffffffffffffffffffff021916908373ffffffffffffffffffffffffffffffffffffffff160217905550506001600860008282540192505081905550620008ef565b828054600181600116156101000203166002900490600052602060002090601f016020900481019282601f106200088357805160ff1916838001178555620008b4565b82800160010185558215620008b4579182015b82811115620008b357825182559160200191906001019062000896565b5b509050620008c39190620008c7565b5090565b620008ec91905b80821115620008e8576000816000905550600101620008ce565b5090565b90565b6133c780620008ff6000396000f3fe6080604052600436106101c2576000357c0100000000000000000000000000000000000000000000000000000000900463ffffffff16806306fdde03146101c7578063095ea7b31461025757806311f7b854146102ca57806318160ddd146103945780631a76e209146103bf57806323b872dd1461042857806330e3fcad146104bb578063313739a3146104ea578063313ce56714610555578063378dc3dc146105865780633eaaf86b146105bd57806340c10f19146105e857806352435bb81461064357806353e18bdc1461069657806359abef9a146106ff5780635fd4b08a1461072e57806360aa8c73146107f857806370a082311461082757806379ba50971461088c5780638da5cb5b146108a357806395d89b41146108fa5780639b3f7a3f1461098a5780639dc29fac14610a975780639eab525314610b0a578063a9059cbb14610b76578063b1affcfd14610be9578063b93f9b0a14610c52578063d4ee1d9014610ccd578063d60f0e8814610d24578063d6eb578214610e24578063d980151c14610e4f578063dd62ed3e14610eb8578063eeb8914814610f3d578063f09d08741461103d578063f2fde38b146110b3578063fb10882014611104575b600080fd5b3480156101d357600080fd5b506101dc61116d565b6040518080602001828103825283818151815260200191508051906020019080838360005b8381101561021c578082015181840152602081019050610201565b50505050905090810190601f1680156102495780820380516001836020036101000a031916815260200191505b509250505060405180910390f35b34801561026357600080fd5b506102b06004803603604081101561027a57600080fd5b81019080803573ffffffffffffffffffffffffffffffffffffffff1690602001909291908035906020019092919050505061120b565b604051808215151515815260200191505060405180910390f35b3480156102d657600080fd5b50610319600480360360208110156102ed57600080fd5b81019080803573ffffffffffffffffffffffffffffffffffffffff169060200190929190505050611222565b6040518080602001828103825283818151815260200191508051906020019080838360005b8381101561035957808201518184015260208101905061033e565b50505050905090810190601f1680156103865780820380516001836020036101000a031916815260200191505b509250505060405180910390f35b3480156103a057600080fd5b506103a9611306565b6040518082815260200191505060405180910390f35b3480156103cb57600080fd5b5061040e600480360360208110156103e257600080fd5b81019080803573ffffffffffffffffffffffffffffffffffffffff169060200190929190505050611310565b604051808215151515815260200191505060405180910390f35b34801561043457600080fd5b506104a16004803603606081101561044b57600080fd5b81019080803573ffffffffffffffffffffffffffffffffffffffff169060200190929190803573ffffffffffffffffffffffffffffffffffffffff1690602001909291908035906020019092919050505061142e565b604051808215151515815260200191505060405180910390f35b3480156104c757600080fd5b506104d06114a1565b604051808215151515815260200191505060405180910390f35b3480156104f657600080fd5b506105396004803603602081101561050d57600080fd5b81019080803573ffffffffffffffffffffffffffffffffffffffff1690602001909291905050506114b4565b604051808260ff1660ff16815260200191505060405180910390f35b34801561056157600080fd5b5061056a61150d565b604051808260ff1660ff16815260200191505060405180910390f35b34801561059257600080fd5b5061059b611520565b604051808263ffffffff1663ffffffff16815260200191505060405180910390f35b3480156105c957600080fd5b506105d2611536565b6040518082815260200191505060405180910390f35b3480156105f457600080fd5b506106416004803603604081101561060b57600080fd5b81019080803573ffffffffffffffffffffffffffffffffffffffff1690602001909291908035906020019092919050505061153c565b005b34801561064f57600080fd5b5061067c6004803603602081101561066657600080fd5b8101908080359060200190929190505050611744565b604051808215151515815260200191505060405180910390f35b3480156106a257600080fd5b506106e5600480360360208110156106b957600080fd5b81019080803573ffffffffffffffffffffffffffffffffffffffff1690602001909291905050506118ad565b604051808215151515815260200191505060405180910390f35b34801561070b57600080fd5b50610714611b45565b604051808215151515815260200191505060405180910390f35b34801561073a57600080fd5b5061077d6004803603602081101561075157600080fd5b81019080803573ffffffffffffffffffffffffffffffffffffffff169060200190929190505050611c43565b6040518080602001828103825283818151815260200191508051906020019080838360005b838110156107bd5780820151818401526020810190506107a2565b50505050905090810190601f1680156107ea5780820380516001836020036101000a031916815260200191505b509250505060405180910390f35b34801561080457600080fd5b5061080d611d27565b604051808215151515815260200191505060405180910390f35b34801561083357600080fd5b506108766004803603602081101561084a57600080fd5b81019080803573ffffffffffffffffffffffffffffffffffffffff169060200190929190505050611e25565b6040518082815260200191505060405180910390f35b34801561089857600080fd5b506108a1611e6e565b005b3480156108af57600080fd5b506108b861200d565b604051808273ffffffffffffffffffffffffffffffffffffffff1673ffffffffffffffffffffffffffffffffffffffff16815260200191505060405180910390f35b34801561090657600080fd5b5061090f612032565b6040518080602001828103825283818151815260200191508051906020019080838360005b8381101561094f578082015181840152602081019050610934565b50505050905090810190601f16801561097c5780820380516001836020036101000a031916815260200191505b509250505060405180910390f35b34801561099657600080fd5b50610a7d600480360360608110156109ad57600080fd5b81019080803573ffffffffffffffffffffffffffffffffffffffff169060200190929190803590602001906401000000008111156109ea57600080fd5b8201836020820111156109fc57600080fd5b80359060200191846001830284011164010000000083111715610a1e57600080fd5b91908080601f016020809104026020016040519081016040528093929190818152602001838380828437600081840152601f19601f820116905080830192505050505050509192919290803560ff1690602001909291905050506120d0565b604051808215151515815260200191505060405180910390f35b348015610aa357600080fd5b50610af060048036036040811015610aba57600080fd5b81019080803573ffffffffffffffffffffffffffffffffffffffff16906020019092919080359060200190929190505050612432565b604051808215151515815260200191505060405180910390f35b348015610b1657600080fd5b50610b1f6125d3565b6040518080602001828103825283818151815260200191508051906020019060200280838360005b83811015610b62578082015181840152602081019050610b47565b505050509050019250505060405180910390f35b348015610b8257600080fd5b50610bcf60048036036040811015610b9957600080fd5b81019080803573ffffffffffffffffffffffffffffffffffffffff16906020019092919080359060200190929190505050612661565b604051808215151515815260200191505060405180910390f35b348015610bf557600080fd5b50610c3860048036036020811015610c0c57600080fd5b81019080803573ffffffffffffffffffffffffffffffffffffffff1690602001909291905050506126da565b604051808215151515815260200191505060405180910390f35b348015610c5e57600080fd5b50610c8b60048036036020811015610c7557600080fd5b8101908080359060200190929190505050612733565b604051808273ffffffffffffffffffffffffffffffffffffffff1673ffffffffffffffffffffffffffffffffffffffff16815260200191505060405180910390f35b348015610cd957600080fd5b50610ce2612776565b604051808273ffffffffffffffffffffffffffffffffffffffff1673ffffffffffffffffffffffffffffffffffffffff16815260200191505060405180910390f35b348015610d3057600080fd5b50610e0a60048036036040811015610d4757600080fd5b81019080803573ffffffffffffffffffffffffffffffffffffffff16906020019092919080359060200190640100000000811115610d8457600080fd5b820183602082011115610d9657600080fd5b80359060200191846001830284011164010000000083111715610db857600080fd5b91908080601f016020809104026020016040519081016040528093929190818152602001838380828437600081840152601f19601f82011690508083019250505050505050919291929050505061279c565b604051808215151515815260200191505060405180910390f35b348015610e3057600080fd5b50610e3961288c565b6040518082815260200191505060405180910390f35b348015610e5b57600080fd5b50610e9e60048036036020811015610e7257600080fd5b81019080803573ffffffffffffffffffffffffffffffffffffffff169060200190929190505050612892565b604051808215151515815260200191505060405180910390f35b348015610ec457600080fd5b50610f2760048036036040811015610edb57600080fd5b81019080803573ffffffffffffffffffffffffffffffffffffffff169060200190929190803573ffffffffffffffffffffffffffffffffffffffff16906020019092919050505061299c565b6040518082815260200191505060405180910390f35b348015610f4957600080fd5b5061102360048036036040811015610f6057600080fd5b81019080803573ffffffffffffffffffffffffffffffffffffffff16906020019092919080359060200190640100000000811115610f9d57600080fd5b820183602082011115610faf57600080fd5b80359060200191846001830284011164010000000083111715610fd157600080fd5b91908080601f016020809104026020016040519081016040528093929190818152602001838380828437600081840152601f19601f820116905080830192505050505050509192919290505050612a23565b604051808215151515815260200191505060405180910390f35b34801561104957600080fd5b506110996004803603604081101561106057600080fd5b81019080803573ffffffffffffffffffffffffffffffffffffffff169060200190929190803560ff169060200190929190505050612c1a565b604051808215151515815260200191505060405180910390f35b3480156110bf57600080fd5b50611102600480360360208110156110d657600080fd5b81019080803573ffffffffffffffffffffffffffffffffffffffff169060200190929190505050612d39565b005b34801561111057600080fd5b506111536004803603602081101561112757600080fd5b81019080803573ffffffffffffffffffffffffffffffffffffffff169060200190929190505050612dd8565b604051808215151515815260200191505060405180910390f35b60038054600181600116156101000203166002900480601f0160208091040260200160405190810160405280929190818152602001828054600181600116156101000203166002900480156112035780601f106111d857610100808354040283529160200191611203565b820191906000526020600020905b8154815290600101906020018083116111e657829003601f168201915b505050505081565b6000611218338484612e31565b6001905092915050565b6060600b60008373ffffffffffffffffffffffffffffffffffffffff1673ffffffffffffffffffffffffffffffffffffffff1681526020019081526020016000206001018054600181600116156101000203166002900480601f0160208091040260200160405190810160405280929190818152602001828054600181600116156101000203166002900480156112fa5780601f106112cf576101008083540402835291602001916112fa565b820191906000526020600020905b8154815290600101906020018083116112dd57829003601f168201915b50505050509050919050565b6000600554905090565b60008060009054906101000a900473ffffffffffffffffffffffffffffffffffffffff1673ffffffffffffffffffffffffffffffffffffffff163373ffffffffffffffffffffffffffffffffffffffff1614806113bf57506003600a60003373ffffffffffffffffffffffffffffffffffffffff1673ffffffffffffffffffffffffffffffffffffffff16815260200190815260200160002060020160009054906101000a900460ff1660ff16145b15156113ca57600080fd5b6000600b60008473ffffffffffffffffffffffffffffffffffffffff1673ffffffffffffffffffffffffffffffffffffffff16815260200190815260200160002060020160006101000a81548160ff02191690831515021790555060019050919050565b60008060009054906101000a900473ffffffffffffffffffffffffffffffffffffffff1673ffffffffffffffffffffffffffffffffffffffff163373ffffffffffffffffffffffffffffffffffffffff1614151561148b57600080fd5b611496848484613066565b600190509392505050565b600660049054906101000a900460ff1681565b6000600a60008373ffffffffffffffffffffffffffffffffffffffff1673ffffffffffffffffffffffffffffffffffffffff16815260200190815260200160002060020160009054906101000a900460ff169050919050565b600460009054906101000a900460ff1681565b600660009054906101000a900463ffffffff1681565b60055481565b6000809054906101000a900473ffffffffffffffffffffffffffffffffffffffff1673ffffffffffffffffffffffffffffffffffffffff163373ffffffffffffffffffffffffffffffffffffffff1614151561159757600080fd5b600073ffffffffffffffffffffffffffffffffffffffff168273ffffffffffffffffffffffffffffffffffffffff161415151561163c576040517f08c379a000000000000000000000000000000000000000000000000000000000815260040180806020018281038252600b8152602001807f616464726573732030783000000000000000000000000000000000000000000081525060200191505060405180910390fd5b6116486005548261328d565b600581905550611697600960008473ffffffffffffffffffffffffffffffffffffffff1673ffffffffffffffffffffffffffffffffffffffff168152602001908152602001600020548261328d565b600960008473ffffffffffffffffffffffffffffffffffffffff1673ffffffffffffffffffffffffffffffffffffffff168152602001908152602001600020819055508173ffffffffffffffffffffffffffffffffffffffff16600073ffffffffffffffffffffffffffffffffffffffff167fddf252ad1be2c89b69c2b068fc378daa952ba7f163c4a11628f55a4df523b3ef836040518082815260200191505060405180910390a35050565b60008060009054906101000a900473ffffffffffffffffffffffffffffffffffffffff1673ffffffffffffffffffffffffffffffffffffffff163373ffffffffffffffffffffffffffffffffffffffff161415156117a157600080fd5b6117ad826008546132a9565b600960008060009054906101000a900473ffffffffffffffffffffffffffffffffffffffff1673ffffffffffffffffffffffffffffffffffffffff1673ffffffffffffffffffffffffffffffffffffffff168152602001908152602001600020541015151561181b57600080fd5b60008090505b6008548110156118a357600060078281548110151561183c57fe5b9060005260206000200160009054906101000a900473ffffffffffffffffffffffffffffffffffffffff1690506118956000809054906101000a900473ffffffffffffffffffffffffffffffffffffffff168286613066565b508080600101915050611821565b5060019050919050565b60008060009054906101000a900473ffffffffffffffffffffffffffffffffffffffff1673ffffffffffffffffffffffffffffffffffffffff163373ffffffffffffffffffffffffffffffffffffffff16148061195c57506001600a60003373ffffffffffffffffffffffffffffffffffffffff1673ffffffffffffffffffffffffffffffffffffffff16815260200190815260200160002060020160009054906101000a900460ff1660ff16115b151561196757600080fd5b6000600a60008473ffffffffffffffffffffffffffffffffffffffff1673ffffffffffffffffffffffffffffffffffffffff16815260200190815260200160002060020160016101000a81548160ff02191690831515021790555060008090505b600854811015611b3b576007818154811015156119e157fe5b9060005260206000200160009054906101000a900473ffffffffffffffffffffffffffffffffffffffff1673ffffffffffffffffffffffffffffffffffffffff168373ffffffffffffffffffffffffffffffffffffffff161415611b2e576007600160085403815481101515611a5357fe5b9060005260206000200160009054906101000a900473ffffffffffffffffffffffffffffffffffffffff16600782815481101515611a8d57fe5b9060005260206000200160006101000a81548173ffffffffffffffffffffffffffffffffffffffff021916908373ffffffffffffffffffffffffffffffffffffffff1602179055506007600160085403815481101515611ae957fe5b9060005260206000200160006101000a81549073ffffffffffffffffffffffffffffffffffffffff0219169055611b2360085460016132da565b600881905550611b3b565b80806001019150506119c8565b5060019050919050565b60008060009054906101000a900473ffffffffffffffffffffffffffffffffffffffff1673ffffffffffffffffffffffffffffffffffffffff163373ffffffffffffffffffffffffffffffffffffffff161480611bf457506003600a60003373ffffffffffffffffffffffffffffffffffffffff1673ffffffffffffffffffffffffffffffffffffffff16815260200190815260200160002060020160009054906101000a900460ff1660ff16145b1515611bff57600080fd5b60011515600660049054906101000a900460ff161515141515611c2157600080fd5b6000600660046101000a81548160ff0219169083151502179055506001905090565b6060600a60008373ffffffffffffffffffffffffffffffffffffffff1673ffffffffffffffffffffffffffffffffffffffff1681526020019081526020016000206001018054600181600116156101000203166002900480601f016020809104026020016040519081016040528092919081815260200182805460018160011615610100020316600290048015611d1b5780601f10611cf057610100808354040283529160200191611d1b565b820191906000526020600020905b815481529060010190602001808311611cfe57829003601f168201915b50505050509050919050565b60008060009054906101000a900473ffffffffffffffffffffffffffffffffffffffff1673ffffffffffffffffffffffffffffffffffffffff163373ffffffffffffffffffffffffffffffffffffffff161480611dd657506003600a60003373ffffffffffffffffffffffffffffffffffffffff1673ffffffffffffffffffffffffffffffffffffffff16815260200190815260200160002060020160009054906101000a900460ff1660ff16145b1515611de157600080fd5b60001515600660049054906101000a900460ff161515141515611e0357600080fd5b6001600660046101000a81548160ff0219169083151502179055506001905090565b6000600960008373ffffffffffffffffffffffffffffffffffffffff1673ffffffffffffffffffffffffffffffffffffffff168152602001908152602001600020549050919050565b600160009054906101000a900473ffffffffffffffffffffffffffffffffffffffff1673ffffffffffffffffffffffffffffffffffffffff163373ffffffffffffffffffffffffffffffffffffffff16141515611eca57600080fd5b600160009054906101000a900473ffffffffffffffffffffffffffffffffffffffff1673ffffffffffffffffffffffffffffffffffffffff166000809054906101000a900473ffffffffffffffffffffffffffffffffffffffff1673ffffffffffffffffffffffffffffffffffffffff167f8be0079c531659141344cd1fd0a4f28419497f9722a3daafe3b4186f6b6457e060405160405180910390a3600160009054906101000a900473ffffffffffffffffffffffffffffffffffffffff166000806101000a81548173ffffffffffffffffffffffffffffffffffffffff021916908373ffffffffffffffffffffffffffffffffffffffff1602179055506000600160006101000a81548173ffffffffffffffffffffffffffffffffffffffff021916908373ffffffffffffffffffffffffffffffffffffffff160217905550565b6000809054906101000a900473ffffffffffffffffffffffffffffffffffffffff1681565b60028054600181600116156101000203166002900480601f0160208091040260200160405190810160405280929190818152602001828054600181600116156101000203166002900480156120c85780601f1061209d576101008083540402835291602001916120c8565b820191906000526020600020905b8154815290600101906020018083116120ab57829003601f168201915b505050505081565b60008060009054906101000a900473ffffffffffffffffffffffffffffffffffffffff1673ffffffffffffffffffffffffffffffffffffffff163373ffffffffffffffffffffffffffffffffffffffff16148061217f57506001600a60003373ffffffffffffffffffffffffffffffffffffffff1673ffffffffffffffffffffffffffffffffffffffff16815260200190815260200160002060020160009054906101000a900460ff1660ff16115b151561218a57600080fd5b83600a60008673ffffffffffffffffffffffffffffffffffffffff1673ffffffffffffffffffffffffffffffffffffffff16815260200190815260200160002060000160006101000a81548173ffffffffffffffffffffffffffffffffffffffff021916908373ffffffffffffffffffffffffffffffffffffffff16021790555082600a60008673ffffffffffffffffffffffffffffffffffffffff1673ffffffffffffffffffffffffffffffffffffffff16815260200190815260200160002060010190805190602001906122619291906132f6565b5081600a60008673ffffffffffffffffffffffffffffffffffffffff1673ffffffffffffffffffffffffffffffffffffffff16815260200190815260200160002060020160006101000a81548160ff021916908360ff1602179055506001600a60008673ffffffffffffffffffffffffffffffffffffffff1673ffffffffffffffffffffffffffffffffffffffff16815260200190815260200160002060020160016101000a81548160ff02191690831515021790555060008090505b6008548110156123ac5760078181548110151561233757fe5b9060005260206000200160009054906101000a900473ffffffffffffffffffffffffffffffffffffffff1673ffffffffffffffffffffffffffffffffffffffff168573ffffffffffffffffffffffffffffffffffffffff16141561239f57600191505061242b565b808060010191505061231e565b5060078490806001815401808255809150509060018203906000526020600020016000909192909190916101000a81548173ffffffffffffffffffffffffffffffffffffffff021916908373ffffffffffffffffffffffffffffffffffffffff16021790555050612420600854600161328d565b600881905550600190505b9392505050565b60008060009054906101000a900473ffffffffffffffffffffffffffffffffffffffff1673ffffffffffffffffffffffffffffffffffffffff163373ffffffffffffffffffffffffffffffffffffffff1614151561248f57600080fd5b81600960008573ffffffffffffffffffffffffffffffffffffffff1673ffffffffffffffffffffffffffffffffffffffff16815260200190815260200160002054101515156124dd57600080fd5b612526600960008573ffffffffffffffffffffffffffffffffffffffff1673ffffffffffffffffffffffffffffffffffffffff16815260200190815260200160002054836132da565b600960008573ffffffffffffffffffffffffffffffffffffffff1673ffffffffffffffffffffffffffffffffffffffff16815260200190815260200160002081905550612575600554836132da565b6005819055503373ffffffffffffffffffffffffffffffffffffffff167fcc16f5dbb4873280815c1ee09dbd06736cffcc184412cf7a71a0fdb75d397ca5836040518082815260200191505060405180910390a26001905092915050565b6060600780548060200260200160405190810160405280929190818152602001828054801561265757602002820191906000526020600020905b8160009054906101000a900473ffffffffffffffffffffffffffffffffffffffff1673ffffffffffffffffffffffffffffffffffffffff168152602001906001019080831161260d575b5050505050905090565b600060011515600a60003373ffffffffffffffffffffffffffffffffffffffff1673ffffffffffffffffffffffffffffffffffffffff16815260200190815260200160002060020160019054906101000a900460ff1615151415156126c557600080fd5b6126d0338484613066565b6001905092915050565b6000600b60008373ffffffffffffffffffffffffffffffffffffffff1673ffffffffffffffffffffffffffffffffffffffff16815260200190815260200160002060020160009054906101000a900460ff169050919050565b600060078281548110151561274457fe5b9060005260206000200160009054906101000a900473ffffffffffffffffffffffffffffffffffffffff169050919050565b600160009054906101000a900473ffffffffffffffffffffffffffffffffffffffff1681565b60008060009054906101000a900473ffffffffffffffffffffffffffffffffffffffff1673ffffffffffffffffffffffffffffffffffffffff163373ffffffffffffffffffffffffffffffffffffffff16148061282457503373ffffffffffffffffffffffffffffffffffffffff168373ffffffffffffffffffffffffffffffffffffffff16145b151561282f57600080fd5b81600a60008573ffffffffffffffffffffffffffffffffffffffff1673ffffffffffffffffffffffffffffffffffffffff16815260200190815260200160002060010190805190602001906128859291906132f6565b5092915050565b60085481565b600060011515600a60003373ffffffffffffffffffffffffffffffffffffffff1673ffffffffffffffffffffffffffffffffffffffff16815260200190815260200160002060020160019054906101000a900460ff1615151415156128f657600080fd5b60011515600660049054906101000a900460ff16151514151561291857600080fd5b60011515600b60008473ffffffffffffffffffffffffffffffffffffffff1673ffffffffffffffffffffffffffffffffffffffff16815260200190815260200160002060020160009054906101000a900460ff16151514151561297a57600080fd5b600061298533611e25565b9050612992338483613066565b6001915050919050565b6000600c60008473ffffffffffffffffffffffffffffffffffffffff1673ffffffffffffffffffffffffffffffffffffffff16815260200190815260200160002060008373ffffffffffffffffffffffffffffffffffffffff1673ffffffffffffffffffffffffffffffffffffffff16815260200190815260200160002054905092915050565b60008060009054906101000a900473ffffffffffffffffffffffffffffffffffffffff1673ffffffffffffffffffffffffffffffffffffffff163373ffffffffffffffffffffffffffffffffffffffff161480612ad257506003600a60003373ffffffffffffffffffffffffffffffffffffffff1673ffffffffffffffffffffffffffffffffffffffff16815260200190815260200160002060020160009054906101000a900460ff1660ff16145b1515612add57600080fd5b81600b60008573ffffffffffffffffffffffffffffffffffffffff1673ffffffffffffffffffffffffffffffffffffffff1681526020019081526020016000206001019080519060200190612b339291906132f6565b5082600b60008573ffffffffffffffffffffffffffffffffffffffff1673ffffffffffffffffffffffffffffffffffffffff16815260200190815260200160002060000160006101000a81548173ffffffffffffffffffffffffffffffffffffffff021916908373ffffffffffffffffffffffffffffffffffffffff1602179055506001600b60008573ffffffffffffffffffffffffffffffffffffffff1673ffffffffffffffffffffffffffffffffffffffff16815260200190815260200160002060020160006101000a81548160ff0219169083151502179055506001905092915050565b60008060009054906101000a900473ffffffffffffffffffffffffffffffffffffffff1673ffffffffffffffffffffffffffffffffffffffff163373ffffffffffffffffffffffffffffffffffffffff161480612cc957506001600a60003373ffffffffffffffffffffffffffffffffffffffff1673ffffffffffffffffffffffffffffffffffffffff16815260200190815260200160002060020160009054906101000a900460ff1660ff16115b1515612cd457600080fd5b81600a60008573ffffffffffffffffffffffffffffffffffffffff1673ffffffffffffffffffffffffffffffffffffffff16815260200190815260200160002060020160006101000a81548160ff021916908360ff1602179055506001905092915050565b6000809054906101000a900473ffffffffffffffffffffffffffffffffffffffff1673ffffffffffffffffffffffffffffffffffffffff163373ffffffffffffffffffffffffffffffffffffffff16141515612d9457600080fd5b80600160006101000a81548173ffffffffffffffffffffffffffffffffffffffff021916908373ffffffffffffffffffffffffffffffffffffffff16021790555050565b6000600a60008373ffffffffffffffffffffffffffffffffffffffff1673ffffffffffffffffffffffffffffffffffffffff16815260200190815260200160002060020160019054906101000a900460ff169050919050565b600073ffffffffffffffffffffffffffffffffffffffff168273ffffffffffffffffffffffffffffffffffffffff1614151515612ed6576040517f08c379a000000000000000000000000000000000000000000000000000000000815260040180806020018281038252600b8152602001807f616464726573732030783000000000000000000000000000000000000000000081525060200191505060405180910390fd5b600073ffffffffffffffffffffffffffffffffffffffff168373ffffffffffffffffffffffffffffffffffffffff1614151515612f7b576040517f08c379a000000000000000000000000000000000000000000000000000000000815260040180806020018281038252600b8152602001807f616464726573732030783000000000000000000000000000000000000000000081525060200191505060405180910390fd5b80600c60008573ffffffffffffffffffffffffffffffffffffffff1673ffffffffffffffffffffffffffffffffffffffff16815260200190815260200160002060008473ffffffffffffffffffffffffffffffffffffffff1673ffffffffffffffffffffffffffffffffffffffff168152602001908152602001600020819055508173ffffffffffffffffffffffffffffffffffffffff168373ffffffffffffffffffffffffffffffffffffffff167f8c5be1e5ebec7d5bd14f71427d1e84f3dd0314c0f7b2291e5b200ac8c7c3b925836040518082815260200191505060405180910390a3505050565b600073ffffffffffffffffffffffffffffffffffffffff168273ffffffffffffffffffffffffffffffffffffffff161415151561310b576040517f08c379a000000000000000000000000000000000000000000000000000000000815260040180806020018281038252600b8152602001807f616464726573732030783000000000000000000000000000000000000000000081525060200191505060405180910390fd5b613154600960008573ffffffffffffffffffffffffffffffffffffffff1673ffffffffffffffffffffffffffffffffffffffff16815260200190815260200160002054826132da565b600960008573ffffffffffffffffffffffffffffffffffffffff1673ffffffffffffffffffffffffffffffffffffffff168152602001908152602001600020819055506131e0600960008473ffffffffffffffffffffffffffffffffffffffff1673ffffffffffffffffffffffffffffffffffffffff168152602001908152602001600020548261328d565b600960008473ffffffffffffffffffffffffffffffffffffffff1673ffffffffffffffffffffffffffffffffffffffff168152602001908152602001600020819055508173ffffffffffffffffffffffffffffffffffffffff168373ffffffffffffffffffffffffffffffffffffffff167fddf252ad1be2c89b69c2b068fc378daa952ba7f163c4a11628f55a4df523b3ef836040518082815260200191505060405180910390a3505050565b600081830190508281101515156132a357600080fd5b92915050565b6000818302905060008314806132c957508183828115156132c657fe5b04145b15156132d457600080fd5b92915050565b60008282111515156132eb57600080fd5b818303905092915050565b828054600181600116156101000203166002900490600052602060002090601f016020900481019282601f1061333757805160ff1916838001178555613365565b82800160010185558215613365579182015b82811115613364578251825591602001919060010190613349565b5b5090506133729190613376565b5090565b61339891905b8082111561339457600081600090555060010161337c565b5090565b9056fea165627a7a72305820fb3b2de63c16e1ffedd300883ef7913d4fc83f12faf6c58221da01aa1a2e10fd0029",
  "source": "pragma solidity ^0.5.0;\n\n// ----------------------------------------------------------------------------\n// Safe maths\n// ----------------------------------------------------------------------------\ncontract SafeMath {\n    function safeAdd(uint a, uint b) internal pure returns (uint c) {\n        c = a + b;\n        require(c >= a);\n    }\n    function safeSub(uint a, uint b) internal pure returns (uint c) {\n        require(b <= a);\n        c = a - b;\n    }\n    function safeMul(uint a, uint b) internal pure returns (uint c) {\n        c = a * b;\n        require(a == 0 || c / a == b);\n    }\n    function safeDiv(uint a, uint b) internal pure returns (uint c) {\n        require(b > 0);\n        c = a / b;\n    }\n}\n\n\n// ----------------------------------------------------------------------------\n// Owned contract\n// ----------------------------------------------------------------------------\n\ncontract Owned {\n    address public owner;\n    address public newOwner;\n\n    event OwnershipTransferred(address indexed _from, address indexed _to);\n\n    //The owner will me always this address even if another address pay ether to launch the contract (need to be check)\n    constructor() public {\n        owner = 0xC8395A6c3d92E661FBf7a97176b4FECd450edE8e; // my personnal address with my phone number (it is my public key)\n    }\n\n    modifier onlyOwner {\n        require(msg.sender == owner);\n        _;\n    }\n\n    function transferOwnership(address _newOwner) public onlyOwner {\n        newOwner = _newOwner;\n    }\n\n    function acceptOwnership() public {\n        require(msg.sender == newOwner);\n        emit OwnershipTransferred(owner, newOwner);\n        owner = newOwner;\n        newOwner = address(0);\n    }\n}\n\n\n// ----------------------------------------------------------------------------\n// AST contract : The first part is the ERC20 function then advance coin functions\n// ----------------------------------------------------------------------------\n\ncontract AurexiaSocialToken is Owned, SafeMath {\n    string public symbol;\n    string public name;\n    uint8 public decimals;\n    uint256 public _totalSupply;\n    uint32 public initialSupply;\n    bool public openDonation; // when true we can send our token to association \n\n    //storage of all adresses and the size of members of aurexia\n    address[] private aurexiaAccounts;\n    uint256 public sizeListAccount;\n\n    struct membre{\n      address publicKey;\n      string name;    // first name + family Name\n      uint8 grade;     // 1 for consultants, 2 for managers, 3 for partners, 4 for admin \n      bool isMember;\n    }\n\n    struct association{\n      address publicKey;\n      string name;\n      bool isPartner; // kind of whitelist of association, allowed to add and remove easier\n    }\n\n    mapping(address => uint) private balances;\n    mapping(address => membre) private aurexiaMembers;\n    mapping(address => association) private associationList;\n\n    event Transfer(address indexed from, address indexed to, uint tokens);\n    event Burn(address indexed from, uint256 value);\n\n    //mapping and event for ERC20 function but we didn't use it. I put it for good recognition of our contract as ERC20\n    mapping (address => mapping (address => uint256)) private _allowed;\n    event Approval(address indexed owner, address indexed spender, uint256 value);\n\n\n    // ------------------------------------------------------------------------\n    // Constructor\n    // ------------------------------------------------------------------------\n\n    constructor() public {\n        symbol = \"AST\";\n        name = \"AurexiaSocialToken\";\n        decimals = 18;\n        initialSupply = 20000;\n        _totalSupply = initialSupply * 10**uint256(decimals); // 1 token = 1 * 10^18 because of 18 decimals\n        balances[owner] = _totalSupply;\n        emit Transfer(address(0), owner, _totalSupply);\n\n        openDonation = false;\n\n        // add of  the owner in the whitelist aurexiaMembers\n        aurexiaMembers[owner].publicKey = owner;\n        aurexiaMembers[owner].name = \"Administrator\";\n        aurexiaMembers[owner].grade = 4;\n        aurexiaMembers[owner].isMember = true;\n\n        aurexiaMembers[0x840e1C551a512851730220c2838f54a2E7068d8F].publicKey = 0x840e1C551a512851730220c2838f54a2E7068d8F;\n        aurexiaMembers[0x840e1C551a512851730220c2838f54a2E7068d8F].name = \"Amine Badry\";\n        aurexiaMembers[0x840e1C551a512851730220c2838f54a2E7068d8F].grade = 1;\n        aurexiaMembers[0x840e1C551a512851730220c2838f54a2E7068d8F].isMember = true;\n\n        aurexiaAccounts.push(owner);\n        sizeListAccount += 1;\n        aurexiaAccounts.push(0x840e1C551a512851730220c2838f54a2E7068d8F);\n        sizeListAccount += 1;\n      }\n\n    // ------------------------------------------------------------------------\n    // ERC20 Functions (approve and allowed functions are written but we don't use it. There are just here for a good recognition of our contract as an ERC20)\n    // ref \"https://www.ethereum-france.com/qu-est-ce-qu-un-token-erc20/\" to know what do all ERC20 functions\n    // ------------------------------------------------------------------------\n\n    function totalSupply() public view returns (uint256) {\n        return _totalSupply;\n      }\n\n    function balanceOf(address _address) public view returns (uint256) {\n        return balances[_address];\n      }\n\n    function transfer(address _to, uint256 _value) public returns (bool) {\n        require(aurexiaMembers[msg.sender].isMember == true);\n        _transfer(msg.sender, _to, _value);\n        return true;\n      }\n\n    function transferFrom(address _from, address _to, uint256 _value) public onlyOwner() returns (bool) {\n        _transfer(_from, _to, _value);\n        return true;\n      }\n\n    function _transfer(address from, address to, uint256 tokens) private {\n        require(to != address(0), \"address 0x0\");\n        balances[from] = safeSub(balances[from], tokens);\n        balances[to] = safeAdd(balances[to], tokens);\n        emit Transfer(from, to, tokens);\n      }\n\n\n// ***********************************************************************************//\n    function approve(address spender, uint256 value) public returns (bool) {\n        _approve(msg.sender, spender, value);\n        return true;\n    }\n\n    function _approve(address sender, address spender, uint256 value) internal {\n        require(spender != address(0), \"address 0x0\");\n        require(sender != address(0), \"address 0x0\");\n\n        _allowed[sender][spender] = value;\n        emit Approval(sender, spender, value);\n    }\n\n    function allowance(address sender, address spender) public view returns (uint256) {\n        return _allowed[sender][spender];\n    }\n\n  // ------------------------------------------------------------------------\n  // Advanced functions : AST functions\n  // ------------------------------------------------------------------------\n\n  // Creation of token, increase both total supply and the account which receive all the new tokens\n\n//be careful when you create token to be aware of the 18 decimals. For exemple create 300 tokens is 300 * 10^18 in the argument value of the function\n    function mint(address _receiver, uint256 _value) public onlyOwner() { \n        require(_receiver != address(0), \"address 0x0\");\n        _totalSupply = safeAdd(_totalSupply, _value);\n        balances[_receiver] = safeAdd(balances[_receiver],_value);\n        emit Transfer(address(0), _receiver, _value);\n    }\n\n  // Destruction of token, erase the amount of token from an account and update the total supply\n\n//be careful when you destroy token to be aware of the 18 decimals. For exemple destroy 300 tokens is 300 * 10^18 in the argument value of the function\n    function burn(address _address, uint256 _value) public onlyOwner() returns (bool success) {\n        require(balances[_address] >= _value);   // Check if the sender has enough\n        balances[_address] = safeSub(balances[_address], _value);           // Subtract from the sender\n        _totalSupply = safeSub(_totalSupply, _value);                   // Updates totalSupply\n        emit Burn(msg.sender, _value);\n        return true;\n    }\n\n\n    //transfer tokens to all aurexia members from administrator\n\n    function transferAll(uint256 _value) public onlyOwner() returns (bool success) {\n        require(balances[owner] >= safeMul(_value,sizeListAccount));\n        for (uint i=0; i<sizeListAccount; i++){\n          address account = aurexiaAccounts[i];\n          _transfer(owner, account, _value);\n        }\n        return true;\n    }\n\n  // Functions to add/remove new members in AurexiaMembers (whitelist)\n\n    function addToAurexiaMembers (address _address, string memory _name, uint8 _grade) public returns (bool) {\n        require (msg.sender == owner || aurexiaMembers[msg.sender].grade > 1);\n        aurexiaMembers[_address].publicKey = _address;\n        aurexiaMembers[_address].name = _name;\n        aurexiaMembers[_address].grade = _grade;\n        aurexiaMembers[_address].isMember = true;\n        for (uint i=0; i<sizeListAccount; i++){\n          if (_address == aurexiaAccounts[i]){\n            return true;\n          }\n        }\n        aurexiaAccounts.push(_address);\n        sizeListAccount = safeAdd(sizeListAccount, 1);\n        return true;\n    }\n\n\n    function remAurexiaMembers (address _address) public returns (bool){\n        require (msg.sender == owner || aurexiaMembers[msg.sender].grade > 1);\n        aurexiaMembers[_address].isMember = false;\n        for (uint i=0; i<sizeListAccount; i++ ){\n          if (_address == aurexiaAccounts[i]){\n            aurexiaAccounts[i] = aurexiaAccounts[sizeListAccount - 1];\n            delete aurexiaAccounts[sizeListAccount - 1];\n            sizeListAccount = safeSub(sizeListAccount, 1);\n            break;\n          }\n        }\n        return true;\n    }\n\n    function getMembers() public view returns (address[] memory){\n        return aurexiaAccounts;\n    }\n\n    function getAddress (uint256 index) public view returns (address){\n        return aurexiaAccounts[index];\n    }\n\n  \n  //function to check member in AurexiaMembers (whitelist)\n\n    function isInAurexiaMembers (address _address) public view returns (bool){\n        return aurexiaMembers[_address].isMember;\n    }\n\n  //functions to get all information from a member (you must be in the whitelist to have access to this)\n    function getName (address _address) public view returns (string memory){\n        return aurexiaMembers[_address].name;\n    }\n\n    function getGrade (address _address) public view returns (uint8){\n        return aurexiaMembers[_address].grade;\n    }\n\n\n  //function to modify grade \n\n    function modifyGrade (address _address, uint8 newGrade) public returns (bool){   // only owner and manager and partner can promote somebody\n        require (msg.sender == owner || aurexiaMembers[msg.sender].grade > 1);\n        aurexiaMembers[_address].grade = newGrade;\n        return true;\n    }\n\n  //function to modify name (only owner and the one who want to change his/her name)\n\n    function modifyName (address _address, string memory newName) public returns (bool){\n        require (msg.sender == owner || _address == msg.sender);\n        aurexiaMembers[_address].name = newName;\n    }\n  \n  //function to manage association \n    \n    function addAssociation (address _address, string memory _name) public returns (bool){\n        require (msg.sender == owner || aurexiaMembers[msg.sender].grade == 3);\n        associationList[_address].name = _name;\n        associationList[_address].publicKey = _address;\n        associationList[_address].isPartner = true;\n        return true;\n    }\n\n    function remAssociation (address _address) public returns (bool){\n        require (msg.sender == owner || aurexiaMembers[msg.sender].grade == 3);\n        associationList[_address].isPartner = false;\n        return true; \n    }\n\n    function transferToAssociation (address _address) public returns (bool){\n        require (aurexiaMembers[msg.sender].isMember == true);\n        require (openDonation == true);\n        require (associationList[_address].isPartner == true);\n        uint256 value = balanceOf(msg.sender);\n        _transfer (msg.sender, _address, value);\n        return true; \n    }\n\n    function launchDonation () public returns (bool){\n        require (msg.sender == owner || aurexiaMembers[msg.sender].grade == 3);\n        require (openDonation == false);\n        openDonation = true; \n        return true;\n    }\n\n    function closeDonation () public returns (bool){\n        require (msg.sender == owner || aurexiaMembers[msg.sender].grade == 3);\n        require (openDonation == true);\n        openDonation = false;\n        return true;\n    }\n\n  //Read function for associations\n\n    function isAssoPartner (address _address) public view returns (bool){\n        return associationList[_address].isPartner;\n    }\n\n    function getAssoName (address _address) public view returns (string memory){\n        return associationList[_address].name;\n    }\n\n\n  // functions hash transaction : We want to get and store the wording (libell) of the transaction\n\n\n  // ------------------------------------------------------------------------\n  // Function for event management\n  // ------------------------------------------------------------------------\n\n\n            // A faire //\n\n\n}\n\n\n\n\n",
  "sourcePath": "C:/Users/spierre/Desktop/Aurexia Git/AST_fortmatic/contracts/AurexiaSocialToken.sol",
  "compiler": {
    "name": "solc",
    "version": "0.5.0+commit.1d4f565a.Emscripten.clang"
  },
  "schemaVersion": "3.0.8",
  "updatedAt": "2019-05-10T14:47:27.094Z",
  "devdoc": {
    "methods": {}
  },
  "userdoc": {
    "methods": {}
  }
}