{
  "contractName": "AurexiaSocialToken",
  "abi": [
    {
      "constant": true,
      "inputs": [],
      "name": "name",
      "outputs": [
        {
          "name": "",
          "type": "bytes32"
        }
      ],
      "payable": false,
      "stateMutability": "view",
      "type": "function",
      "signature": "0x06fdde03"
    },
    {
      "constant": true,
      "inputs": [],
      "name": "sizeListCharity",
      "outputs": [
        {
          "name": "",
          "type": "uint256"
        }
      ],
      "payable": false,
      "stateMutability": "view",
      "type": "function",
      "signature": "0x1c6c72b0"
    },
    {
      "constant": true,
      "inputs": [],
      "name": "openDonation",
      "outputs": [
        {
          "name": "",
          "type": "bool"
        }
      ],
      "payable": false,
      "stateMutability": "view",
      "type": "function",
      "signature": "0x30e3fcad"
    },
    {
      "constant": true,
      "inputs": [],
      "name": "decimals",
      "outputs": [
        {
          "name": "",
          "type": "uint8"
        }
      ],
      "payable": false,
      "stateMutability": "view",
      "type": "function",
      "signature": "0x313ce567"
    },
    {
      "constant": true,
      "inputs": [],
      "name": "initialSupply",
      "outputs": [
        {
          "name": "",
          "type": "uint32"
        }
      ],
      "payable": false,
      "stateMutability": "view",
      "type": "function",
      "signature": "0x378dc3dc"
    },
    {
      "constant": true,
      "inputs": [],
      "name": "_totalSupply",
      "outputs": [
        {
          "name": "",
          "type": "uint256"
        }
      ],
      "payable": false,
      "stateMutability": "view",
      "type": "function",
      "signature": "0x3eaaf86b"
    },
    {
      "constant": false,
      "inputs": [],
      "name": "acceptOwnership",
      "outputs": [],
      "payable": false,
      "stateMutability": "nonpayable",
      "type": "function",
      "signature": "0x79ba5097"
    },
    {
      "constant": true,
      "inputs": [],
      "name": "owner",
      "outputs": [
        {
          "name": "",
          "type": "address"
        }
      ],
      "payable": false,
      "stateMutability": "view",
      "type": "function",
      "signature": "0x8da5cb5b"
    },
    {
      "constant": true,
      "inputs": [],
      "name": "symbol",
      "outputs": [
        {
          "name": "",
          "type": "bytes32"
        }
      ],
      "payable": false,
      "stateMutability": "view",
      "type": "function",
      "signature": "0x95d89b41"
    },
    {
      "constant": true,
      "inputs": [],
      "name": "initialDonation",
      "outputs": [
        {
          "name": "",
          "type": "uint256"
        }
      ],
      "payable": false,
      "stateMutability": "view",
      "type": "function",
      "signature": "0xb47333ca"
    },
    {
      "constant": true,
      "inputs": [],
      "name": "indexNewWording",
      "outputs": [
        {
          "name": "",
          "type": "uint256"
        }
      ],
      "payable": false,
      "stateMutability": "view",
      "type": "function",
      "signature": "0xd3c49371"
    },
    {
      "constant": true,
      "inputs": [],
      "name": "newOwner",
      "outputs": [
        {
          "name": "",
          "type": "address"
        }
      ],
      "payable": false,
      "stateMutability": "view",
      "type": "function",
      "signature": "0xd4ee1d90"
    },
    {
      "constant": true,
      "inputs": [],
      "name": "sizeListAccount",
      "outputs": [
        {
          "name": "",
          "type": "uint256"
        }
      ],
      "payable": false,
      "stateMutability": "view",
      "type": "function",
      "signature": "0xd6eb5782"
    },
    {
      "constant": false,
      "inputs": [
        {
          "name": "_newOwner",
          "type": "address"
        }
      ],
      "name": "transferOwnership",
      "outputs": [],
      "payable": false,
      "stateMutability": "nonpayable",
      "type": "function",
      "signature": "0xf2fde38b"
    },
    {
      "inputs": [],
      "payable": false,
      "stateMutability": "nonpayable",
      "type": "constructor",
      "signature": "constructor"
    },
    {
      "anonymous": false,
      "inputs": [
        {
          "indexed": true,
          "name": "from",
          "type": "address"
        },
        {
          "indexed": true,
          "name": "to",
          "type": "address"
        },
        {
          "indexed": false,
          "name": "tokens",
          "type": "uint256"
        }
      ],
      "name": "Transfer",
      "type": "event",
      "signature": "0xddf252ad1be2c89b69c2b068fc378daa952ba7f163c4a11628f55a4df523b3ef"
    },
    {
      "anonymous": false,
      "inputs": [
        {
          "indexed": true,
          "name": "owner",
          "type": "address"
        },
        {
          "indexed": true,
          "name": "spender",
          "type": "address"
        },
        {
          "indexed": false,
          "name": "value",
          "type": "uint256"
        }
      ],
      "name": "Approval",
      "type": "event",
      "signature": "0x8c5be1e5ebec7d5bd14f71427d1e84f3dd0314c0f7b2291e5b200ac8c7c3b925"
    },
    {
      "anonymous": false,
      "inputs": [
        {
          "indexed": true,
          "name": "_from",
          "type": "address"
        },
        {
          "indexed": true,
          "name": "_to",
          "type": "address"
        }
      ],
      "name": "OwnershipTransferred",
      "type": "event",
      "signature": "0x8be0079c531659141344cd1fd0a4f28419497f9722a3daafe3b4186f6b6457e0"
    },
    {
      "constant": true,
      "inputs": [],
      "name": "totalSupply",
      "outputs": [
        {
          "name": "",
          "type": "uint256"
        }
      ],
      "payable": false,
      "stateMutability": "view",
      "type": "function",
      "signature": "0x18160ddd"
    },
    {
      "constant": true,
      "inputs": [
        {
          "name": "_address",
          "type": "address"
        }
      ],
      "name": "balanceOf",
      "outputs": [
        {
          "name": "",
          "type": "uint256"
        }
      ],
      "payable": false,
      "stateMutability": "view",
      "type": "function",
      "signature": "0x70a08231"
    },
    {
      "constant": false,
      "inputs": [
        {
          "name": "_to",
          "type": "address"
        },
        {
          "name": "_value",
          "type": "uint256"
        },
        {
          "name": "_text",
          "type": "bytes32"
        }
      ],
      "name": "transfer",
      "outputs": [
        {
          "name": "",
          "type": "bool"
        }
      ],
      "payable": false,
      "stateMutability": "nonpayable",
      "type": "function",
      "signature": "0x57cfeeee"
    },
    {
      "constant": false,
      "inputs": [
        {
          "name": "_from",
          "type": "address"
        },
        {
          "name": "_to",
          "type": "address"
        },
        {
          "name": "_value",
          "type": "uint256"
        },
        {
          "name": "_text",
          "type": "bytes32"
        }
      ],
      "name": "transferFrom",
      "outputs": [
        {
          "name": "",
          "type": "bool"
        }
      ],
      "payable": false,
      "stateMutability": "nonpayable",
      "type": "function",
      "signature": "0x401e3367"
    },
    {
      "constant": false,
      "inputs": [
        {
          "name": "_address",
          "type": "address"
        },
        {
          "name": "_name",
          "type": "bytes32"
        },
        {
          "name": "_grade",
          "type": "uint8"
        }
      ],
      "name": "addToAurexiaMembers",
      "outputs": [
        {
          "name": "",
          "type": "bool"
        }
      ],
      "payable": false,
      "stateMutability": "nonpayable",
      "type": "function",
      "signature": "0x7112ba11"
    },
    {
      "constant": false,
      "inputs": [
        {
          "name": "_address",
          "type": "address[]"
        },
        {
          "name": "_name",
          "type": "bytes32[]"
        },
        {
          "name": "_grade",
          "type": "uint8[]"
        },
        {
          "name": "taille",
          "type": "uint256"
        }
      ],
      "name": "authorizeManyMembers",
      "outputs": [
        {
          "name": "",
          "type": "bool"
        }
      ],
      "payable": false,
      "stateMutability": "nonpayable",
      "type": "function",
      "signature": "0xeed414b8"
    },
    {
      "constant": false,
      "inputs": [
        {
          "name": "_address",
          "type": "address"
        }
      ],
      "name": "remAurexiaMembers",
      "outputs": [
        {
          "name": "",
          "type": "bool"
        }
      ],
      "payable": false,
      "stateMutability": "nonpayable",
      "type": "function",
      "signature": "0x53e18bdc"
    },
    {
      "constant": true,
      "inputs": [],
      "name": "getAllWordings",
      "outputs": [
        {
          "name": "",
          "type": "address[]"
        },
        {
          "name": "",
          "type": "address[]"
        },
        {
          "name": "",
          "type": "uint256[]"
        },
        {
          "name": "",
          "type": "bytes32[]"
        }
      ],
      "payable": false,
      "stateMutability": "view",
      "type": "function",
      "signature": "0xe0fcd9ff"
    },
    {
      "constant": true,
      "inputs": [
        {
          "name": "_address",
          "type": "address"
        }
      ],
      "name": "getPersonalWordings",
      "outputs": [
        {
          "name": "",
          "type": "address[]"
        },
        {
          "name": "",
          "type": "address[]"
        },
        {
          "name": "",
          "type": "uint256[]"
        },
        {
          "name": "",
          "type": "bytes32[]"
        }
      ],
      "payable": false,
      "stateMutability": "view",
      "type": "function",
      "signature": "0xcecb2a88"
    },
    {
      "constant": true,
      "inputs": [
        {
          "name": "_address",
          "type": "address"
        }
      ],
      "name": "getPersoInfoTransaction",
      "outputs": [
        {
          "name": "",
          "type": "uint256"
        },
        {
          "name": "",
          "type": "uint256"
        },
        {
          "name": "",
          "type": "uint256"
        },
        {
          "name": "",
          "type": "uint256"
        },
        {
          "name": "",
          "type": "uint256"
        }
      ],
      "payable": false,
      "stateMutability": "view",
      "type": "function",
      "signature": "0x04c6928c"
    },
    {
      "constant": true,
      "inputs": [],
      "name": "getAllInfoTransaction",
      "outputs": [
        {
          "name": "",
          "type": "uint256[]"
        },
        {
          "name": "",
          "type": "uint256[]"
        },
        {
          "name": "",
          "type": "uint256[]"
        },
        {
          "name": "",
          "type": "uint256[]"
        },
        {
          "name": "",
          "type": "uint256[]"
        },
        {
          "name": "",
          "type": "bytes32[]"
        }
      ],
      "payable": false,
      "stateMutability": "view",
      "type": "function",
      "signature": "0xabbf7a73"
    },
    {
      "constant": true,
      "inputs": [],
      "name": "getMembers",
      "outputs": [
        {
          "name": "",
          "type": "address[]"
        }
      ],
      "payable": false,
      "stateMutability": "view",
      "type": "function",
      "signature": "0x9eab5253"
    },
    {
      "constant": true,
      "inputs": [],
      "name": "getMembersCharityAndName",
      "outputs": [
        {
          "name": "",
          "type": "address[]"
        },
        {
          "name": "",
          "type": "bytes32[]"
        }
      ],
      "payable": false,
      "stateMutability": "view",
      "type": "function",
      "signature": "0x33b0f6cb"
    },
    {
      "constant": true,
      "inputs": [],
      "name": "getMembersAndNameAndBalance",
      "outputs": [
        {
          "name": "",
          "type": "address[]"
        },
        {
          "name": "",
          "type": "bytes32[]"
        },
        {
          "name": "",
          "type": "uint256[]"
        }
      ],
      "payable": false,
      "stateMutability": "view",
      "type": "function",
      "signature": "0x77f36225"
    },
    {
      "constant": true,
      "inputs": [
        {
          "name": "_address",
          "type": "address"
        }
      ],
      "name": "getName",
      "outputs": [
        {
          "name": "",
          "type": "bytes32"
        }
      ],
      "payable": false,
      "stateMutability": "view",
      "type": "function",
      "signature": "0x5fd4b08a"
    },
    {
      "constant": true,
      "inputs": [
        {
          "name": "_address",
          "type": "address"
        }
      ],
      "name": "getNbrTransaction",
      "outputs": [
        {
          "name": "",
          "type": "uint256"
        }
      ],
      "payable": false,
      "stateMutability": "view",
      "type": "function",
      "signature": "0x61a48dcf"
    },
    {
      "constant": true,
      "inputs": [
        {
          "name": "_address",
          "type": "address"
        }
      ],
      "name": "getTotalSend",
      "outputs": [
        {
          "name": "",
          "type": "uint256"
        }
      ],
      "payable": false,
      "stateMutability": "view",
      "type": "function",
      "signature": "0x6f485075"
    },
    {
      "constant": true,
      "inputs": [
        {
          "name": "_address",
          "type": "address"
        }
      ],
      "name": "getTotalReceive",
      "outputs": [
        {
          "name": "",
          "type": "uint256"
        }
      ],
      "payable": false,
      "stateMutability": "view",
      "type": "function",
      "signature": "0x33352d03"
    },
    {
      "constant": true,
      "inputs": [
        {
          "name": "_address",
          "type": "address"
        }
      ],
      "name": "getNbrSend",
      "outputs": [
        {
          "name": "",
          "type": "uint256"
        }
      ],
      "payable": false,
      "stateMutability": "view",
      "type": "function",
      "signature": "0x38790228"
    },
    {
      "constant": true,
      "inputs": [
        {
          "name": "_address",
          "type": "address"
        }
      ],
      "name": "getNbrReceive",
      "outputs": [
        {
          "name": "",
          "type": "uint256"
        }
      ],
      "payable": false,
      "stateMutability": "view",
      "type": "function",
      "signature": "0x1f1423b1"
    },
    {
      "constant": false,
      "inputs": [
        {
          "name": "_address",
          "type": "address"
        },
        {
          "name": "newGrade",
          "type": "uint8"
        }
      ],
      "name": "modifyGrade",
      "outputs": [
        {
          "name": "",
          "type": "bool"
        }
      ],
      "payable": false,
      "stateMutability": "nonpayable",
      "type": "function",
      "signature": "0xf09d0874"
    },
    {
      "constant": false,
      "inputs": [
        {
          "name": "_address",
          "type": "address"
        },
        {
          "name": "newName",
          "type": "bytes32"
        }
      ],
      "name": "modifyName",
      "outputs": [
        {
          "name": "",
          "type": "bool"
        }
      ],
      "payable": false,
      "stateMutability": "nonpayable",
      "type": "function",
      "signature": "0x9ca1221c"
    },
    {
      "constant": false,
      "inputs": [
        {
          "name": "_receiver",
          "type": "address"
        },
        {
          "name": "_value",
          "type": "uint256"
        }
      ],
      "name": "mint",
      "outputs": [],
      "payable": false,
      "stateMutability": "nonpayable",
      "type": "function",
      "signature": "0x40c10f19"
    },
    {
      "constant": false,
      "inputs": [
        {
          "name": "_address",
          "type": "address"
        },
        {
          "name": "_value",
          "type": "uint256"
        }
      ],
      "name": "burn",
      "outputs": [
        {
          "name": "success",
          "type": "bool"
        }
      ],
      "payable": false,
      "stateMutability": "nonpayable",
      "type": "function",
      "signature": "0x9dc29fac"
    },
    {
      "constant": false,
      "inputs": [
        {
          "name": "_address",
          "type": "address"
        },
        {
          "name": "_name",
          "type": "bytes32"
        }
      ],
      "name": "addAssociation",
      "outputs": [
        {
          "name": "",
          "type": "bool"
        }
      ],
      "payable": false,
      "stateMutability": "nonpayable",
      "type": "function",
      "signature": "0x097a80b8"
    },
    {
      "constant": false,
      "inputs": [
        {
          "name": "_address",
          "type": "address"
        }
      ],
      "name": "remAssociation",
      "outputs": [
        {
          "name": "",
          "type": "bool"
        }
      ],
      "payable": false,
      "stateMutability": "nonpayable",
      "type": "function",
      "signature": "0x1a76e209"
    },
    {
      "constant": false,
      "inputs": [
        {
          "name": "_address",
          "type": "address"
        },
        {
          "name": "_amount",
          "type": "uint256"
        }
      ],
      "name": "transferToAssociation",
      "outputs": [
        {
          "name": "",
          "type": "bool"
        }
      ],
      "payable": false,
      "stateMutability": "nonpayable",
      "type": "function",
      "signature": "0x32e639e4"
    },
    {
      "constant": true,
      "inputs": [],
      "name": "getCharityAddress",
      "outputs": [
        {
          "name": "",
          "type": "address[]"
        }
      ],
      "payable": false,
      "stateMutability": "view",
      "type": "function",
      "signature": "0x1ad06393"
    },
    {
      "constant": true,
      "inputs": [],
      "name": "getCharitySize",
      "outputs": [
        {
          "name": "",
          "type": "uint256"
        }
      ],
      "payable": false,
      "stateMutability": "view",
      "type": "function",
      "signature": "0xae1de61c"
    },
    {
      "constant": false,
      "inputs": [],
      "name": "launchDonation",
      "outputs": [
        {
          "name": "",
          "type": "bool"
        }
      ],
      "payable": false,
      "stateMutability": "nonpayable",
      "type": "function",
      "signature": "0x60aa8c73"
    },
    {
      "constant": false,
      "inputs": [],
      "name": "closeDonation",
      "outputs": [
        {
          "name": "",
          "type": "bool"
        }
      ],
      "payable": false,
      "stateMutability": "nonpayable",
      "type": "function",
      "signature": "0x59abef9a"
    },
    {
      "constant": true,
      "inputs": [],
      "name": "getCharityAndNameAndBalance",
      "outputs": [
        {
          "name": "",
          "type": "address[]"
        },
        {
          "name": "",
          "type": "bytes32[]"
        },
        {
          "name": "",
          "type": "uint256[]"
        }
      ],
      "payable": false,
      "stateMutability": "view",
      "type": "function",
      "signature": "0x38fafcc0"
    },
    {
      "constant": true,
      "inputs": [],
      "name": "isDonationOpen",
      "outputs": [
        {
          "name": "",
          "type": "bool"
        }
      ],
      "payable": false,
      "stateMutability": "view",
      "type": "function",
      "signature": "0x33ccaffa"
    },
    {
      "constant": false,
      "inputs": [
        {
          "name": "spender",
          "type": "address"
        },
        {
          "name": "value",
          "type": "uint256"
        }
      ],
      "name": "approve",
      "outputs": [
        {
          "name": "",
          "type": "bool"
        }
      ],
      "payable": false,
      "stateMutability": "nonpayable",
      "type": "function",
      "signature": "0x095ea7b3"
    },
    {
      "constant": true,
      "inputs": [
        {
          "name": "sender",
          "type": "address"
        },
        {
          "name": "spender",
          "type": "address"
        }
      ],
      "name": "allowance",
      "outputs": [
        {
          "name": "",
          "type": "uint256"
        }
      ],
      "payable": false,
      "stateMutability": "view",
      "type": "function",
      "signature": "0xdd62ed3e"
    }
  ],
  "bytecode": "0x608060405234801561001057600080fd5b5073c4d446c6b924c431f89214319d5a3e6bb67e76276000806101000a81548173ffffffffffffffffffffffffffffffffffffffff021916908373ffffffffffffffffffffffffffffffffffffffff1602179055507f41535400000000000000000000000000000000000000000000000000000000006002819055507f41757265786961536f6369616c546f6b656e00000000000000000000000000006003819055506012600460006101000a81548160ff021916908360ff160217905550614e20600660006101000a81548163ffffffff021916908363ffffffff160217905550600460009054906101000a900460ff1660ff16600a0a606402600781905550600460009054906101000a900460ff1660ff16600a0a600660009054906101000a900463ffffffff1663ffffffff1602600581905550600554601160008060009054906101000a900473ffffffffffffffffffffffffffffffffffffffff1673ffffffffffffffffffffffffffffffffffffffff1673ffffffffffffffffffffffffffffffffffffffff168152602001908152602001600020819055506000809054906101000a900473ffffffffffffffffffffffffffffffffffffffff1673ffffffffffffffffffffffffffffffffffffffff16600073ffffffffffffffffffffffffffffffffffffffff167fddf252ad1be2c89b69c2b068fc378daa952ba7f163c4a11628f55a4df523b3ef6005546040518082815260200191505060405180910390a3600060096000808152602001908152602001600020600001819055506000809054906101000a900473ffffffffffffffffffffffffffffffffffffffff166009600080815260200190815260200160002060020160006101000a81548173ffffffffffffffffffffffffffffffffffffffff021916908373ffffffffffffffffffffffffffffffffffffffff16021790555060055460096000808152602001908152602001600020600301819055507f436f6e7472616374204372656174696f6e00000000000000000000000000000060096000808152602001908152602001600020600401819055506001600b819055506000600a60008060009054906101000a900473ffffffffffffffffffffffffffffffffffffffff1673ffffffffffffffffffffffffffffffffffffffff1673ffffffffffffffffffffffffffffffffffffffff1681526020019081526020016000206000808152602001908152602001600020600001819055506000809054906101000a900473ffffffffffffffffffffffffffffffffffffffff16600a60008060009054906101000a900473ffffffffffffffffffffffffffffffffffffffff1673ffffffffffffffffffffffffffffffffffffffff1673ffffffffffffffffffffffffffffffffffffffff168152602001908152602001600020600080815260200190815260200160002060020160006101000a81548173ffffffffffffffffffffffffffffffffffffffff021916908373ffffffffffffffffffffffffffffffffffffffff160217905550600554600a60008060009054906101000a900473ffffffffffffffffffffffffffffffffffffffff1673ffffffffffffffffffffffffffffffffffffffff1673ffffffffffffffffffffffffffffffffffffffff1681526020019081526020016000206000808152602001908152602001600020600301819055507f436f6e7472616374204372656174696f6e000000000000000000000000000000600a60008060009054906101000a900473ffffffffffffffffffffffffffffffffffffffff1673ffffffffffffffffffffffffffffffffffffffff1673ffffffffffffffffffffffffffffffffffffffff1681526020019081526020016000206000808152602001908152602001600020600401819055506000809054906101000a900473ffffffffffffffffffffffffffffffffffffffff16601260008060009054906101000a900473ffffffffffffffffffffffffffffffffffffffff1673ffffffffffffffffffffffffffffffffffffffff1673ffffffffffffffffffffffffffffffffffffffff16815260200190815260200160002060000160006101000a81548173ffffffffffffffffffffffffffffffffffffffff021916908373ffffffffffffffffffffffffffffffffffffffff1602179055507f41646d696e6973747261746f7200000000000000000000000000000000000000601260008060009054906101000a900473ffffffffffffffffffffffffffffffffffffffff1673ffffffffffffffffffffffffffffffffffffffff1673ffffffffffffffffffffffffffffffffffffffff168152602001908152602001600020600101819055506004601260008060009054906101000a900473ffffffffffffffffffffffffffffffffffffffff1673ffffffffffffffffffffffffffffffffffffffff1673ffffffffffffffffffffffffffffffffffffffff16815260200190815260200160002060020160006101000a81548160ff021916908360ff1602179055506001601260008060009054906101000a900473ffffffffffffffffffffffffffffffffffffffff1673ffffffffffffffffffffffffffffffffffffffff1673ffffffffffffffffffffffffffffffffffffffff16815260200190815260200160002060020160016101000a81548160ff0219169083151502179055506001601260008060009054906101000a900473ffffffffffffffffffffffffffffffffffffffff1673ffffffffffffffffffffffffffffffffffffffff1673ffffffffffffffffffffffffffffffffffffffff168152602001908152602001600020600301819055506001601260008060009054906101000a900473ffffffffffffffffffffffffffffffffffffffff1673ffffffffffffffffffffffffffffffffffffffff1673ffffffffffffffffffffffffffffffffffffffff16815260200190815260200160002060050181905550600554601260008060009054906101000a900473ffffffffffffffffffffffffffffffffffffffff1673ffffffffffffffffffffffffffffffffffffffff1673ffffffffffffffffffffffffffffffffffffffff16815260200190815260200160002060060181905550600c6000809054906101000a900473ffffffffffffffffffffffffffffffffffffffff1690806001815401808255809150509060018203906000526020600020016000909192909190916101000a81548173ffffffffffffffffffffffffffffffffffffffff021916908373ffffffffffffffffffffffffffffffffffffffff160217905550506001600d6000828254019250508190555060106000809054906101000a900473ffffffffffffffffffffffffffffffffffffffff1690806001815401808255809150509060018203906000526020600020016000909192909190916101000a81548173ffffffffffffffffffffffffffffffffffffffff021916908373ffffffffffffffffffffffffffffffffffffffff160217905550506000600860006101000a81548160ff021916908315150217905550615ae08062000a556000396000f3fe608060405260043610610251576000357c0100000000000000000000000000000000000000000000000000000000900463ffffffff16806304c6928c1461025657806306fdde03146102d7578063095ea7b314610302578063097a80b81461037557806318160ddd146103e85780631a76e209146104135780631ad063931461047c5780631c6c72b0146104e85780631f1423b11461051357806330e3fcad14610578578063313ce567146105a757806332e639e4146105d857806333352d031461064b57806333b0f6cb146106b057806333ccaffa14610764578063378dc3dc1461079357806338790228146107ca57806338fafcc01461082f5780633eaaf86b1461092b578063401e33671461095657806340c10f19146109f357806353e18bdc14610a4e57806357cfeeee14610ab757806359abef9a14610b345780635fd4b08a14610b6357806360aa8c7314610bc857806361a48dcf14610bf75780636f48507514610c5c57806370a0823114610cc15780637112ba1114610d2657806377f3622514610da657806379ba509714610ea25780638da5cb5b14610eb957806395d89b4114610f105780639ca1221c14610f3b5780639dc29fac14610fae5780639eab525314611021578063abbf7a731461108d578063ae1de61c14611261578063b47333ca1461128c578063cecb2a88146112b7578063d3c4937114611435578063d4ee1d9014611460578063d6eb5782146114b7578063dd62ed3e146114e2578063e0fcd9ff14611567578063eed414b8146116ab578063f09d0874146118ba578063f2fde38b14611930575b600080fd5b34801561026257600080fd5b506102a56004803603602081101561027957600080fd5b81019080803573ffffffffffffffffffffffffffffffffffffffff169060200190929190505050611981565b604051808681526020018581526020018481526020018381526020018281526020019550505050505060405180910390f35b3480156102e357600080fd5b506102ec6119e6565b6040518082815260200191505060405180910390f35b34801561030e57600080fd5b5061035b6004803603604081101561032557600080fd5b81019080803573ffffffffffffffffffffffffffffffffffffffff169060200190929190803590602001909291905050506119ec565b604051808215151515815260200191505060405180910390f35b34801561038157600080fd5b506103ce6004803603604081101561039857600080fd5b81019080803573ffffffffffffffffffffffffffffffffffffffff16906020019092919080359060200190929190505050611a03565b604051808215151515815260200191505060405180910390f35b3480156103f457600080fd5b506103fd611dbd565b6040518082815260200191505060405180910390f35b34801561041f57600080fd5b506104626004803603602081101561043657600080fd5b81019080803573ffffffffffffffffffffffffffffffffffffffff169060200190929190505050611dc7565b604051808215151515815260200191505060405180910390f35b34801561048857600080fd5b50610491612075565b6040518080602001828103825283818151815260200191508051906020019060200280838360005b838110156104d45780820151818401526020810190506104b9565b505050509050019250505060405180910390f35b3480156104f457600080fd5b506104fd612103565b6040518082815260200191505060405180910390f35b34801561051f57600080fd5b506105626004803603602081101561053657600080fd5b81019080803573ffffffffffffffffffffffffffffffffffffffff169060200190929190505050612109565b6040518082815260200191505060405180910390f35b34801561058457600080fd5b5061058d612155565b604051808215151515815260200191505060405180910390f35b3480156105b357600080fd5b506105bc612168565b604051808260ff1660ff16815260200191505060405180910390f35b3480156105e457600080fd5b50610631600480360360408110156105fb57600080fd5b81019080803573ffffffffffffffffffffffffffffffffffffffff1690602001909291908035906020019092919050505061217b565b604051808215151515815260200191505060405180910390f35b34801561065757600080fd5b5061069a6004803603602081101561066e57600080fd5b81019080803573ffffffffffffffffffffffffffffffffffffffff16906020019092919050505061229f565b6040518082815260200191505060405180910390f35b3480156106bc57600080fd5b506106c56122eb565b604051808060200180602001838103835285818151815260200191508051906020019060200280838360005b8381101561070c5780820151818401526020810190506106f1565b50505050905001838103825284818151815260200191508051906020019060200280838360005b8381101561074e578082015181840152602081019050610733565b5050505090500194505050505060405180910390f35b34801561077057600080fd5b5061077961243b565b604051808215151515815260200191505060405180910390f35b34801561079f57600080fd5b506107a8612452565b604051808263ffffffff1663ffffffff16815260200191505060405180910390f35b3480156107d657600080fd5b50610819600480360360208110156107ed57600080fd5b81019080803573ffffffffffffffffffffffffffffffffffffffff169060200190929190505050612468565b6040518082815260200191505060405180910390f35b34801561083b57600080fd5b506108446124b4565b60405180806020018060200180602001848103845287818151815260200191508051906020019060200280838360005b8381101561088f578082015181840152602081019050610874565b50505050905001848103835286818151815260200191508051906020019060200280838360005b838110156108d15780820151818401526020810190506108b6565b50505050905001848103825285818151815260200191508051906020019060200280838360005b838110156109135780820151818401526020810190506108f8565b50505050905001965050505050505060405180910390f35b34801561093757600080fd5b50610940612697565b6040518082815260200191505060405180910390f35b34801561096257600080fd5b506109d96004803603608081101561097957600080fd5b81019080803573ffffffffffffffffffffffffffffffffffffffff169060200190929190803573ffffffffffffffffffffffffffffffffffffffff169060200190929190803590602001909291908035906020019092919050505061269d565b604051808215151515815260200191505060405180910390f35b3480156109ff57600080fd5b50610a4c60048036036040811015610a1657600080fd5b81019080803573ffffffffffffffffffffffffffffffffffffffff16906020019092919080359060200190929190505050612712565b005b348015610a5a57600080fd5b50610a9d60048036036020811015610a7157600080fd5b81019080803573ffffffffffffffffffffffffffffffffffffffff169060200190929190505050612c0c565b604051808215151515815260200191505060405180910390f35b348015610ac357600080fd5b50610b1a60048036036060811015610ada57600080fd5b81019080803573ffffffffffffffffffffffffffffffffffffffff1690602001909291908035906020019092919080359060200190929190505050612f52565b604051808215151515815260200191505060405180910390f35b348015610b4057600080fd5b50610b49612fcd565b604051808215151515815260200191505060405180910390f35b348015610b6f57600080fd5b50610bb260048036036020811015610b8657600080fd5b81019080803573ffffffffffffffffffffffffffffffffffffffff1690602001909291905050506130cb565b6040518082815260200191505060405180910390f35b348015610bd457600080fd5b50610bdd6131af565b604051808215151515815260200191505060405180910390f35b348015610c0357600080fd5b50610c4660048036036020811015610c1a57600080fd5b81019080803573ffffffffffffffffffffffffffffffffffffffff1690602001909291905050506132ad565b6040518082815260200191505060405180910390f35b348015610c6857600080fd5b50610cab60048036036020811015610c7f57600080fd5b81019080803573ffffffffffffffffffffffffffffffffffffffff1690602001909291905050506132f9565b6040518082815260200191505060405180910390f35b348015610ccd57600080fd5b50610d1060048036036020811015610ce457600080fd5b81019080803573ffffffffffffffffffffffffffffffffffffffff169060200190929190505050613345565b6040518082815260200191505060405180910390f35b348015610d3257600080fd5b50610d8c60048036036060811015610d4957600080fd5b81019080803573ffffffffffffffffffffffffffffffffffffffff16906020019092919080359060200190929190803560ff16906020019092919050505061338e565b604051808215151515815260200191505060405180910390f35b348015610db257600080fd5b50610dbb6137b5565b60405180806020018060200180602001848103845287818151815260200191508051906020019060200280838360005b83811015610e06578082015181840152602081019050610deb565b50505050905001848103835286818151815260200191508051906020019060200280838360005b83811015610e48578082015181840152602081019050610e2d565b50505050905001848103825285818151815260200191508051906020019060200280838360005b83811015610e8a578082015181840152602081019050610e6f565b50505050905001965050505050505060405180910390f35b348015610eae57600080fd5b50610eb7613998565b005b348015610ec557600080fd5b50610ece613b37565b604051808273ffffffffffffffffffffffffffffffffffffffff1673ffffffffffffffffffffffffffffffffffffffff16815260200191505060405180910390f35b348015610f1c57600080fd5b50610f25613b5c565b6040518082815260200191505060405180910390f35b348015610f4757600080fd5b50610f9460048036036040811015610f5e57600080fd5b81019080803573ffffffffffffffffffffffffffffffffffffffff16906020019092919080359060200190929190505050613b62565b604051808215151515815260200191505060405180910390f35b348015610fba57600080fd5b5061100760048036036040811015610fd157600080fd5b81019080803573ffffffffffffffffffffffffffffffffffffffff16906020019092919080359060200190929190505050613c42565b604051808215151515815260200191505060405180910390f35b34801561102d57600080fd5b5061103661409f565b6040518080602001828103825283818151815260200191508051906020019060200280838360005b8381101561107957808201518184015260208101905061105e565b505050509050019250505060405180910390f35b34801561109957600080fd5b506110a261412d565b6040518080602001806020018060200180602001806020018060200187810387528d818151815260200191508051906020019060200280838360005b838110156110f95780820151818401526020810190506110de565b5050505090500187810386528c818151815260200191508051906020019060200280838360005b8381101561113b578082015181840152602081019050611120565b5050505090500187810385528b818151815260200191508051906020019060200280838360005b8381101561117d578082015181840152602081019050611162565b5050505090500187810384528a818151815260200191508051906020019060200280838360005b838110156111bf5780820151818401526020810190506111a4565b50505050905001878103835289818151815260200191508051906020019060200280838360005b838110156112015780820151818401526020810190506111e6565b50505050905001878103825288818151815260200191508051906020019060200280838360005b83811015611243578082015181840152602081019050611228565b505050509050019c5050505050505050505050505060405180910390f35b34801561126d57600080fd5b506112766144ec565b6040518082815260200191505060405180910390f35b34801561129857600080fd5b506112a16144f6565b6040518082815260200191505060405180910390f35b3480156112c357600080fd5b50611306600480360360208110156112da57600080fd5b81019080803573ffffffffffffffffffffffffffffffffffffffff1690602001909291905050506144fc565b6040518080602001806020018060200180602001858103855289818151815260200191508051906020019060200280838360005b8381101561135557808201518184015260208101905061133a565b50505050905001858103845288818151815260200191508051906020019060200280838360005b8381101561139757808201518184015260208101905061137c565b50505050905001858103835287818151815260200191508051906020019060200280838360005b838110156113d95780820151818401526020810190506113be565b50505050905001858103825286818151815260200191508051906020019060200280838360005b8381101561141b578082015181840152602081019050611400565b505050509050019850505050505050505060405180910390f35b34801561144157600080fd5b5061144a6148a9565b6040518082815260200191505060405180910390f35b34801561146c57600080fd5b506114756148af565b604051808273ffffffffffffffffffffffffffffffffffffffff1673ffffffffffffffffffffffffffffffffffffffff16815260200191505060405180910390f35b3480156114c357600080fd5b506114cc6148d5565b6040518082815260200191505060405180910390f35b3480156114ee57600080fd5b506115516004803603604081101561150557600080fd5b81019080803573ffffffffffffffffffffffffffffffffffffffff169060200190929190803573ffffffffffffffffffffffffffffffffffffffff1690602001909291905050506148db565b6040518082815260200191505060405180910390f35b34801561157357600080fd5b5061157c614962565b6040518080602001806020018060200180602001858103855289818151815260200191508051906020019060200280838360005b838110156115cb5780820151818401526020810190506115b0565b50505050905001858103845288818151815260200191508051906020019060200280838360005b8381101561160d5780820151818401526020810190506115f2565b50505050905001858103835287818151815260200191508051906020019060200280838360005b8381101561164f578082015181840152602081019050611634565b50505050905001858103825286818151815260200191508051906020019060200280838360005b83811015611691578082015181840152602081019050611676565b505050509050019850505050505050505060405180910390f35b3480156116b757600080fd5b506118a0600480360360808110156116ce57600080fd5b81019080803590602001906401000000008111156116eb57600080fd5b8201836020820111156116fd57600080fd5b8035906020019184602083028401116401000000008311171561171f57600080fd5b919080806020026020016040519081016040528093929190818152602001838360200280828437600081840152601f19601f8201169050808301925050505050505091929192908035906020019064010000000081111561177f57600080fd5b82018360208201111561179157600080fd5b803590602001918460208302840111640100000000831117156117b357600080fd5b919080806020026020016040519081016040528093929190818152602001838360200280828437600081840152601f19601f8201169050808301925050505050505091929192908035906020019064010000000081111561181357600080fd5b82018360208201111561182557600080fd5b8035906020019184602083028401116401000000008311171561184757600080fd5b919080806020026020016040519081016040528093929190818152602001838360200280828437600081840152601f19601f82011690508083019250505050505050919291929080359060200190929190505050614bdc565b604051808215151515815260200191505060405180910390f35b3480156118c657600080fd5b50611916600480360360408110156118dd57600080fd5b81019080803573ffffffffffffffffffffffffffffffffffffffff169060200190929190803560ff169060200190929190505050614d0f565b604051808215151515815260200191505060405180910390f35b34801561193c57600080fd5b5061197f6004803603602081101561195357600080fd5b81019080803573ffffffffffffffffffffffffffffffffffffffff169060200190929190505050614e2e565b005b600080600080600080611993876132ad565b905060006119a0886132f9565b905060006119ad8961229f565b905060006119ba8a612468565b905060006119c78b612109565b9050848484848499509950995099509950505050505091939590929450565b60035481565b60006119f9338484614ecd565b6001905092915050565b60008060009054906101000a900473ffffffffffffffffffffffffffffffffffffffff1673ffffffffffffffffffffffffffffffffffffffff163373ffffffffffffffffffffffffffffffffffffffff161480611ab257506003601260003373ffffffffffffffffffffffffffffffffffffffff1673ffffffffffffffffffffffffffffffffffffffff16815260200190815260200160002060020160009054906101000a900460ff1660ff16145b1515611abd57600080fd5b600073ffffffffffffffffffffffffffffffffffffffff16601360008573ffffffffffffffffffffffffffffffffffffffff1673ffffffffffffffffffffffffffffffffffffffff16815260200190815260200160002060000160009054906101000a900473ffffffffffffffffffffffffffffffffffffffff1673ffffffffffffffffffffffffffffffffffffffff161415611bbb5760108390806001815401808255809150509060018203906000526020600020016000909192909190916101000a81548173ffffffffffffffffffffffffffffffffffffffff021916908373ffffffffffffffffffffffffffffffffffffffff160217905550505b60001515601360008573ffffffffffffffffffffffffffffffffffffffff1673ffffffffffffffffffffffffffffffffffffffff16815260200190815260200160002060020160009054906101000a900460ff1615151415611c9057600e8390806001815401808255809150509060018203906000526020600020016000909192909190916101000a81548173ffffffffffffffffffffffffffffffffffffffff021916908373ffffffffffffffffffffffffffffffffffffffff16021790555050600f600081548092919060010191905055505b81601360008573ffffffffffffffffffffffffffffffffffffffff1673ffffffffffffffffffffffffffffffffffffffff1681526020019081526020016000206001018190555082601360008573ffffffffffffffffffffffffffffffffffffffff1673ffffffffffffffffffffffffffffffffffffffff16815260200190815260200160002060000160006101000a81548173ffffffffffffffffffffffffffffffffffffffff021916908373ffffffffffffffffffffffffffffffffffffffff1602179055506001601360008573ffffffffffffffffffffffffffffffffffffffff1673ffffffffffffffffffffffffffffffffffffffff16815260200190815260200160002060020160006101000a81548160ff0219169083151502179055506001905092915050565b6000600554905090565b60008060009054906101000a900473ffffffffffffffffffffffffffffffffffffffff1673ffffffffffffffffffffffffffffffffffffffff163373ffffffffffffffffffffffffffffffffffffffff161480611e7657506003601260003373ffffffffffffffffffffffffffffffffffffffff1673ffffffffffffffffffffffffffffffffffffffff16815260200190815260200160002060020160009054906101000a900460ff1660ff16145b1515611e8157600080fd5b6000601360008473ffffffffffffffffffffffffffffffffffffffff1673ffffffffffffffffffffffffffffffffffffffff16815260200190815260200160002060020160006101000a81548160ff02191690831515021790555060008090505b600f5481101561206b57600e81815481101515611efb57fe5b9060005260206000200160009054906101000a900473ffffffffffffffffffffffffffffffffffffffff1673ffffffffffffffffffffffffffffffffffffffff168373ffffffffffffffffffffffffffffffffffffffff16141561205e57600e6001600f5403815481101515611f6d57fe5b9060005260206000200160009054906101000a900473ffffffffffffffffffffffffffffffffffffffff16600e82815481101515611fa757fe5b9060005260206000200160006101000a81548173ffffffffffffffffffffffffffffffffffffffff021916908373ffffffffffffffffffffffffffffffffffffffff160217905550600e6001600f540381548110151561200357fe5b9060005260206000200160006101000a81549073ffffffffffffffffffffffffffffffffffffffff0219169055600f6000815480929190600190039190505550600e8054809190600190036120589190615a04565b5061206b565b8080600101915050611ee2565b5060019050919050565b6060600e8054806020026020016040519081016040528092919081815260200182805480156120f957602002820191906000526020600020905b8160009054906101000a900473ffffffffffffffffffffffffffffffffffffffff1673ffffffffffffffffffffffffffffffffffffffff16815260200190600101908083116120af575b5050505050905090565b600f5481565b6000601260008373ffffffffffffffffffffffffffffffffffffffff1673ffffffffffffffffffffffffffffffffffffffff168152602001908152602001600020600501549050919050565b600860009054906101000a900460ff1681565b600460009054906101000a900460ff1681565b600060011515601260003373ffffffffffffffffffffffffffffffffffffffff1673ffffffffffffffffffffffffffffffffffffffff16815260200190815260200160002060020160019054906101000a900460ff1615151415156121df57600080fd5b60011515600860009054906101000a900460ff16151514151561220157600080fd5b60011515601360008573ffffffffffffffffffffffffffffffffffffffff1673ffffffffffffffffffffffffffffffffffffffff16815260200190815260200160002060020160009054906101000a900460ff16151514151561226357600080fd5b60007f53656e64696e6720746f204173736f63696174696f6e00000000000000000000905061229433858584615102565b600191505092915050565b6000601260008373ffffffffffffffffffffffffffffffffffffffff1673ffffffffffffffffffffffffffffffffffffffff168152602001908152602001600020600601549050919050565b606080600060108054905090506060816040519080825280602002602001820160405280156123295781602001602082028038833980820191505090505b50905060008090505b828110156123a55761237c60108281548110151561234c57fe5b9060005260206000200160009054906101000a900473ffffffffffffffffffffffffffffffffffffffff166130cb565b828281518110151561238a57fe5b90602001906020020181815250508080600101915050612332565b506010818180548060200260200160405190810160405280929190818152602001828054801561242a57602002820191906000526020600020905b8160009054906101000a900473ffffffffffffffffffffffffffffffffffffffff1673ffffffffffffffffffffffffffffffffffffffff16815260200190600101908083116123e0575b505050505091509350935050509091565b6000600860009054906101000a900460ff16905090565b600660009054906101000a900463ffffffff1681565b6000601260008373ffffffffffffffffffffffffffffffffffffffff1673ffffffffffffffffffffffffffffffffffffffff168152602001908152602001600020600401549050919050565b606080606080600d546040519080825280602002602001820160405280156124eb5781602001602082028038833980820191505090505b5090506060600d546040519080825280602002602001820160405280156125215781602001602082028038833980820191505090505b50905060008090505b600f548110156125fd57612576600e8281548110151561254657fe5b9060005260206000200160009054906101000a900473ffffffffffffffffffffffffffffffffffffffff166130cb565b838281518110151561258457fe5b90602001906020020181815250506125d4600e828154811015156125a457fe5b9060005260206000200160009054906101000a900473ffffffffffffffffffffffffffffffffffffffff16613345565b82828151811015156125e257fe5b9060200190602002018181525050808060010191505061252a565b50600e82828280548060200260200160405190810160405280929190818152602001828054801561268357602002820191906000526020600020905b8160009054906101000a900473ffffffffffffffffffffffffffffffffffffffff1673ffffffffffffffffffffffffffffffffffffffff1681526020019060010190808311612639575b505050505092509450945094505050909192565b60055481565b60008060009054906101000a900473ffffffffffffffffffffffffffffffffffffffff1673ffffffffffffffffffffffffffffffffffffffff163373ffffffffffffffffffffffffffffffffffffffff161415156126fa57600080fd5b61270685858585615102565b60019050949350505050565b6000809054906101000a900473ffffffffffffffffffffffffffffffffffffffff1673ffffffffffffffffffffffffffffffffffffffff163373ffffffffffffffffffffffffffffffffffffffff1614151561276d57600080fd5b600073ffffffffffffffffffffffffffffffffffffffff168273ffffffffffffffffffffffffffffffffffffffff1614151515612812576040517f08c379a000000000000000000000000000000000000000000000000000000000815260040180806020018281038252600b8152602001807f616464726573732030783000000000000000000000000000000000000000000081525060200191505060405180910390fd5b61281e600554826159cc565b60058190555061286d601160008473ffffffffffffffffffffffffffffffffffffffff1673ffffffffffffffffffffffffffffffffffffffff16815260200190815260200160002054826159cc565b601160008473ffffffffffffffffffffffffffffffffffffffff1673ffffffffffffffffffffffffffffffffffffffff168152602001908152602001600020819055506128b8615a30565b600b5481600001818152505082816040019073ffffffffffffffffffffffffffffffffffffffff16908173ffffffffffffffffffffffffffffffffffffffff1681525050818160600181815250507f546f6b656e204372656174696f6e2046726f6d2041646d696e000000000000008160800181815250508060096000600b5481526020019081526020016000206000820151816000015560208201518160010160006101000a81548173ffffffffffffffffffffffffffffffffffffffff021916908373ffffffffffffffffffffffffffffffffffffffff16021790555060408201518160020160006101000a81548173ffffffffffffffffffffffffffffffffffffffff021916908373ffffffffffffffffffffffffffffffffffffffff1602179055506060820151816003015560808201518160040155905050600b600081548092919060010191905055506000601260008573ffffffffffffffffffffffffffffffffffffffff1673ffffffffffffffffffffffffffffffffffffffff16815260200190815260200160002060030154905081600a60008673ffffffffffffffffffffffffffffffffffffffff1673ffffffffffffffffffffffffffffffffffffffff16815260200190815260200160002060008381526020019081526020016000206000820151816000015560208201518160010160006101000a81548173ffffffffffffffffffffffffffffffffffffffff021916908373ffffffffffffffffffffffffffffffffffffffff16021790555060408201518160020160006101000a81548173ffffffffffffffffffffffffffffffffffffffff021916908373ffffffffffffffffffffffffffffffffffffffff1602179055506060820151816003015560808201518160040155905050601260008573ffffffffffffffffffffffffffffffffffffffff1673ffffffffffffffffffffffffffffffffffffffff168152602001908152602001600020600301600081548092919060010191905055508373ffffffffffffffffffffffffffffffffffffffff16600073ffffffffffffffffffffffffffffffffffffffff167fddf252ad1be2c89b69c2b068fc378daa952ba7f163c4a11628f55a4df523b3ef856040518082815260200191505060405180910390a350505050565b60008060009054906101000a900473ffffffffffffffffffffffffffffffffffffffff1673ffffffffffffffffffffffffffffffffffffffff163373ffffffffffffffffffffffffffffffffffffffff161480612cbb57506001601260003373ffffffffffffffffffffffffffffffffffffffff1673ffffffffffffffffffffffffffffffffffffffff16815260200190815260200160002060020160009054906101000a900460ff1660ff16115b1515612cc657600080fd5b6000601260008473ffffffffffffffffffffffffffffffffffffffff1673ffffffffffffffffffffffffffffffffffffffff16815260200190815260200160002060020160016101000a81548160ff0219169083151502179055506000601160008473ffffffffffffffffffffffffffffffffffffffff1673ffffffffffffffffffffffffffffffffffffffff16815260200190815260200160002054905060007f4163636f756e74205375707072657373696f6e000000000000000000000000009050612db7846000809054906101000a900473ffffffffffffffffffffffffffffffffffffffff168484615102565b60008090505b600d54811015612f4657600c81815481101515612dd657fe5b9060005260206000200160009054906101000a900473ffffffffffffffffffffffffffffffffffffffff1673ffffffffffffffffffffffffffffffffffffffff168573ffffffffffffffffffffffffffffffffffffffff161415612f3957600c6001600d5403815481101515612e4857fe5b9060005260206000200160009054906101000a900473ffffffffffffffffffffffffffffffffffffffff16600c82815481101515612e8257fe5b9060005260206000200160006101000a81548173ffffffffffffffffffffffffffffffffffffffff021916908373ffffffffffffffffffffffffffffffffffffffff160217905550600c6001600d5403815481101515612ede57fe5b9060005260206000200160006101000a81549073ffffffffffffffffffffffffffffffffffffffff0219169055600d6000815480929190600190039190505550600c805480919060019003612f339190615a04565b50612f46565b8080600101915050612dbd565b50600192505050919050565b600060011515601260003373ffffffffffffffffffffffffffffffffffffffff1673ffffffffffffffffffffffffffffffffffffffff16815260200190815260200160002060020160019054906101000a900460ff161515141515612fb657600080fd5b612fc233858585615102565b600190509392505050565b60008060009054906101000a900473ffffffffffffffffffffffffffffffffffffffff1673ffffffffffffffffffffffffffffffffffffffff163373ffffffffffffffffffffffffffffffffffffffff16148061307c57506003601260003373ffffffffffffffffffffffffffffffffffffffff1673ffffffffffffffffffffffffffffffffffffffff16815260200190815260200160002060020160009054906101000a900460ff1660ff16145b151561308757600080fd5b60011515600860009054906101000a900460ff1615151415156130a957600080fd5b6000600860006101000a81548160ff0219169083151502179055506001905090565b600080600102601260008473ffffffffffffffffffffffffffffffffffffffff1673ffffffffffffffffffffffffffffffffffffffff16815260200190815260200160002060010154141561316457601360008373ffffffffffffffffffffffffffffffffffffffff1673ffffffffffffffffffffffffffffffffffffffff1681526020019081526020016000206001015490506131aa565b601260008373ffffffffffffffffffffffffffffffffffffffff1673ffffffffffffffffffffffffffffffffffffffff1681526020019081526020016000206001015490505b919050565b60008060009054906101000a900473ffffffffffffffffffffffffffffffffffffffff1673ffffffffffffffffffffffffffffffffffffffff163373ffffffffffffffffffffffffffffffffffffffff16148061325e57506003601260003373ffffffffffffffffffffffffffffffffffffffff1673ffffffffffffffffffffffffffffffffffffffff16815260200190815260200160002060020160009054906101000a900460ff1660ff16145b151561326957600080fd5b60001515600860009054906101000a900460ff16151514151561328b57600080fd5b6001600860006101000a81548160ff0219169083151502179055506001905090565b6000601260008373ffffffffffffffffffffffffffffffffffffffff1673ffffffffffffffffffffffffffffffffffffffff168152602001908152602001600020600301549050919050565b6000601260008373ffffffffffffffffffffffffffffffffffffffff1673ffffffffffffffffffffffffffffffffffffffff168152602001908152602001600020600701549050919050565b6000601160008373ffffffffffffffffffffffffffffffffffffffff1673ffffffffffffffffffffffffffffffffffffffff168152602001908152602001600020549050919050565b60008060009054906101000a900473ffffffffffffffffffffffffffffffffffffffff1673ffffffffffffffffffffffffffffffffffffffff163373ffffffffffffffffffffffffffffffffffffffff16148061343d57506001601260003373ffffffffffffffffffffffffffffffffffffffff1673ffffffffffffffffffffffffffffffffffffffff16815260200190815260200160002060020160009054906101000a900460ff1660ff16115b151561344857600080fd5b6007546134756000809054906101000a900473ffffffffffffffffffffffffffffffffffffffff16613345565b1015151561348257600080fd5b60008260ff161415151561349557600080fd5b6000601260008673ffffffffffffffffffffffffffffffffffffffff1673ffffffffffffffffffffffffffffffffffffffff16815260200190815260200160002060020160009054906101000a900460ff1660ff1614156135575760108490806001815401808255809150509060018203906000526020600020016000909192909190916101000a81548173ffffffffffffffffffffffffffffffffffffffff021916908373ffffffffffffffffffffffffffffffffffffffff160217905550505b60001515601260008673ffffffffffffffffffffffffffffffffffffffff1673ffffffffffffffffffffffffffffffffffffffff16815260200190815260200160002060020160019054906101000a900460ff161515141561362c57600c8490806001815401808255809150509060018203906000526020600020016000909192909190916101000a81548173ffffffffffffffffffffffffffffffffffffffff021916908373ffffffffffffffffffffffffffffffffffffffff16021790555050600d600081548092919060010191905055505b83601260008673ffffffffffffffffffffffffffffffffffffffff1673ffffffffffffffffffffffffffffffffffffffff16815260200190815260200160002060000160006101000a81548173ffffffffffffffffffffffffffffffffffffffff021916908373ffffffffffffffffffffffffffffffffffffffff16021790555082601260008673ffffffffffffffffffffffffffffffffffffffff1673ffffffffffffffffffffffffffffffffffffffff1681526020019081526020016000206001018190555081601260008673ffffffffffffffffffffffffffffffffffffffff1673ffffffffffffffffffffffffffffffffffffffff16815260200190815260200160002060020160006101000a81548160ff021916908360ff1602179055506001601260008673ffffffffffffffffffffffffffffffffffffffff1673ffffffffffffffffffffffffffffffffffffffff16815260200190815260200160002060020160016101000a81548160ff021916908315150217905550600190509392505050565b606080606080600d546040519080825280602002602001820160405280156137ec5781602001602082028038833980820191505090505b5090506060600d546040519080825280602002602001820160405280156138225781602001602082028038833980820191505090505b50905060008090505b600d548110156138fe57613877600c8281548110151561384757fe5b9060005260206000200160009054906101000a900473ffffffffffffffffffffffffffffffffffffffff166130cb565b838281518110151561388557fe5b90602001906020020181815250506138d5600c828154811015156138a557fe5b9060005260206000200160009054906101000a900473ffffffffffffffffffffffffffffffffffffffff16613345565b82828151811015156138e357fe5b9060200190602002018181525050808060010191505061382b565b50600c82828280548060200260200160405190810160405280929190818152602001828054801561398457602002820191906000526020600020905b8160009054906101000a900473ffffffffffffffffffffffffffffffffffffffff1673ffffffffffffffffffffffffffffffffffffffff168152602001906001019080831161393a575b505050505092509450945094505050909192565b600160009054906101000a900473ffffffffffffffffffffffffffffffffffffffff1673ffffffffffffffffffffffffffffffffffffffff163373ffffffffffffffffffffffffffffffffffffffff161415156139f457600080fd5b600160009054906101000a900473ffffffffffffffffffffffffffffffffffffffff1673ffffffffffffffffffffffffffffffffffffffff166000809054906101000a900473ffffffffffffffffffffffffffffffffffffffff1673ffffffffffffffffffffffffffffffffffffffff167f8be0079c531659141344cd1fd0a4f28419497f9722a3daafe3b4186f6b6457e060405160405180910390a3600160009054906101000a900473ffffffffffffffffffffffffffffffffffffffff166000806101000a81548173ffffffffffffffffffffffffffffffffffffffff021916908373ffffffffffffffffffffffffffffffffffffffff1602179055506000600160006101000a81548173ffffffffffffffffffffffffffffffffffffffff021916908373ffffffffffffffffffffffffffffffffffffffff160217905550565b6000809054906101000a900473ffffffffffffffffffffffffffffffffffffffff1681565b60025481565b60008060009054906101000a900473ffffffffffffffffffffffffffffffffffffffff1673ffffffffffffffffffffffffffffffffffffffff163373ffffffffffffffffffffffffffffffffffffffff161480613bea57503373ffffffffffffffffffffffffffffffffffffffff168373ffffffffffffffffffffffffffffffffffffffff16145b1515613bf557600080fd5b81601260008573ffffffffffffffffffffffffffffffffffffffff1673ffffffffffffffffffffffffffffffffffffffff1681526020019081526020016000206001018190555092915050565b60008060009054906101000a900473ffffffffffffffffffffffffffffffffffffffff1673ffffffffffffffffffffffffffffffffffffffff163373ffffffffffffffffffffffffffffffffffffffff16141515613c9f57600080fd5b613ce8601160008573ffffffffffffffffffffffffffffffffffffffff1673ffffffffffffffffffffffffffffffffffffffff16815260200190815260200160002054836159e8565b601160008573ffffffffffffffffffffffffffffffffffffffff1673ffffffffffffffffffffffffffffffffffffffff16815260200190815260200160002081905550613d37600554836159e8565b600581905550613d45615a30565b600b5481600001818152505083816040019073ffffffffffffffffffffffffffffffffffffffff16908173ffffffffffffffffffffffffffffffffffffffff1681525050828160600181815250507f546f6b656e205375707072657373696f6e2046726f6d2041646d696e000000008160800181815250508060096000600b5481526020019081526020016000206000820151816000015560208201518160010160006101000a81548173ffffffffffffffffffffffffffffffffffffffff021916908373ffffffffffffffffffffffffffffffffffffffff16021790555060408201518160020160006101000a81548173ffffffffffffffffffffffffffffffffffffffff021916908373ffffffffffffffffffffffffffffffffffffffff1602179055506060820151816003015560808201518160040155905050600b600081548092919060010191905055506000601260008673ffffffffffffffffffffffffffffffffffffffff1673ffffffffffffffffffffffffffffffffffffffff16815260200190815260200160002060030154905081600a60008773ffffffffffffffffffffffffffffffffffffffff1673ffffffffffffffffffffffffffffffffffffffff16815260200190815260200160002060008381526020019081526020016000206000820151816000015560208201518160010160006101000a81548173ffffffffffffffffffffffffffffffffffffffff021916908373ffffffffffffffffffffffffffffffffffffffff16021790555060408201518160020160006101000a81548173ffffffffffffffffffffffffffffffffffffffff021916908373ffffffffffffffffffffffffffffffffffffffff1602179055506060820151816003015560808201518160040155905050601260008673ffffffffffffffffffffffffffffffffffffffff1673ffffffffffffffffffffffffffffffffffffffff16815260200190815260200160002060030160008154809291906001019190505550600073ffffffffffffffffffffffffffffffffffffffff168573ffffffffffffffffffffffffffffffffffffffff167fddf252ad1be2c89b69c2b068fc378daa952ba7f163c4a11628f55a4df523b3ef866040518082815260200191505060405180910390a360019250505092915050565b6060600c80548060200260200160405190810160405280929190818152602001828054801561412357602002820191906000526020600020905b8160009054906101000a900473ffffffffffffffffffffffffffffffffffffffff1673ffffffffffffffffffffffffffffffffffffffff16815260200190600101908083116140d9575b5050505050905090565b6060806060806060806060600d546040519080825280602002602001820160405280156141695781602001602082028038833980820191505090505b5090506060600d5460405190808252806020026020018201604052801561419f5781602001602082028038833980820191505090505b5090506060600d546040519080825280602002602001820160405280156141d55781602001602082028038833980820191505090505b5090506060600d5460405190808252806020026020018201604052801561420b5781602001602082028038833980820191505090505b5090506060600d546040519080825280602002602001820160405280156142415781602001602082028038833980820191505090505b5090506060600d546040519080825280602002602001820160405280156142775781602001602082028038833980820191505090505b50905060008090505b600d548110156144cb576142cc600c8281548110151561429c57fe5b9060005260206000200160009054906101000a900473ffffffffffffffffffffffffffffffffffffffff166132ad565b87828151811015156142da57fe5b906020019060200201818152505061432a600c828154811015156142fa57fe5b9060005260206000200160009054906101000a900473ffffffffffffffffffffffffffffffffffffffff16612468565b868281518110151561433857fe5b9060200190602002018181525050614388600c8281548110151561435857fe5b9060005260206000200160009054906101000a900473ffffffffffffffffffffffffffffffffffffffff1661229f565b858281518110151561439657fe5b90602001906020020181815250506143e6600c828154811015156143b657fe5b9060005260206000200160009054906101000a900473ffffffffffffffffffffffffffffffffffffffff166132f9565b84828151811015156143f457fe5b9060200190602002018181525050614444600c8281548110151561441457fe5b9060005260206000200160009054906101000a900473ffffffffffffffffffffffffffffffffffffffff16612109565b838281518110151561445257fe5b90602001906020020181815250506144a2600c8281548110151561447257fe5b9060005260206000200160009054906101000a900473ffffffffffffffffffffffffffffffffffffffff166130cb565b82828151811015156144b057fe5b90602001906020020181815250508080600101915050614280565b508585858585859b509b509b509b509b509b50505050505050909192939495565b6000600f54905090565b60075481565b6060806060806000601260008773ffffffffffffffffffffffffffffffffffffffff1673ffffffffffffffffffffffffffffffffffffffff16815260200190815260200160002060030154905060608160405190808252806020026020018201604052801561457a5781602001602082028038833980820191505090505b5090506060826040519080825280602002602001820160405280156145ae5781602001602082028038833980820191505090505b5090506060836040519080825280602002602001820160405280156145e25781602001602082028038833980820191505090505b5090506060846040519080825280602002602001820160405280156146165781602001602082028038833980820191505090505b50905060008090505b8581101561489057600a60008c73ffffffffffffffffffffffffffffffffffffffff1673ffffffffffffffffffffffffffffffffffffffff168152602001908152602001600020600082815260200190815260200160002060010160009054906101000a900473ffffffffffffffffffffffffffffffffffffffff1685828151811015156146a957fe5b9060200190602002019073ffffffffffffffffffffffffffffffffffffffff16908173ffffffffffffffffffffffffffffffffffffffff1681525050600a60008c73ffffffffffffffffffffffffffffffffffffffff1673ffffffffffffffffffffffffffffffffffffffff168152602001908152602001600020600082815260200190815260200160002060020160009054906101000a900473ffffffffffffffffffffffffffffffffffffffff16848281518110151561476757fe5b9060200190602002019073ffffffffffffffffffffffffffffffffffffffff16908173ffffffffffffffffffffffffffffffffffffffff1681525050600a60008c73ffffffffffffffffffffffffffffffffffffffff1673ffffffffffffffffffffffffffffffffffffffff168152602001908152602001600020600082815260200190815260200160002060030154838281518110151561480557fe5b9060200190602002018181525050600a60008c73ffffffffffffffffffffffffffffffffffffffff1673ffffffffffffffffffffffffffffffffffffffff168152602001908152602001600020600082815260200190815260200160002060040154828281518110151561487557fe5b9060200190602002018181525050808060010191505061461f565b5083838383985098509850985050505050509193509193565b600b5481565b600160009054906101000a900473ffffffffffffffffffffffffffffffffffffffff1681565b600d5481565b6000601460008473ffffffffffffffffffffffffffffffffffffffff1673ffffffffffffffffffffffffffffffffffffffff16815260200190815260200160002060008373ffffffffffffffffffffffffffffffffffffffff1673ffffffffffffffffffffffffffffffffffffffff16815260200190815260200160002054905092915050565b6060806060806060600b5460405190808252806020026020018201604052801561499b5781602001602082028038833980820191505090505b5090506060600b546040519080825280602002602001820160405280156149d15781602001602082028038833980820191505090505b5090506060600b54604051908082528060200260200182016040528015614a075781602001602082028038833980820191505090505b5090506060600b54604051908082528060200260200182016040528015614a3d5781602001602082028038833980820191505090505b50905060008090505b600b54811015614bc5576009600082815260200190815260200160002060010160009054906101000a900473ffffffffffffffffffffffffffffffffffffffff168582815181101515614a9557fe5b9060200190602002019073ffffffffffffffffffffffffffffffffffffffff16908173ffffffffffffffffffffffffffffffffffffffff16815250506009600082815260200190815260200160002060020160009054906101000a900473ffffffffffffffffffffffffffffffffffffffff168482815181101515614b1657fe5b9060200190602002019073ffffffffffffffffffffffffffffffffffffffff16908173ffffffffffffffffffffffffffffffffffffffff168152505060096000828152602001908152602001600020600301548382815181101515614b7757fe5b906020019060200201818152505060096000828152602001908152602001600020600401548282815181101515614baa57fe5b90602001906020020181815250508080600101915050614a46565b508383838397509750975097505050505090919293565b60008060009054906101000a900473ffffffffffffffffffffffffffffffffffffffff1673ffffffffffffffffffffffffffffffffffffffff163373ffffffffffffffffffffffffffffffffffffffff161480614c8b57506001601260003373ffffffffffffffffffffffffffffffffffffffff1673ffffffffffffffffffffffffffffffffffffffff16815260200190815260200160002060020160009054906101000a900460ff1660ff16115b1515614c9657600080fd5b60008090505b82811015614d0257614cf48682815181101515614cb557fe5b906020019060200201518683815181101515614ccd57fe5b906020019060200201518684815181101515614ce557fe5b9060200190602002015161338e565b508080600101915050614c9c565b5060019050949350505050565b60008060009054906101000a900473ffffffffffffffffffffffffffffffffffffffff1673ffffffffffffffffffffffffffffffffffffffff163373ffffffffffffffffffffffffffffffffffffffff161480614dbe57506001601260003373ffffffffffffffffffffffffffffffffffffffff1673ffffffffffffffffffffffffffffffffffffffff16815260200190815260200160002060020160009054906101000a900460ff1660ff16115b1515614dc957600080fd5b81601260008573ffffffffffffffffffffffffffffffffffffffff1673ffffffffffffffffffffffffffffffffffffffff16815260200190815260200160002060020160006101000a81548160ff021916908360ff1602179055506001905092915050565b6000809054906101000a900473ffffffffffffffffffffffffffffffffffffffff1673ffffffffffffffffffffffffffffffffffffffff163373ffffffffffffffffffffffffffffffffffffffff16141515614e8957600080fd5b80600160006101000a81548173ffffffffffffffffffffffffffffffffffffffff021916908373ffffffffffffffffffffffffffffffffffffffff16021790555050565b600073ffffffffffffffffffffffffffffffffffffffff168273ffffffffffffffffffffffffffffffffffffffff1614151515614f72576040517f08c379a000000000000000000000000000000000000000000000000000000000815260040180806020018281038252600b8152602001807f616464726573732030783000000000000000000000000000000000000000000081525060200191505060405180910390fd5b600073ffffffffffffffffffffffffffffffffffffffff168373ffffffffffffffffffffffffffffffffffffffff1614151515615017576040517f08c379a000000000000000000000000000000000000000000000000000000000815260040180806020018281038252600b8152602001807f616464726573732030783000000000000000000000000000000000000000000081525060200191505060405180910390fd5b80601460008573ffffffffffffffffffffffffffffffffffffffff1673ffffffffffffffffffffffffffffffffffffffff16815260200190815260200160002060008473ffffffffffffffffffffffffffffffffffffffff1673ffffffffffffffffffffffffffffffffffffffff168152602001908152602001600020819055508173ffffffffffffffffffffffffffffffffffffffff168373ffffffffffffffffffffffffffffffffffffffff167f8c5be1e5ebec7d5bd14f71427d1e84f3dd0314c0f7b2291e5b200ac8c7c3b925836040518082815260200191505060405180910390a3505050565b600073ffffffffffffffffffffffffffffffffffffffff168373ffffffffffffffffffffffffffffffffffffffff16141515156151a7576040517f08c379a000000000000000000000000000000000000000000000000000000000815260040180806020018281038252600b8152602001807f616464726573732030783000000000000000000000000000000000000000000081525060200191505060405180910390fd5b6151f0601160008673ffffffffffffffffffffffffffffffffffffffff1673ffffffffffffffffffffffffffffffffffffffff16815260200190815260200160002054836159e8565b601160008673ffffffffffffffffffffffffffffffffffffffff1673ffffffffffffffffffffffffffffffffffffffff1681526020019081526020016000208190555061527c601160008573ffffffffffffffffffffffffffffffffffffffff1673ffffffffffffffffffffffffffffffffffffffff16815260200190815260200160002054836159cc565b601160008573ffffffffffffffffffffffffffffffffffffffff1673ffffffffffffffffffffffffffffffffffffffff168152602001908152602001600020819055506152c7615a30565b600b5481600001818152505084816020019073ffffffffffffffffffffffffffffffffffffffff16908173ffffffffffffffffffffffffffffffffffffffff168152505083816040019073ffffffffffffffffffffffffffffffffffffffff16908173ffffffffffffffffffffffffffffffffffffffff168152505082816060018181525050818160800181815250508060096000600b5481526020019081526020016000206000820151816000015560208201518160010160006101000a81548173ffffffffffffffffffffffffffffffffffffffff021916908373ffffffffffffffffffffffffffffffffffffffff16021790555060408201518160020160006101000a81548173ffffffffffffffffffffffffffffffffffffffff021916908373ffffffffffffffffffffffffffffffffffffffff1602179055506060820151816003015560808201518160040155905050600b600081548092919060010191905055506000601260008773ffffffffffffffffffffffffffffffffffffffff1673ffffffffffffffffffffffffffffffffffffffff1681526020019081526020016000206003015490506000601260008773ffffffffffffffffffffffffffffffffffffffff1673ffffffffffffffffffffffffffffffffffffffff16815260200190815260200160002060030154905082600a60008973ffffffffffffffffffffffffffffffffffffffff1673ffffffffffffffffffffffffffffffffffffffff16815260200190815260200160002060008481526020019081526020016000206000820151816000015560208201518160010160006101000a81548173ffffffffffffffffffffffffffffffffffffffff021916908373ffffffffffffffffffffffffffffffffffffffff16021790555060408201518160020160006101000a81548173ffffffffffffffffffffffffffffffffffffffff021916908373ffffffffffffffffffffffffffffffffffffffff1602179055506060820151816003015560808201518160040155905050601260008873ffffffffffffffffffffffffffffffffffffffff1673ffffffffffffffffffffffffffffffffffffffff16815260200190815260200160002060030160008154809291906001019190505550601260008873ffffffffffffffffffffffffffffffffffffffff1673ffffffffffffffffffffffffffffffffffffffff168152602001908152602001600020600401600081548092919060010191905055506156ac601260008973ffffffffffffffffffffffffffffffffffffffff1673ffffffffffffffffffffffffffffffffffffffff16815260200190815260200160002060070154866159cc565b601260008973ffffffffffffffffffffffffffffffffffffffff1673ffffffffffffffffffffffffffffffffffffffff16815260200190815260200160002060070181905550601260008773ffffffffffffffffffffffffffffffffffffffff1673ffffffffffffffffffffffffffffffffffffffff16815260200190815260200160002060050160008154809291906001019190505550615790601260008873ffffffffffffffffffffffffffffffffffffffff1673ffffffffffffffffffffffffffffffffffffffff16815260200190815260200160002060060154866159cc565b601260008873ffffffffffffffffffffffffffffffffffffffff1673ffffffffffffffffffffffffffffffffffffffff168152602001908152602001600020600601819055508573ffffffffffffffffffffffffffffffffffffffff168773ffffffffffffffffffffffffffffffffffffffff1614151561595e5782600a60008873ffffffffffffffffffffffffffffffffffffffff1673ffffffffffffffffffffffffffffffffffffffff16815260200190815260200160002060008381526020019081526020016000206000820151816000015560208201518160010160006101000a81548173ffffffffffffffffffffffffffffffffffffffff021916908373ffffffffffffffffffffffffffffffffffffffff16021790555060408201518160020160006101000a81548173ffffffffffffffffffffffffffffffffffffffff021916908373ffffffffffffffffffffffffffffffffffffffff1602179055506060820151816003015560808201518160040155905050601260008773ffffffffffffffffffffffffffffffffffffffff1673ffffffffffffffffffffffffffffffffffffffff168152602001908152602001600020600301600081548092919060010191905055505b8573ffffffffffffffffffffffffffffffffffffffff168773ffffffffffffffffffffffffffffffffffffffff167fddf252ad1be2c89b69c2b068fc378daa952ba7f163c4a11628f55a4df523b3ef876040518082815260200191505060405180910390a350505050505050565b600081830190508281101515156159e257600080fd5b92915050565b60008282111515156159f957600080fd5b818303905092915050565b815481835581811115615a2b57818360005260206000209182019101615a2a9190615a8f565b5b505050565b60a06040519081016040528060008152602001600073ffffffffffffffffffffffffffffffffffffffff168152602001600073ffffffffffffffffffffffffffffffffffffffff16815260200160008152602001600080191681525090565b615ab191905b80821115615aad576000816000905550600101615a95565b5090565b9056fea165627a7a72305820e47e3f2e4f79a4ebf5da30c0b715926fc7589eae9ab83207f2f45b9019b0697c0029",
  "source": "pragma solidity ^0.5.0;\n\n// ----------------------------------------------------------------------------\n// Safe maths\n// ----------------------------------------------------------------------------\ncontract SafeMath {\n    function safeAdd(uint a, uint b) internal pure returns (uint c) {\n        c = a + b;\n        require(c >= a);\n    }\n    function safeSub(uint a, uint b) internal pure returns (uint c) {\n        require(b <= a);\n        c = a - b;\n    }\n    function safeMul(uint a, uint b) internal pure returns (uint c) {\n        c = a * b;\n        require(a == 0 || c / a == b);\n    }\n    function safeDiv(uint a, uint b) internal pure returns (uint c) {\n        require(b > 0);\n        c = a / b;\n    }\n}\n\n\n// ----------------------------------------------------------------------------\n// Owned contract\n// ----------------------------------------------------------------------------\n\ncontract Owned {\n    address public owner;\n    address public newOwner;\n\n    event OwnershipTransferred(address indexed _from, address indexed _to);\n\n    //The owner will me always this address even if another address pay ether to launch the contract (need to be check)\n    constructor() public {\n        owner = 0xc4d446c6B924c431f89214319D5A3e6bb67e7627; // my personnal address with my phone number (it is my public key)\n    }\n\n    modifier onlyOwner {\n        require(msg.sender == owner);\n        _;\n    }\n\n    function transferOwnership(address _newOwner) public onlyOwner {\n        newOwner = _newOwner;\n    }\n\n    function acceptOwnership() public {\n        require(msg.sender == newOwner);\n        emit OwnershipTransferred(owner, newOwner);\n        owner = newOwner;\n        newOwner = address(0);\n    }\n}\n\n\n// ----------------------------------------------------------------------------\n// AST contract : The first part is the ERC20 function then advance coin functions\n// ----------------------------------------------------------------------------\n\ncontract AurexiaSocialToken is Owned, SafeMath {\n    bytes32 public symbol;\n    bytes32 public name;\n    uint8 public decimals;\n    uint256 public _totalSupply;\n    uint32 public initialSupply;\n    uint256 public initialDonation; //nbr of token that we send to Members when they arrived in the BC\n    bool public openDonation; // when true we can send our token to association\n\n    struct wording {\n      uint256 id;\n      address from;\n      address to;\n      uint256 amountAST;\n      bytes32 text;\n    }\n\n    //storage of all wordings by their id and their address\n    mapping (uint256 => wording) private wordings;\n    mapping (address => mapping (uint256 => wording)) private personalWordings;\n    uint256 public indexNewWording;\n\n    //storage of all adresses and the size of members of aurexia\n    address[] private aurexiaAccounts;\n    uint256 public sizeListAccount;\n\n    //storage of all adresses of all charities\n    address[] private charityAccounts;\n    uint256 public sizeListCharity;\n\n    //storage of all addresses (members + asso + members and asso erased from the BC)\n    address[] private allAddresses;\n\n    struct membre{\n      address publicKey;\n      bytes32 name;    // first name + family Name\n      uint8 grade;    // 1 for consultants, 2 for managers, 3 for partners, 4 for admin\n      bool isMember;\n      uint256 nbrTransaction;\n      uint256 nbrSend;\n      uint256 nbrReceive;\n      uint256 totalReceive;\n      uint256 totalSend;\n    }\n\n    struct association{\n      address publicKey;\n      bytes32 name;\n      bool isPartner; // kind of whitelist of association, allowed to add and remove easier\n    }\n\n    mapping(address => uint) private balances;\n    mapping(address => membre) private aurexiaMembers;\n    mapping(address => association) private associationList;\n\n    event Transfer(address indexed from, address indexed to, uint tokens);\n\n    //mapping and event for ERC20 function but we didn't use it. I put it for good recognition of our contract as ERC20\n    mapping (address => mapping (address => uint256)) private _allowed;\n    event Approval(address indexed owner, address indexed spender, uint256 value);\n\n\n    // ------------------------------------------------------------------------\n    // Constructor\n    // ------------------------------------------------------------------------\n\n    constructor() public {\n        symbol = \"AST\";\n        name = \"AurexiaSocialToken\";\n        decimals = 18;\n        initialSupply = 20000;\n        initialDonation = 100 * 10**uint256(decimals);\n        _totalSupply = initialSupply * 10**uint256(decimals); // 1 token = 1 * 10^18 because of 18 decimals\n        balances[owner] = _totalSupply;\n\n        emit Transfer(address(0), owner, _totalSupply);\n\n        wordings[0].id = 0;\n        wordings[0].to = owner;\n        wordings[0].amountAST = _totalSupply;\n        wordings[0].text = \"Contract Creation\";\n        indexNewWording = 1;\n\n        personalWordings[owner][0].id = 0;\n        personalWordings[owner][0].to = owner;\n        personalWordings[owner][0].amountAST = _totalSupply;\n        personalWordings[owner][0].text = \"Contract Creation\";\n\n        // add of  the owner in the whitelist aurexiaMembers\n        aurexiaMembers[owner].publicKey = owner;\n        aurexiaMembers[owner].name = \"Administrator\";\n        aurexiaMembers[owner].grade = 4;\n        aurexiaMembers[owner].isMember = true;\n        aurexiaMembers[owner].nbrTransaction = 1;\n        aurexiaMembers[owner].nbrReceive = 1;\n        aurexiaMembers[owner].totalReceive = _totalSupply;\n\n        aurexiaAccounts.push(owner);\n        sizeListAccount += 1;\n        allAddresses.push(owner);\n\n        openDonation = false;\n\n      }\n\n    // ------------------------------------------------------------------------\n    // ERC20 Functions (approve and allowed functions are written but we don't use it. These 2 functions are put at the end of the contract to save gas.\n    // There are just here for a good recognition of our contract as an ERC20)\n    // ref \"https://www.ethereum-france.com/qu-est-ce-qu-un-token-erc20/\" to know what do all ERC20 functions\n    // ------------------------------------------------------------------------\n\n    function totalSupply() public view returns (uint256) {\n        return _totalSupply;\n      }\n\n    function balanceOf(address _address) public view returns (uint256) {\n        return balances[_address];\n      }\n\n    function transfer(address _to, uint256 _value, bytes32 _text) public returns (bool) {\n        require (aurexiaMembers[msg.sender].isMember == true);\n        _transfer(msg.sender, _to, _value, _text);\n        return true;\n      }\n\n    function transferFrom(address _from, address _to, uint256 _value, bytes32 _text) public onlyOwner() returns (bool) {\n        _transfer(_from, _to, _value, _text);\n        return true;\n      }\n\n    function _transfer(address from, address to, uint256 tokens, bytes32 text) private {\n        require(to != address(0), \"address 0x0\");\n        balances[from] = safeSub(balances[from], tokens);\n        balances[to] = safeAdd(balances[to], tokens);\n\n        wording memory newWording;\n        newWording.id = indexNewWording;\n        newWording.from = from;\n        newWording.to = to;\n        newWording.amountAST = tokens;\n        newWording.text = text;\n\n        wordings[indexNewWording] = newWording;\n        indexNewWording ++;\n\n        uint256 tailleFrom = aurexiaMembers[from].nbrTransaction;\n        uint256 tailleTo = aurexiaMembers[to].nbrTransaction;\n        personalWordings[from][tailleFrom] = newWording;\n        aurexiaMembers[from].nbrTransaction ++;\n        aurexiaMembers[from].nbrSend ++;\n        aurexiaMembers[from].totalSend = safeAdd(aurexiaMembers[from].totalSend,tokens);\n        aurexiaMembers[to].nbrReceive ++;\n        aurexiaMembers[to].totalReceive = safeAdd(aurexiaMembers[to].totalReceive,tokens);\n\n//this line is when administrator send to himself some token, it's jsut 1 transaction overall but must be count as 1 transaction send and 1 receive\n        if (from != to){\n          personalWordings[to][tailleTo] = newWording;\n          aurexiaMembers[to].nbrTransaction ++;\n        }\n\n        emit Transfer(from, to, tokens);\n      }\n\n  // ------------------------------------------------------------------------\n  // Advanced functions : AST functions\n  // ------------------------------------------------------------------------\n\n  // Functions to add/remove new members in AurexiaMembers (whitelist)\n\n    function addToAurexiaMembers (address _address, bytes32 _name, uint8 _grade) public returns (bool) {\n        require (msg.sender == owner || aurexiaMembers[msg.sender].grade > 1);\n        require (balanceOf(owner) >= initialDonation);\n        require (_grade != 0);\n        //grade can be fill only when we accept people throw this function\n        //the grade is a good indicator to know if we accept once or not\n        if (aurexiaMembers[_address].grade == 0){\n          allAddresses.push(_address);\n        }\n        //bool bu default is false so we can check it to know if the person is in already in Aurexia or no longer\n        if (aurexiaMembers[_address].isMember == false){\n          aurexiaAccounts.push(_address);\n          sizeListAccount++;\n        }\n\n        aurexiaMembers[_address].publicKey = _address;\n        aurexiaMembers[_address].name = _name;\n        aurexiaMembers[_address].grade = _grade;\n        aurexiaMembers[_address].isMember = true;\n\n        return true;\n    }\n\n\n    function authorizeManyMembers (address[] memory _address, bytes32[] memory _name, uint8[] memory _grade, uint256 taille) public returns (bool){\n        require (msg.sender == owner || aurexiaMembers[msg.sender].grade > 1);\n        for (uint i = 0; i<taille; i++){\n          addToAurexiaMembers(_address[i], _name[i], _grade[i]);\n        }\n        return true;\n    }\n\n\n    function remAurexiaMembers (address _address) public returns (bool){\n        require (msg.sender == owner || aurexiaMembers[msg.sender].grade > 1);\n        aurexiaMembers[_address].isMember = false;\n        uint256 balance = balances[_address];\n        bytes32 transferReason = \"Account Suppression\";\n        _transfer(_address, owner, balance, transferReason);\n        for (uint i = 0; i<sizeListAccount; i++ ){\n          if (_address == aurexiaAccounts[i]){\n            aurexiaAccounts[i] = aurexiaAccounts[sizeListAccount - 1];\n            delete aurexiaAccounts[sizeListAccount - 1];\n            sizeListAccount --;\n            aurexiaAccounts.length--;\n            break;\n          }\n        }\n        return true;\n    }\n\n    // functions transaction : We want to get and store the wording (libell) of the transaction\n\n    function getAllWordings () public view returns (address[]memory, address[]memory, uint256[]memory, bytes32[]memory){\n        address[] memory addressFrom = new address[](indexNewWording);\n        address[] memory addressTo = new address[](indexNewWording);\n        uint256[] memory amountsAST = new uint256[](indexNewWording);\n        bytes32[] memory textWordings = new bytes32[](indexNewWording);\n        for (uint256 i = 0; i<indexNewWording; i++){\n          addressFrom[i] = wordings[i].from;\n          addressTo[i] = wordings[i].to;\n          amountsAST[i] = wordings[i].amountAST;\n          textWordings[i] = wordings[i].text;\n        }\n        return (addressFrom, addressTo, amountsAST, textWordings);\n    }\n\n    function getPersonalWordings (address _address) public view returns (address[]memory, address[]memory, uint256[]memory, bytes32[]memory){\n        uint256 taille = aurexiaMembers[_address].nbrTransaction;\n        address[] memory addressFrom = new address[](taille);\n        address[] memory addressTo = new address[](taille);\n        uint256[] memory amountsAST = new uint256[](taille);\n        bytes32[] memory textWordings = new bytes32[](taille);\n        for (uint256 i = 0; i<taille; i++){\n          addressFrom[i] = personalWordings[_address][i].from;\n          addressTo[i] = personalWordings[_address][i].to;\n          amountsAST[i] = personalWordings[_address][i].amountAST;\n          textWordings[i] = personalWordings[_address][i].text;\n        }\n        return (addressFrom, addressTo, amountsAST, textWordings);\n    }\n\n    function getPersoInfoTransaction (address _address) public view returns (uint256, uint256, uint256, uint256, uint256){\n        uint256 _nbrTransaction = getNbrTransaction(_address);\n        uint256 _totalSend = getTotalSend(_address);\n        uint256 _totalReceive = getTotalReceive(_address);\n        uint256 _nbrSend = getNbrSend(_address);\n        uint256 _nbrReceive = getNbrReceive(_address);\n        return (_nbrTransaction, _totalSend, _totalReceive, _nbrSend, _nbrReceive);\n    }\n\n    function getAllInfoTransaction () public view returns (uint256[]memory, uint256[]memory, uint256[]memory, uint256[]memory, uint256[]memory, bytes32[]memory){\n        uint256[] memory _nbrTransaction = new uint256[](sizeListAccount);\n        uint256[] memory _nbrSend = new uint256[](sizeListAccount);\n        uint256[] memory _totalReceive = new uint256[](sizeListAccount);\n        uint256[] memory _totalSend = new uint256[](sizeListAccount);\n        uint256[] memory _nbrReceive = new uint256[](sizeListAccount);\n        bytes32[] memory _nameUser = new bytes32[](sizeListAccount);\n        for (uint256 i = 0; i<sizeListAccount; i++){\n          _nbrTransaction[i] = getNbrTransaction(aurexiaAccounts[i]);\n          _nbrSend[i] = getNbrSend(aurexiaAccounts[i]);\n          _totalReceive[i] = getTotalReceive(aurexiaAccounts[i]);\n          _totalSend[i] = getTotalSend(aurexiaAccounts[i]);\n          _nbrReceive[i] = getNbrReceive(aurexiaAccounts[i]);\n          _nameUser[i] = getName(aurexiaAccounts[i]);\n        }\n        return (_nbrTransaction, _nbrSend, _totalReceive, _totalSend, _nbrReceive, _nameUser);\n    }\n\n    //function to get all data members from the contract\n\n    function getMembers() public view returns (address[] memory){\n        return aurexiaAccounts;\n    }\n\n    function getMembersCharityAndName() public view returns (address[] memory, bytes32[] memory){\n        uint256 taille = allAddresses.length;\n        bytes32[] memory NameAurexia = new bytes32[](taille);\n        for (uint i = 0; i<taille; i++){\n          NameAurexia[i] = getName(allAddresses[i]);\n        }\n        return (allAddresses, NameAurexia);\n    }\n\n    function getMembersAndNameAndBalance() public view returns (address[] memory, bytes32[] memory, uint256[] memory){\n        bytes32[] memory nameAurexia = new bytes32[](sizeListAccount);\n        uint256[] memory balanceAurexia = new uint256[](sizeListAccount);\n        for (uint i = 0; i<sizeListAccount; i++){\n          nameAurexia[i] = getName(aurexiaAccounts[i]);\n          balanceAurexia[i] = balanceOf(aurexiaAccounts[i]);\n        }\n        return (aurexiaAccounts, nameAurexia, balanceAurexia);\n    }\n\n  //functions to get all information from a member (you must be in the whitelist to have access to this)\n    function getName (address _address) public view returns (bytes32){\n        if (aurexiaMembers[_address].name == 0x0000000000000000000000000000000000000000000000000000000000000000){\n          return associationList[_address].name;\n        }\n        return aurexiaMembers[_address].name;\n    }\n\n    function getNbrTransaction (address _address) public view returns (uint256){\n        return aurexiaMembers[_address].nbrTransaction;\n    }\n\n    function getTotalSend (address _address) public view returns (uint256){\n        return aurexiaMembers[_address].totalSend;\n    }\n\n    function getTotalReceive (address _address) public view returns (uint256){\n        return aurexiaMembers[_address].totalReceive;\n    }\n\n    function getNbrSend (address _address) public view returns (uint256){\n        return aurexiaMembers[_address].nbrSend;\n    }\n\n    function getNbrReceive (address _address) public view returns (uint256){\n        return aurexiaMembers[_address].nbrReceive;\n    }\n\n  //function to modify grade\n\n    function modifyGrade (address _address, uint8 newGrade) public returns (bool){   // only owner and manager and partner can promote somebody\n        require (msg.sender == owner || aurexiaMembers[msg.sender].grade > 1);\n        aurexiaMembers[_address].grade = newGrade;\n        return true;\n    }\n\n  //function to modify name (only owner and the one who want to change his/her name)\n\n    function modifyName (address _address, bytes32 newName) public returns (bool){\n        require (msg.sender == owner || _address == msg.sender);\n        aurexiaMembers[_address].name = newName;\n    }\n\n\n  // Creation of token, increase both total supply and the account which receive all the new tokens\n\n//be careful when you create token to be aware of the 18 decimals. For exemple create 300 tokens is 300 * 10^18 in the argument value of the function\n    function mint(address _receiver, uint256 _value) public onlyOwner() {\n        require(_receiver != address(0), \"address 0x0\");\n        _totalSupply = safeAdd(_totalSupply, _value);\n        balances[_receiver] = safeAdd(balances[_receiver],_value);\n\n        wording memory newWording;\n        newWording.id = indexNewWording;\n        newWording.to = _receiver;\n        newWording.amountAST = _value;\n        newWording.text = \"Token Creation From Admin\";\n\n        wordings[indexNewWording] = newWording;\n        indexNewWording ++;\n\n        uint256 tailleTo = aurexiaMembers[_receiver].nbrTransaction;\n        personalWordings[_receiver][tailleTo] = newWording;\n        aurexiaMembers[_receiver].nbrTransaction ++;\n\n        emit Transfer(address(0), _receiver, _value);\n    }\n\n  // Destruction of token, erase the amount of token from an account and update the total supply\n\n//be careful when you destroy token to be aware of the 18 decimals. For exemple destroy 300 tokens is 300 * 10^18 in the argument value of the function\n    function burn(address _address, uint256 _value) public onlyOwner() returns (bool success) {\n        balances[_address] = safeSub(balances[_address], _value); // Subtract from the sender, no need to check the amount before due to safeMAth\n        _totalSupply = safeSub(_totalSupply, _value);                   // Updates totalSupply\n\n        wording memory newWording;\n        newWording.id = indexNewWording;\n        newWording.to = _address;\n        newWording.amountAST = _value;\n        newWording.text = \"Token Suppression From Admin\";\n\n        wordings[indexNewWording] = newWording;\n        indexNewWording ++;\n\n        uint256 tailleTo = aurexiaMembers[_address].nbrTransaction;\n        personalWordings[_address][tailleTo] = newWording;\n        aurexiaMembers[_address].nbrTransaction ++;\n\n        emit Transfer(_address, address(0), _value);\n        return true;\n    }\n\n  //function to manage association\n\n    function addAssociation (address _address, bytes32 _name) public returns (bool){\n        require (msg.sender == owner || aurexiaMembers[msg.sender].grade == 3);\n\n        if (associationList[_address].publicKey == address(0)){\n          allAddresses.push(_address);\n        }\n\n        if (associationList[_address].isPartner == false){\n          charityAccounts.push(_address);\n          sizeListCharity ++;\n        }\n\n        associationList[_address].name = _name;\n        associationList[_address].publicKey = _address;\n        associationList[_address].isPartner = true;\n\n        return true;\n    }\n\n    function remAssociation (address _address) public returns (bool){\n        require (msg.sender == owner || aurexiaMembers[msg.sender].grade == 3);\n        associationList[_address].isPartner = false;\n        for (uint i = 0; i<sizeListCharity; i++ ){\n          if (_address == charityAccounts[i]){\n            charityAccounts[i] = charityAccounts[sizeListCharity - 1];\n            delete charityAccounts[sizeListCharity - 1];\n            sizeListCharity --;\n            charityAccounts.length--;\n            break;\n          }\n        }\n        return true;\n    }\n\n    function transferToAssociation (address _address, uint256 _amount) public returns (bool){\n        require (aurexiaMembers[msg.sender].isMember == true);\n        require (openDonation == true);\n        require (associationList[_address].isPartner == true);\n        bytes32 donationText = \"Sending to Association\";\n        _transfer (msg.sender, _address, _amount, donationText);\n        return true;\n    }\n\n    function getCharityAddress () public view returns (address[] memory){\n        return charityAccounts;\n    }\n\n    function getCharitySize () public view returns (uint256){\n        return sizeListCharity;\n    }\n\n    function launchDonation () public returns (bool){\n        require (msg.sender == owner || aurexiaMembers[msg.sender].grade == 3);\n        require (openDonation == false);\n        openDonation = true;\n        return true;\n    }\n\n    function closeDonation () public returns (bool){\n        require (msg.sender == owner || aurexiaMembers[msg.sender].grade == 3);\n        require (openDonation == true);\n        openDonation = false;\n        return true;\n    }\n\n    function getCharityAndNameAndBalance() public view returns (address[] memory, bytes32[] memory, uint256[] memory){\n        bytes32[] memory nameCharity = new bytes32[](sizeListAccount);\n        uint256[] memory balanceCharity = new uint256[](sizeListAccount);\n        for (uint i = 0; i<sizeListCharity; i++){\n          nameCharity[i] = getName(charityAccounts[i]);\n          balanceCharity[i] = balanceOf(charityAccounts[i]);\n        }\n        return (charityAccounts, nameCharity, balanceCharity);\n    }\n\n  //Read function for associations\n\n    function isDonationOpen () public view returns (bool){\n        return openDonation;\n    }\n\n  // ------------------------------------------------------------------------\n  // Function for event management\n  // ------------------------------------------------------------------------\n\n  // ***********************************************************************************//\n    function approve(address spender, uint256 value) public returns (bool) {\n        _approve(msg.sender, spender, value);\n        return true;\n    }\n\n    function _approve(address sender, address spender, uint256 value) internal {\n        require(spender != address(0), \"address 0x0\");\n        require(sender != address(0), \"address 0x0\");\n\n        _allowed[sender][spender] = value;\n        emit Approval(sender, spender, value);\n    }\n\n    function allowance(address sender, address spender) public view returns (uint256) {\n        return _allowed[sender][spender];\n    }\n\n}",
  "sourcePath": "C:/Users/spierre/Desktop/Aurexia Git/SmartContract ropsten Test v2/contracts/AurexiaSocialToken.sol",
  "compiler": {
    "name": "solc",
    "version": "0.5.0+commit.1d4f565a.Emscripten.clang"
  },
  "schemaVersion": "3.0.8",
  "updatedAt": "2019-08-29T08:38:20.726Z",
  "devdoc": {
    "methods": {}
  },
  "userdoc": {
    "methods": {}
  }
}